{"contracts/FLBTokenMock.sol":{"FLBTokenMock":{"abi":[{"inputs":[],"stateMutability":"nonpayable","type":"constructor"},{"inputs":[{"internalType":"address","name":"spender","type":"address"},{"internalType":"uint256","name":"allowance","type":"uint256"},{"internalType":"uint256","name":"needed","type":"uint256"}],"name":"ERC20InsufficientAllowance","type":"error"},{"inputs":[{"internalType":"address","name":"sender","type":"address"},{"internalType":"uint256","name":"balance","type":"uint256"},{"internalType":"uint256","name":"needed","type":"uint256"}],"name":"ERC20InsufficientBalance","type":"error"},{"inputs":[{"internalType":"address","name":"approver","type":"address"}],"name":"ERC20InvalidApprover","type":"error"},{"inputs":[{"internalType":"address","name":"receiver","type":"address"}],"name":"ERC20InvalidReceiver","type":"error"},{"inputs":[{"internalType":"address","name":"sender","type":"address"}],"name":"ERC20InvalidSender","type":"error"},{"inputs":[{"internalType":"address","name":"spender","type":"address"}],"name":"ERC20InvalidSpender","type":"error"},{"anonymous":false,"inputs":[{"indexed":true,"internalType":"address","name":"owner","type":"address"},{"indexed":true,"internalType":"address","name":"spender","type":"address"},{"indexed":false,"internalType":"uint256","name":"value","type":"uint256"}],"name":"Approval","type":"event"},{"anonymous":false,"inputs":[{"indexed":true,"internalType":"address","name":"from","type":"address"},{"indexed":true,"internalType":"address","name":"to","type":"address"},{"indexed":false,"internalType":"uint256","name":"value","type":"uint256"}],"name":"Transfer","type":"event"},{"inputs":[{"internalType":"address","name":"owner","type":"address"},{"internalType":"address","name":"spender","type":"address"}],"name":"allowance","outputs":[{"internalType":"uint256","name":"","type":"uint256"}],"stateMutability":"view","type":"function"},{"inputs":[{"internalType":"address","name":"spender","type":"address"},{"internalType":"uint256","name":"value","type":"uint256"}],"name":"approve","outputs":[{"internalType":"bool","name":"","type":"bool"}],"stateMutability":"nonpayable","type":"function"},{"inputs":[{"internalType":"address","name":"account","type":"address"}],"name":"balanceOf","outputs":[{"internalType":"uint256","name":"","type":"uint256"}],"stateMutability":"view","type":"function"},{"inputs":[{"internalType":"address","name":"from","type":"address"},{"internalType":"uint256","name":"amount","type":"uint256"}],"name":"burn","outputs":[],"stateMutability":"nonpayable","type":"function"},{"inputs":[],"name":"decimals","outputs":[{"internalType":"uint8","name":"","type":"uint8"}],"stateMutability":"view","type":"function"},{"inputs":[{"internalType":"address","name":"to","type":"address"},{"internalType":"uint256","name":"amount","type":"uint256"}],"name":"mint","outputs":[],"stateMutability":"nonpayable","type":"function"},{"inputs":[],"name":"minter","outputs":[{"internalType":"address","name":"","type":"address"}],"stateMutability":"view","type":"function"},{"inputs":[],"name":"name","outputs":[{"internalType":"string","name":"","type":"string"}],"stateMutability":"view","type":"function"},{"inputs":[{"internalType":"address","name":"_minter","type":"address"}],"name":"setMinter","outputs":[],"stateMutability":"nonpayable","type":"function"},{"inputs":[],"name":"symbol","outputs":[{"internalType":"string","name":"","type":"string"}],"stateMutability":"view","type":"function"},{"inputs":[],"name":"totalSupply","outputs":[{"internalType":"uint256","name":"","type":"uint256"}],"stateMutability":"view","type":"function"},{"inputs":[{"internalType":"address","name":"to","type":"address"},{"internalType":"uint256","name":"value","type":"uint256"}],"name":"transfer","outputs":[{"internalType":"bool","name":"","type":"bool"}],"stateMutability":"nonpayable","type":"function"},{"inputs":[{"internalType":"address","name":"from","type":"address"},{"internalType":"address","name":"to","type":"address"},{"internalType":"uint256","name":"value","type":"uint256"}],"name":"transferFrom","outputs":[{"internalType":"bool","name":"","type":"bool"}],"stateMutability":"nonpayable","type":"function"}],"evm":{"bytecode":{"linkReferences":{},"object":"608060405234801561001057600080fd5b506040518060400160405280600f81526020016e233630b6b2a137b937102a37b5b2b760891b8152506040518060400160405280600381526020016223262160e91b81525081600390816100649190610118565b5060046100718282610118565b5050506101d6565b634e487b7160e01b600052604160045260246000fd5b600181811c908216806100a357607f821691505b6020821081036100c357634e487b7160e01b600052602260045260246000fd5b50919050565b601f82111561011357806000526020600020601f840160051c810160208510156100f05750805b601f840160051c820191505b8181101561011057600081556001016100fc565b50505b505050565b81516001600160401b0381111561013157610131610079565b6101458161013f845461008f565b846100c9565b6020601f82116001811461017957600083156101615750848201515b600019600385901b1c1916600184901b178455610110565b600084815260208120601f198516915b828110156101a95787850151825560209485019460019092019101610189565b50848210156101c75786840151600019600387901b60f8161c191681555b50505050600190811b01905550565b6108ad806101e56000396000f3fe608060405234801561001057600080fd5b50600436106100cf5760003560e01c806340c10f191161008c5780639dc29fac116100665780639dc29fac146101ba578063a9059cbb146101cd578063dd62ed3e146101e0578063fca3b5aa1461021957600080fd5b806340c10f191461017457806370a082311461018957806395d89b41146101b257600080fd5b806306fdde03146100d457806307546172146100f2578063095ea7b31461011d57806318160ddd1461014057806323b872dd14610152578063313ce56714610165575b600080fd5b6100dc610249565b6040516100e991906106f6565b60405180910390f35b600554610105906001600160a01b031681565b6040516001600160a01b0390911681526020016100e9565b61013061012b366004610760565b6102db565b60405190151581526020016100e9565b6002545b6040519081526020016100e9565b61013061016036600461078a565b6102f5565b604051601281526020016100e9565b610187610182366004610760565b610319565b005b6101446101973660046107c7565b6001600160a01b031660009081526020819052604090205490565b6100dc610374565b6101876101c8366004610760565b610383565b6101306101db366004610760565b61038d565b6101446101ee3660046107e9565b6001600160a01b03918216600090815260016020908152604080832093909416825291909152205490565b6101876102273660046107c7565b600580546001600160a01b0319166001600160a01b0392909216919091179055565b6060600380546102589061081c565b80601f01602080910402602001604051908101604052809291908181526020018280546102849061081c565b80156102d15780601f106102a6576101008083540402835291602001916102d1565b820191906000526020600020905b8154815290600101906020018083116102b457829003601f168201915b5050505050905090565b6000336102e981858561039b565b60019150505b92915050565b6000336103038582856103ad565b61030e85858561042c565b506001949350505050565b6005546001600160a01b031633146103665760405162461bcd60e51b815260206004820152600b60248201526a27b7363c9036b4b73a32b960a91b60448201526064015b60405180910390fd5b610370828261048b565b5050565b6060600480546102589061081c565b61037082826104c1565b6000336102e981858561042c565b6103a883838360016104f7565b505050565b6001600160a01b03838116600090815260016020908152604080832093861683529290522054600019811015610426578181101561041757604051637dc7a0d960e11b81526001600160a01b0384166004820152602481018290526044810183905260640161035d565b610426848484840360006104f7565b50505050565b6001600160a01b03831661045657604051634b637e8f60e11b81526000600482015260240161035d565b6001600160a01b0382166104805760405163ec442f0560e01b81526000600482015260240161035d565b6103a88383836105cc565b6001600160a01b0382166104b55760405163ec442f0560e01b81526000600482015260240161035d565b610370600083836105cc565b6001600160a01b0382166104eb57604051634b637e8f60e11b81526000600482015260240161035d565b610370826000836105cc565b6001600160a01b0384166105215760405163e602df0560e01b81526000600482015260240161035d565b6001600160a01b03831661054b57604051634a1406b160e11b81526000600482015260240161035d565b6001600160a01b038085166000908152600160209081526040808320938716835292905220829055801561042657826001600160a01b0316846001600160a01b03167f8c5be1e5ebec7d5bd14f71427d1e84f3dd0314c0f7b2291e5b200ac8c7c3b925846040516105be91815260200190565b60405180910390a350505050565b6001600160a01b0383166105f75780600260008282546105ec9190610856565b909155506106699050565b6001600160a01b0383166000908152602081905260409020548181101561064a5760405163391434e360e21b81526001600160a01b0385166004820152602481018290526044810183905260640161035d565b6001600160a01b03841660009081526020819052604090209082900390555b6001600160a01b038216610685576002805482900390556106a4565b6001600160a01b03821660009081526020819052604090208054820190555b816001600160a01b0316836001600160a01b03167fddf252ad1be2c89b69c2b068fc378daa952ba7f163c4a11628f55a4df523b3ef836040516106e991815260200190565b60405180910390a3505050565b602081526000825180602084015260005b818110156107245760208186018101516040868401015201610707565b506000604082850101526040601f19601f83011684010191505092915050565b80356001600160a01b038116811461075b57600080fd5b919050565b6000806040838503121561077357600080fd5b61077c83610744565b946020939093013593505050565b60008060006060848603121561079f57600080fd5b6107a884610744565b92506107b660208501610744565b929592945050506040919091013590565b6000602082840312156107d957600080fd5b6107e282610744565b9392505050565b600080604083850312156107fc57600080fd5b61080583610744565b915061081360208401610744565b90509250929050565b600181811c9082168061083057607f821691505b60208210810361085057634e487b7160e01b600052602260045260246000fd5b50919050565b808201808211156102ef57634e487b7160e01b600052601160045260246000fdfea2646970667358221220d52c3929cadb01dbd1058985f2c953432a86e5fb150e170c654d9f11921b9dbc64736f6c634300081c0033","opcodes":"PUSH1 0x80 PUSH1 0x40 MSTORE CALLVALUE DUP1 ISZERO PUSH2 0x10 JUMPI PUSH1 0x0 DUP1 REVERT JUMPDEST POP PUSH1 0x40 MLOAD DUP1 PUSH1 0x40 ADD PUSH1 0x40 MSTORE DUP1 PUSH1 0xF DUP2 MSTORE PUSH1 0x20 ADD PUSH15 0x233630B6B2A137B937102A37B5B2B7 PUSH1 0x89 SHL DUP2 MSTORE POP PUSH1 0x40 MLOAD DUP1 PUSH1 0x40 ADD PUSH1 0x40 MSTORE DUP1 PUSH1 0x3 DUP2 MSTORE PUSH1 0x20 ADD PUSH3 0x232621 PUSH1 0xE9 SHL DUP2 MSTORE POP DUP2 PUSH1 0x3 SWAP1 DUP2 PUSH2 0x64 SWAP2 SWAP1 PUSH2 0x118 JUMP JUMPDEST POP PUSH1 0x4 PUSH2 0x71 DUP3 DUP3 PUSH2 0x118 JUMP JUMPDEST POP POP POP PUSH2 0x1D6 JUMP JUMPDEST PUSH4 0x4E487B71 PUSH1 0xE0 SHL PUSH1 0x0 MSTORE PUSH1 0x41 PUSH1 0x4 MSTORE PUSH1 0x24 PUSH1 0x0 REVERT JUMPDEST PUSH1 0x1 DUP2 DUP2 SHR SWAP1 DUP3 AND DUP1 PUSH2 0xA3 JUMPI PUSH1 0x7F DUP3 AND SWAP2 POP JUMPDEST PUSH1 0x20 DUP3 LT DUP2 SUB PUSH2 0xC3 JUMPI PUSH4 0x4E487B71 PUSH1 0xE0 SHL PUSH1 0x0 MSTORE PUSH1 0x22 PUSH1 0x4 MSTORE PUSH1 0x24 PUSH1 0x0 REVERT JUMPDEST POP SWAP2 SWAP1 POP JUMP JUMPDEST PUSH1 0x1F DUP3 GT ISZERO PUSH2 0x113 JUMPI DUP1 PUSH1 0x0 MSTORE PUSH1 0x20 PUSH1 0x0 KECCAK256 PUSH1 0x1F DUP5 ADD PUSH1 0x5 SHR DUP2 ADD PUSH1 0x20 DUP6 LT ISZERO PUSH2 0xF0 JUMPI POP DUP1 JUMPDEST PUSH1 0x1F DUP5 ADD PUSH1 0x5 SHR DUP3 ADD SWAP2 POP JUMPDEST DUP2 DUP2 LT ISZERO PUSH2 0x110 JUMPI PUSH1 0x0 DUP2 SSTORE PUSH1 0x1 ADD PUSH2 0xFC JUMP JUMPDEST POP POP JUMPDEST POP POP POP JUMP JUMPDEST DUP2 MLOAD PUSH1 0x1 PUSH1 0x1 PUSH1 0x40 SHL SUB DUP2 GT ISZERO PUSH2 0x131 JUMPI PUSH2 0x131 PUSH2 0x79 JUMP JUMPDEST PUSH2 0x145 DUP2 PUSH2 0x13F DUP5 SLOAD PUSH2 0x8F JUMP JUMPDEST DUP5 PUSH2 0xC9 JUMP JUMPDEST PUSH1 0x20 PUSH1 0x1F DUP3 GT PUSH1 0x1 DUP2 EQ PUSH2 0x179 JUMPI PUSH1 0x0 DUP4 ISZERO PUSH2 0x161 JUMPI POP DUP5 DUP3 ADD MLOAD JUMPDEST PUSH1 0x0 NOT PUSH1 0x3 DUP6 SWAP1 SHL SHR NOT AND PUSH1 0x1 DUP5 SWAP1 SHL OR DUP5 SSTORE PUSH2 0x110 JUMP JUMPDEST PUSH1 0x0 DUP5 DUP2 MSTORE PUSH1 0x20 DUP2 KECCAK256 PUSH1 0x1F NOT DUP6 AND SWAP2 JUMPDEST DUP3 DUP2 LT ISZERO PUSH2 0x1A9 JUMPI DUP8 DUP6 ADD MLOAD DUP3 SSTORE PUSH1 0x20 SWAP5 DUP6 ADD SWAP5 PUSH1 0x1 SWAP1 SWAP3 ADD SWAP2 ADD PUSH2 0x189 JUMP JUMPDEST POP DUP5 DUP3 LT ISZERO PUSH2 0x1C7 JUMPI DUP7 DUP5 ADD MLOAD PUSH1 0x0 NOT PUSH1 0x3 DUP8 SWAP1 SHL PUSH1 0xF8 AND SHR NOT AND DUP2 SSTORE JUMPDEST POP POP POP POP PUSH1 0x1 SWAP1 DUP2 SHL ADD SWAP1 SSTORE POP JUMP JUMPDEST PUSH2 0x8AD DUP1 PUSH2 0x1E5 PUSH1 0x0 CODECOPY PUSH1 0x0 RETURN INVALID PUSH1 0x80 PUSH1 0x40 MSTORE CALLVALUE DUP1 ISZERO PUSH2 0x10 JUMPI PUSH1 0x0 DUP1 REVERT JUMPDEST POP PUSH1 0x4 CALLDATASIZE LT PUSH2 0xCF JUMPI PUSH1 0x0 CALLDATALOAD PUSH1 0xE0 SHR DUP1 PUSH4 0x40C10F19 GT PUSH2 0x8C JUMPI DUP1 PUSH4 0x9DC29FAC GT PUSH2 0x66 JUMPI DUP1 PUSH4 0x9DC29FAC EQ PUSH2 0x1BA JUMPI DUP1 PUSH4 0xA9059CBB EQ PUSH2 0x1CD JUMPI DUP1 PUSH4 0xDD62ED3E EQ PUSH2 0x1E0 JUMPI DUP1 PUSH4 0xFCA3B5AA EQ PUSH2 0x219 JUMPI PUSH1 0x0 DUP1 REVERT JUMPDEST DUP1 PUSH4 0x40C10F19 EQ PUSH2 0x174 JUMPI DUP1 PUSH4 0x70A08231 EQ PUSH2 0x189 JUMPI DUP1 PUSH4 0x95D89B41 EQ PUSH2 0x1B2 JUMPI PUSH1 0x0 DUP1 REVERT JUMPDEST DUP1 PUSH4 0x6FDDE03 EQ PUSH2 0xD4 JUMPI DUP1 PUSH4 0x7546172 EQ PUSH2 0xF2 JUMPI DUP1 PUSH4 0x95EA7B3 EQ PUSH2 0x11D JUMPI DUP1 PUSH4 0x18160DDD EQ PUSH2 0x140 JUMPI DUP1 PUSH4 0x23B872DD EQ PUSH2 0x152 JUMPI DUP1 PUSH4 0x313CE567 EQ PUSH2 0x165 JUMPI JUMPDEST PUSH1 0x0 DUP1 REVERT JUMPDEST PUSH2 0xDC PUSH2 0x249 JUMP JUMPDEST PUSH1 0x40 MLOAD PUSH2 0xE9 SWAP2 SWAP1 PUSH2 0x6F6 JUMP JUMPDEST PUSH1 0x40 MLOAD DUP1 SWAP2 SUB SWAP1 RETURN JUMPDEST PUSH1 0x5 SLOAD PUSH2 0x105 SWAP1 PUSH1 0x1 PUSH1 0x1 PUSH1 0xA0 SHL SUB AND DUP2 JUMP JUMPDEST PUSH1 0x40 MLOAD PUSH1 0x1 PUSH1 0x1 PUSH1 0xA0 SHL SUB SWAP1 SWAP2 AND DUP2 MSTORE PUSH1 0x20 ADD PUSH2 0xE9 JUMP JUMPDEST PUSH2 0x130 PUSH2 0x12B CALLDATASIZE PUSH1 0x4 PUSH2 0x760 JUMP JUMPDEST PUSH2 0x2DB JUMP JUMPDEST PUSH1 0x40 MLOAD SWAP1 ISZERO ISZERO DUP2 MSTORE PUSH1 0x20 ADD PUSH2 0xE9 JUMP JUMPDEST PUSH1 0x2 SLOAD JUMPDEST PUSH1 0x40 MLOAD SWAP1 DUP2 MSTORE PUSH1 0x20 ADD PUSH2 0xE9 JUMP JUMPDEST PUSH2 0x130 PUSH2 0x160 CALLDATASIZE PUSH1 0x4 PUSH2 0x78A JUMP JUMPDEST PUSH2 0x2F5 JUMP JUMPDEST PUSH1 0x40 MLOAD PUSH1 0x12 DUP2 MSTORE PUSH1 0x20 ADD PUSH2 0xE9 JUMP JUMPDEST PUSH2 0x187 PUSH2 0x182 CALLDATASIZE PUSH1 0x4 PUSH2 0x760 JUMP JUMPDEST PUSH2 0x319 JUMP JUMPDEST STOP JUMPDEST PUSH2 0x144 PUSH2 0x197 CALLDATASIZE PUSH1 0x4 PUSH2 0x7C7 JUMP JUMPDEST PUSH1 0x1 PUSH1 0x1 PUSH1 0xA0 SHL SUB AND PUSH1 0x0 SWAP1 DUP2 MSTORE PUSH1 0x20 DUP2 SWAP1 MSTORE PUSH1 0x40 SWAP1 KECCAK256 SLOAD SWAP1 JUMP JUMPDEST PUSH2 0xDC PUSH2 0x374 JUMP JUMPDEST PUSH2 0x187 PUSH2 0x1C8 CALLDATASIZE PUSH1 0x4 PUSH2 0x760 JUMP JUMPDEST PUSH2 0x383 JUMP JUMPDEST PUSH2 0x130 PUSH2 0x1DB CALLDATASIZE PUSH1 0x4 PUSH2 0x760 JUMP JUMPDEST PUSH2 0x38D JUMP JUMPDEST PUSH2 0x144 PUSH2 0x1EE CALLDATASIZE PUSH1 0x4 PUSH2 0x7E9 JUMP JUMPDEST PUSH1 0x1 PUSH1 0x1 PUSH1 0xA0 SHL SUB SWAP2 DUP3 AND PUSH1 0x0 SWAP1 DUP2 MSTORE PUSH1 0x1 PUSH1 0x20 SWAP1 DUP2 MSTORE PUSH1 0x40 DUP1 DUP4 KECCAK256 SWAP4 SWAP1 SWAP5 AND DUP3 MSTORE SWAP2 SWAP1 SWAP2 MSTORE KECCAK256 SLOAD SWAP1 JUMP JUMPDEST PUSH2 0x187 PUSH2 0x227 CALLDATASIZE PUSH1 0x4 PUSH2 0x7C7 JUMP JUMPDEST PUSH1 0x5 DUP1 SLOAD PUSH1 0x1 PUSH1 0x1 PUSH1 0xA0 SHL SUB NOT AND PUSH1 0x1 PUSH1 0x1 PUSH1 0xA0 SHL SUB SWAP3 SWAP1 SWAP3 AND SWAP2 SWAP1 SWAP2 OR SWAP1 SSTORE JUMP JUMPDEST PUSH1 0x60 PUSH1 0x3 DUP1 SLOAD PUSH2 0x258 SWAP1 PUSH2 0x81C JUMP JUMPDEST DUP1 PUSH1 0x1F ADD PUSH1 0x20 DUP1 SWAP2 DIV MUL PUSH1 0x20 ADD PUSH1 0x40 MLOAD SWAP1 DUP2 ADD PUSH1 0x40 MSTORE DUP1 SWAP3 SWAP2 SWAP1 DUP2 DUP2 MSTORE PUSH1 0x20 ADD DUP3 DUP1 SLOAD PUSH2 0x284 SWAP1 PUSH2 0x81C JUMP JUMPDEST DUP1 ISZERO PUSH2 0x2D1 JUMPI DUP1 PUSH1 0x1F LT PUSH2 0x2A6 JUMPI PUSH2 0x100 DUP1 DUP4 SLOAD DIV MUL DUP4 MSTORE SWAP2 PUSH1 0x20 ADD SWAP2 PUSH2 0x2D1 JUMP JUMPDEST DUP3 ADD SWAP2 SWAP1 PUSH1 0x0 MSTORE PUSH1 0x20 PUSH1 0x0 KECCAK256 SWAP1 JUMPDEST DUP2 SLOAD DUP2 MSTORE SWAP1 PUSH1 0x1 ADD SWAP1 PUSH1 0x20 ADD DUP1 DUP4 GT PUSH2 0x2B4 JUMPI DUP3 SWAP1 SUB PUSH1 0x1F AND DUP3 ADD SWAP2 JUMPDEST POP POP POP POP POP SWAP1 POP SWAP1 JUMP JUMPDEST PUSH1 0x0 CALLER PUSH2 0x2E9 DUP2 DUP6 DUP6 PUSH2 0x39B JUMP JUMPDEST PUSH1 0x1 SWAP2 POP POP JUMPDEST SWAP3 SWAP2 POP POP JUMP JUMPDEST PUSH1 0x0 CALLER PUSH2 0x303 DUP6 DUP3 DUP6 PUSH2 0x3AD JUMP JUMPDEST PUSH2 0x30E DUP6 DUP6 DUP6 PUSH2 0x42C JUMP JUMPDEST POP PUSH1 0x1 SWAP5 SWAP4 POP POP POP POP JUMP JUMPDEST PUSH1 0x5 SLOAD PUSH1 0x1 PUSH1 0x1 PUSH1 0xA0 SHL SUB AND CALLER EQ PUSH2 0x366 JUMPI PUSH1 0x40 MLOAD PUSH3 0x461BCD PUSH1 0xE5 SHL DUP2 MSTORE PUSH1 0x20 PUSH1 0x4 DUP3 ADD MSTORE PUSH1 0xB PUSH1 0x24 DUP3 ADD MSTORE PUSH11 0x27B7363C9036B4B73A32B9 PUSH1 0xA9 SHL PUSH1 0x44 DUP3 ADD MSTORE PUSH1 0x64 ADD JUMPDEST PUSH1 0x40 MLOAD DUP1 SWAP2 SUB SWAP1 REVERT JUMPDEST PUSH2 0x370 DUP3 DUP3 PUSH2 0x48B JUMP JUMPDEST POP POP JUMP JUMPDEST PUSH1 0x60 PUSH1 0x4 DUP1 SLOAD PUSH2 0x258 SWAP1 PUSH2 0x81C JUMP JUMPDEST PUSH2 0x370 DUP3 DUP3 PUSH2 0x4C1 JUMP JUMPDEST PUSH1 0x0 CALLER PUSH2 0x2E9 DUP2 DUP6 DUP6 PUSH2 0x42C JUMP JUMPDEST PUSH2 0x3A8 DUP4 DUP4 DUP4 PUSH1 0x1 PUSH2 0x4F7 JUMP JUMPDEST POP POP POP JUMP JUMPDEST PUSH1 0x1 PUSH1 0x1 PUSH1 0xA0 SHL SUB DUP4 DUP2 AND PUSH1 0x0 SWAP1 DUP2 MSTORE PUSH1 0x1 PUSH1 0x20 SWAP1 DUP2 MSTORE PUSH1 0x40 DUP1 DUP4 KECCAK256 SWAP4 DUP7 AND DUP4 MSTORE SWAP3 SWAP1 MSTORE KECCAK256 SLOAD PUSH1 0x0 NOT DUP2 LT ISZERO PUSH2 0x426 JUMPI DUP2 DUP2 LT ISZERO PUSH2 0x417 JUMPI PUSH1 0x40 MLOAD PUSH4 0x7DC7A0D9 PUSH1 0xE1 SHL DUP2 MSTORE PUSH1 0x1 PUSH1 0x1 PUSH1 0xA0 SHL SUB DUP5 AND PUSH1 0x4 DUP3 ADD MSTORE PUSH1 0x24 DUP2 ADD DUP3 SWAP1 MSTORE PUSH1 0x44 DUP2 ADD DUP4 SWAP1 MSTORE PUSH1 0x64 ADD PUSH2 0x35D JUMP JUMPDEST PUSH2 0x426 DUP5 DUP5 DUP5 DUP5 SUB PUSH1 0x0 PUSH2 0x4F7 JUMP JUMPDEST POP POP POP POP JUMP JUMPDEST PUSH1 0x1 PUSH1 0x1 PUSH1 0xA0 SHL SUB DUP4 AND PUSH2 0x456 JUMPI PUSH1 0x40 MLOAD PUSH4 0x4B637E8F PUSH1 0xE1 SHL DUP2 MSTORE PUSH1 0x0 PUSH1 0x4 DUP3 ADD MSTORE PUSH1 0x24 ADD PUSH2 0x35D JUMP JUMPDEST PUSH1 0x1 PUSH1 0x1 PUSH1 0xA0 SHL SUB DUP3 AND PUSH2 0x480 JUMPI PUSH1 0x40 MLOAD PUSH4 0xEC442F05 PUSH1 0xE0 SHL DUP2 MSTORE PUSH1 0x0 PUSH1 0x4 DUP3 ADD MSTORE PUSH1 0x24 ADD PUSH2 0x35D JUMP JUMPDEST PUSH2 0x3A8 DUP4 DUP4 DUP4 PUSH2 0x5CC JUMP JUMPDEST PUSH1 0x1 PUSH1 0x1 PUSH1 0xA0 SHL SUB DUP3 AND PUSH2 0x4B5 JUMPI PUSH1 0x40 MLOAD PUSH4 0xEC442F05 PUSH1 0xE0 SHL DUP2 MSTORE PUSH1 0x0 PUSH1 0x4 DUP3 ADD MSTORE PUSH1 0x24 ADD PUSH2 0x35D JUMP JUMPDEST PUSH2 0x370 PUSH1 0x0 DUP4 DUP4 PUSH2 0x5CC JUMP JUMPDEST PUSH1 0x1 PUSH1 0x1 PUSH1 0xA0 SHL SUB DUP3 AND PUSH2 0x4EB JUMPI PUSH1 0x40 MLOAD PUSH4 0x4B637E8F PUSH1 0xE1 SHL DUP2 MSTORE PUSH1 0x0 PUSH1 0x4 DUP3 ADD MSTORE PUSH1 0x24 ADD PUSH2 0x35D JUMP JUMPDEST PUSH2 0x370 DUP3 PUSH1 0x0 DUP4 PUSH2 0x5CC JUMP JUMPDEST PUSH1 0x1 PUSH1 0x1 PUSH1 0xA0 SHL SUB DUP5 AND PUSH2 0x521 JUMPI PUSH1 0x40 MLOAD PUSH4 0xE602DF05 PUSH1 0xE0 SHL DUP2 MSTORE PUSH1 0x0 PUSH1 0x4 DUP3 ADD MSTORE PUSH1 0x24 ADD PUSH2 0x35D JUMP JUMPDEST PUSH1 0x1 PUSH1 0x1 PUSH1 0xA0 SHL SUB DUP4 AND PUSH2 0x54B JUMPI PUSH1 0x40 MLOAD PUSH4 0x4A1406B1 PUSH1 0xE1 SHL DUP2 MSTORE PUSH1 0x0 PUSH1 0x4 DUP3 ADD MSTORE PUSH1 0x24 ADD PUSH2 0x35D JUMP JUMPDEST PUSH1 0x1 PUSH1 0x1 PUSH1 0xA0 SHL SUB DUP1 DUP6 AND PUSH1 0x0 SWAP1 DUP2 MSTORE PUSH1 0x1 PUSH1 0x20 SWAP1 DUP2 MSTORE PUSH1 0x40 DUP1 DUP4 KECCAK256 SWAP4 DUP8 AND DUP4 MSTORE SWAP3 SWAP1 MSTORE KECCAK256 DUP3 SWAP1 SSTORE DUP1 ISZERO PUSH2 0x426 JUMPI DUP3 PUSH1 0x1 PUSH1 0x1 PUSH1 0xA0 SHL SUB AND DUP5 PUSH1 0x1 PUSH1 0x1 PUSH1 0xA0 SHL SUB AND PUSH32 0x8C5BE1E5EBEC7D5BD14F71427D1E84F3DD0314C0F7B2291E5B200AC8C7C3B925 DUP5 PUSH1 0x40 MLOAD PUSH2 0x5BE SWAP2 DUP2 MSTORE PUSH1 0x20 ADD SWAP1 JUMP JUMPDEST PUSH1 0x40 MLOAD DUP1 SWAP2 SUB SWAP1 LOG3 POP POP POP POP JUMP JUMPDEST PUSH1 0x1 PUSH1 0x1 PUSH1 0xA0 SHL SUB DUP4 AND PUSH2 0x5F7 JUMPI DUP1 PUSH1 0x2 PUSH1 0x0 DUP3 DUP3 SLOAD PUSH2 0x5EC SWAP2 SWAP1 PUSH2 0x856 JUMP JUMPDEST SWAP1 SWAP2 SSTORE POP PUSH2 0x669 SWAP1 POP JUMP JUMPDEST PUSH1 0x1 PUSH1 0x1 PUSH1 0xA0 SHL SUB DUP4 AND PUSH1 0x0 SWAP1 DUP2 MSTORE PUSH1 0x20 DUP2 SWAP1 MSTORE PUSH1 0x40 SWAP1 KECCAK256 SLOAD DUP2 DUP2 LT ISZERO PUSH2 0x64A JUMPI PUSH1 0x40 MLOAD PUSH4 0x391434E3 PUSH1 0xE2 SHL DUP2 MSTORE PUSH1 0x1 PUSH1 0x1 PUSH1 0xA0 SHL SUB DUP6 AND PUSH1 0x4 DUP3 ADD MSTORE PUSH1 0x24 DUP2 ADD DUP3 SWAP1 MSTORE PUSH1 0x44 DUP2 ADD DUP4 SWAP1 MSTORE PUSH1 0x64 ADD PUSH2 0x35D JUMP JUMPDEST PUSH1 0x1 PUSH1 0x1 PUSH1 0xA0 SHL SUB DUP5 AND PUSH1 0x0 SWAP1 DUP2 MSTORE PUSH1 0x20 DUP2 SWAP1 MSTORE PUSH1 0x40 SWAP1 KECCAK256 SWAP1 DUP3 SWAP1 SUB SWAP1 SSTORE JUMPDEST PUSH1 0x1 PUSH1 0x1 PUSH1 0xA0 SHL SUB DUP3 AND PUSH2 0x685 JUMPI PUSH1 0x2 DUP1 SLOAD DUP3 SWAP1 SUB SWAP1 SSTORE PUSH2 0x6A4 JUMP JUMPDEST PUSH1 0x1 PUSH1 0x1 PUSH1 0xA0 SHL SUB DUP3 AND PUSH1 0x0 SWAP1 DUP2 MSTORE PUSH1 0x20 DUP2 SWAP1 MSTORE PUSH1 0x40 SWAP1 KECCAK256 DUP1 SLOAD DUP3 ADD SWAP1 SSTORE JUMPDEST DUP2 PUSH1 0x1 PUSH1 0x1 PUSH1 0xA0 SHL SUB AND DUP4 PUSH1 0x1 PUSH1 0x1 PUSH1 0xA0 SHL SUB AND PUSH32 0xDDF252AD1BE2C89B69C2B068FC378DAA952BA7F163C4A11628F55A4DF523B3EF DUP4 PUSH1 0x40 MLOAD PUSH2 0x6E9 SWAP2 DUP2 MSTORE PUSH1 0x20 ADD SWAP1 JUMP JUMPDEST PUSH1 0x40 MLOAD DUP1 SWAP2 SUB SWAP1 LOG3 POP POP POP JUMP JUMPDEST PUSH1 0x20 DUP2 MSTORE PUSH1 0x0 DUP3 MLOAD DUP1 PUSH1 0x20 DUP5 ADD MSTORE PUSH1 0x0 JUMPDEST DUP2 DUP2 LT ISZERO PUSH2 0x724 JUMPI PUSH1 0x20 DUP2 DUP7 ADD DUP2 ADD MLOAD PUSH1 0x40 DUP7 DUP5 ADD ADD MSTORE ADD PUSH2 0x707 JUMP JUMPDEST POP PUSH1 0x0 PUSH1 0x40 DUP3 DUP6 ADD ADD MSTORE PUSH1 0x40 PUSH1 0x1F NOT PUSH1 0x1F DUP4 ADD AND DUP5 ADD ADD SWAP2 POP POP SWAP3 SWAP2 POP POP JUMP JUMPDEST DUP1 CALLDATALOAD PUSH1 0x1 PUSH1 0x1 PUSH1 0xA0 SHL SUB DUP2 AND DUP2 EQ PUSH2 0x75B JUMPI PUSH1 0x0 DUP1 REVERT JUMPDEST SWAP2 SWAP1 POP JUMP JUMPDEST PUSH1 0x0 DUP1 PUSH1 0x40 DUP4 DUP6 SUB SLT ISZERO PUSH2 0x773 JUMPI PUSH1 0x0 DUP1 REVERT JUMPDEST PUSH2 0x77C DUP4 PUSH2 0x744 JUMP JUMPDEST SWAP5 PUSH1 0x20 SWAP4 SWAP1 SWAP4 ADD CALLDATALOAD SWAP4 POP POP POP JUMP JUMPDEST PUSH1 0x0 DUP1 PUSH1 0x0 PUSH1 0x60 DUP5 DUP7 SUB SLT ISZERO PUSH2 0x79F JUMPI PUSH1 0x0 DUP1 REVERT JUMPDEST PUSH2 0x7A8 DUP5 PUSH2 0x744 JUMP JUMPDEST SWAP3 POP PUSH2 0x7B6 PUSH1 0x20 DUP6 ADD PUSH2 0x744 JUMP JUMPDEST SWAP3 SWAP6 SWAP3 SWAP5 POP POP POP PUSH1 0x40 SWAP2 SWAP1 SWAP2 ADD CALLDATALOAD SWAP1 JUMP JUMPDEST PUSH1 0x0 PUSH1 0x20 DUP3 DUP5 SUB SLT ISZERO PUSH2 0x7D9 JUMPI PUSH1 0x0 DUP1 REVERT JUMPDEST PUSH2 0x7E2 DUP3 PUSH2 0x744 JUMP JUMPDEST SWAP4 SWAP3 POP POP POP JUMP JUMPDEST PUSH1 0x0 DUP1 PUSH1 0x40 DUP4 DUP6 SUB SLT ISZERO PUSH2 0x7FC JUMPI PUSH1 0x0 DUP1 REVERT JUMPDEST PUSH2 0x805 DUP4 PUSH2 0x744 JUMP JUMPDEST SWAP2 POP PUSH2 0x813 PUSH1 0x20 DUP5 ADD PUSH2 0x744 JUMP JUMPDEST SWAP1 POP SWAP3 POP SWAP3 SWAP1 POP JUMP JUMPDEST PUSH1 0x1 DUP2 DUP2 SHR SWAP1 DUP3 AND DUP1 PUSH2 0x830 JUMPI PUSH1 0x7F DUP3 AND SWAP2 POP JUMPDEST PUSH1 0x20 DUP3 LT DUP2 SUB PUSH2 0x850 JUMPI PUSH4 0x4E487B71 PUSH1 0xE0 SHL PUSH1 0x0 MSTORE PUSH1 0x22 PUSH1 0x4 MSTORE PUSH1 0x24 PUSH1 0x0 REVERT JUMPDEST POP SWAP2 SWAP1 POP JUMP JUMPDEST DUP1 DUP3 ADD DUP1 DUP3 GT ISZERO PUSH2 0x2EF JUMPI PUSH4 0x4E487B71 PUSH1 0xE0 SHL PUSH1 0x0 MSTORE PUSH1 0x11 PUSH1 0x4 MSTORE PUSH1 0x24 PUSH1 0x0 REVERT INVALID LOG2 PUSH5 0x6970667358 0x22 SLT KECCAK256 0xD5 0x2C CODECOPY 0x29 0xCA 0xDB ADD 0xDB 0xD1 SDIV DUP10 DUP6 CALLCODE 0xC9 MSTORE8 NUMBER 0x2A DUP7 0xE5 0xFB ISZERO 0xE OR 0xC PUSH6 0x4D9F11921B9D 0xBC PUSH5 0x736F6C6343 STOP ADDMOD SHR STOP CALLER "},"methodIdentifiers":{"allowance(address,address)":"dd62ed3e","approve(address,uint256)":"095ea7b3","balanceOf(address)":"70a08231","burn(address,uint256)":"9dc29fac","decimals()":"313ce567","mint(address,uint256)":"40c10f19","minter()":"07546172","name()":"06fdde03","setMinter(address)":"fca3b5aa","symbol()":"95d89b41","totalSupply()":"18160ddd","transfer(address,uint256)":"a9059cbb","transferFrom(address,address,uint256)":"23b872dd"}},"storageLayout":{"storage":[{"astId":1607,"contract":"contracts/FLBTokenMock.sol:FLBTokenMock","label":"_balances","offset":0,"slot":"0","type":"t_mapping(t_address,t_uint256)"},{"astId":1613,"contract":"contracts/FLBTokenMock.sol:FLBTokenMock","label":"_allowances","offset":0,"slot":"1","type":"t_mapping(t_address,t_mapping(t_address,t_uint256))"},{"astId":1615,"contract":"contracts/FLBTokenMock.sol:FLBTokenMock","label":"_totalSupply","offset":0,"slot":"2","type":"t_uint256"},{"astId":1617,"contract":"contracts/FLBTokenMock.sol:FLBTokenMock","label":"_name","offset":0,"slot":"3","type":"t_string_storage"},{"astId":1619,"contract":"contracts/FLBTokenMock.sol:FLBTokenMock","label":"_symbol","offset":0,"slot":"4","type":"t_string_storage"},{"astId":8863,"contract":"contracts/FLBTokenMock.sol:FLBTokenMock","label":"minter","offset":0,"slot":"5","type":"t_address"}],"types":{"t_address":{"encoding":"inplace","label":"address","numberOfBytes":"20"},"t_mapping(t_address,t_mapping(t_address,t_uint256))":{"encoding":"mapping","key":"t_address","label":"mapping(address => mapping(address => uint256))","numberOfBytes":"32","value":"t_mapping(t_address,t_uint256)"},"t_mapping(t_address,t_uint256)":{"encoding":"mapping","key":"t_address","label":"mapping(address => uint256)","numberOfBytes":"32","value":"t_uint256"},"t_string_storage":{"encoding":"bytes","label":"string","numberOfBytes":"32"},"t_uint256":{"encoding":"inplace","label":"uint256","numberOfBytes":"32"}}}}}}