{
  "_format": "hh-sol-artifact-1",
  "contractName": "ReentrancyAttacker",
  "sourceName": "contracts/test/ReentrancyAttacker.sol",
  "abi": [
    {
      "inputs": [
        {
          "internalType": "address",
          "name": "_engine",
          "type": "address"
        }
      ],
      "stateMutability": "nonpayable",
      "type": "constructor"
    },
    {
      "inputs": [],
      "name": "attack",
      "outputs": [],
      "stateMutability": "payable",
      "type": "function"
    },
    {
      "inputs": [],
      "name": "engine",
      "outputs": [
        {
          "internalType": "contract IFlameBornEngine",
          "name": "",
          "type": "address"
        }
      ],
      "stateMutability": "view",
      "type": "function"
    },
    {
      "stateMutability": "payable",
      "type": "receive"
    }
  ],
  "bytecode": "0x6080604052348015600f57600080fd5b5060405161021a38038061021a833981016040819052602c916050565b600080546001600160a01b0319166001600160a01b0392909216919091179055607e565b600060208284031215606157600080fd5b81516001600160a01b0381168114607757600080fd5b9392505050565b61018d8061008d6000396000f3fe60806040526004361061002d5760003560e01c80639e5faafc146100b4578063c9d4623f146100bc57600080fd5b366100af5760005467016345785d8a00006001600160a01b0390911631106100ad5760005460405163a56f5b5360e01b81523060048201526001600160a01b039091169063a56f5b5390602401600060405180830381600087803b15801561009457600080fd5b505af11580156100a8573d6000803e3d6000fd5b505050505b005b600080fd5b6100ad6100f8565b3480156100c857600080fd5b506000546100dc906001600160a01b031681565b6040516001600160a01b03909116815260200160405180910390f35b60005460405163a56f5b5360e01b81523060048201526001600160a01b039091169063a56f5b5390602401600060405180830381600087803b15801561013d57600080fd5b505af1158015610151573d6000803e3d6000fd5b5050505056fea264697066735822122033286f50b6588cc5bb878a8a9d2a93006b6c01144801293537e6f2307fee1c1064736f6c634300081c0033",
  "linkReferences": {},
  "deployedLinkReferences": {}
}