{
  "_format": "hh-sol-artifact-1",
  "contractName": "HealthIDNFTMock",
  "sourceName": "contracts/HealthIDNFTMock.sol",
  "abi": [
    {
      "inputs": [],
      "stateMutability": "nonpayable",
      "type": "constructor"
    },
    {
      "inputs": [
        {
          "internalType": "address",
          "name": "sender",
          "type": "address"
        },
        {
          "internalType": "uint256",
          "name": "tokenId",
          "type": "uint256"
        },
        {
          "internalType": "address",
          "name": "owner",
          "type": "address"
        }
      ],
      "name": "ERC721IncorrectOwner",
      "type": "error"
    },
    {
      "inputs": [
        {
          "internalType": "address",
          "name": "operator",
          "type": "address"
        },
        {
          "internalType": "uint256",
          "name": "tokenId",
          "type": "uint256"
        }
      ],
      "name": "ERC721InsufficientApproval",
      "type": "error"
    },
    {
      "inputs": [
        {
          "internalType": "address",
          "name": "approver",
          "type": "address"
        }
      ],
      "name": "ERC721InvalidApprover",
      "type": "error"
    },
    {
      "inputs": [
        {
          "internalType": "address",
          "name": "operator",
          "type": "address"
        }
      ],
      "name": "ERC721InvalidOperator",
      "type": "error"
    },
    {
      "inputs": [
        {
          "internalType": "address",
          "name": "owner",
          "type": "address"
        }
      ],
      "name": "ERC721InvalidOwner",
      "type": "error"
    },
    {
      "inputs": [
        {
          "internalType": "address",
          "name": "receiver",
          "type": "address"
        }
      ],
      "name": "ERC721InvalidReceiver",
      "type": "error"
    },
    {
      "inputs": [
        {
          "internalType": "address",
          "name": "sender",
          "type": "address"
        }
      ],
      "name": "ERC721InvalidSender",
      "type": "error"
    },
    {
      "inputs": [
        {
          "internalType": "uint256",
          "name": "tokenId",
          "type": "uint256"
        }
      ],
      "name": "ERC721NonexistentToken",
      "type": "error"
    },
    {
      "anonymous": false,
      "inputs": [
        {
          "indexed": true,
          "internalType": "address",
          "name": "owner",
          "type": "address"
        },
        {
          "indexed": true,
          "internalType": "address",
          "name": "approved",
          "type": "address"
        },
        {
          "indexed": true,
          "internalType": "uint256",
          "name": "tokenId",
          "type": "uint256"
        }
      ],
      "name": "Approval",
      "type": "event"
    },
    {
      "anonymous": false,
      "inputs": [
        {
          "indexed": true,
          "internalType": "address",
          "name": "owner",
          "type": "address"
        },
        {
          "indexed": true,
          "internalType": "address",
          "name": "operator",
          "type": "address"
        },
        {
          "indexed": false,
          "internalType": "bool",
          "name": "approved",
          "type": "bool"
        }
      ],
      "name": "ApprovalForAll",
      "type": "event"
    },
    {
      "anonymous": false,
      "inputs": [
        {
          "indexed": true,
          "internalType": "address",
          "name": "from",
          "type": "address"
        },
        {
          "indexed": true,
          "internalType": "address",
          "name": "to",
          "type": "address"
        },
        {
          "indexed": true,
          "internalType": "uint256",
          "name": "tokenId",
          "type": "uint256"
        }
      ],
      "name": "Transfer",
      "type": "event"
    },
    {
      "inputs": [
        {
          "internalType": "address",
          "name": "to",
          "type": "address"
        },
        {
          "internalType": "uint256",
          "name": "tokenId",
          "type": "uint256"
        }
      ],
      "name": "approve",
      "outputs": [],
      "stateMutability": "nonpayable",
      "type": "function"
    },
    {
      "inputs": [
        {
          "internalType": "address",
          "name": "owner",
          "type": "address"
        }
      ],
      "name": "balanceOf",
      "outputs": [
        {
          "internalType": "uint256",
          "name": "",
          "type": "uint256"
        }
      ],
      "stateMutability": "view",
      "type": "function"
    },
    {
      "inputs": [
        {
          "internalType": "uint256",
          "name": "tokenId",
          "type": "uint256"
        }
      ],
      "name": "getApproved",
      "outputs": [
        {
          "internalType": "address",
          "name": "",
          "type": "address"
        }
      ],
      "stateMutability": "view",
      "type": "function"
    },
    {
      "inputs": [
        {
          "internalType": "address",
          "name": "owner",
          "type": "address"
        },
        {
          "internalType": "address",
          "name": "operator",
          "type": "address"
        }
      ],
      "name": "isApprovedForAll",
      "outputs": [
        {
          "internalType": "bool",
          "name": "",
          "type": "bool"
        }
      ],
      "stateMutability": "view",
      "type": "function"
    },
    {
      "inputs": [
        {
          "internalType": "address",
          "name": "to",
          "type": "address"
        },
        {
          "internalType": "uint256",
          "name": "tokenId",
          "type": "uint256"
        },
        {
          "internalType": "string",
          "name": "",
          "type": "string"
        }
      ],
      "name": "mintCredential",
      "outputs": [],
      "stateMutability": "nonpayable",
      "type": "function"
    },
    {
      "inputs": [],
      "name": "name",
      "outputs": [
        {
          "internalType": "string",
          "name": "",
          "type": "string"
        }
      ],
      "stateMutability": "view",
      "type": "function"
    },
    {
      "inputs": [],
      "name": "nextId",
      "outputs": [
        {
          "internalType": "uint256",
          "name": "",
          "type": "uint256"
        }
      ],
      "stateMutability": "view",
      "type": "function"
    },
    {
      "inputs": [
        {
          "internalType": "uint256",
          "name": "tokenId",
          "type": "uint256"
        }
      ],
      "name": "ownerOf",
      "outputs": [
        {
          "internalType": "address",
          "name": "",
          "type": "address"
        }
      ],
      "stateMutability": "view",
      "type": "function"
    },
    {
      "inputs": [
        {
          "internalType": "address",
          "name": "from",
          "type": "address"
        },
        {
          "internalType": "address",
          "name": "to",
          "type": "address"
        },
        {
          "internalType": "uint256",
          "name": "tokenId",
          "type": "uint256"
        }
      ],
      "name": "safeTransferFrom",
      "outputs": [],
      "stateMutability": "nonpayable",
      "type": "function"
    },
    {
      "inputs": [
        {
          "internalType": "address",
          "name": "from",
          "type": "address"
        },
        {
          "internalType": "address",
          "name": "to",
          "type": "address"
        },
        {
          "internalType": "uint256",
          "name": "tokenId",
          "type": "uint256"
        },
        {
          "internalType": "bytes",
          "name": "data",
          "type": "bytes"
        }
      ],
      "name": "safeTransferFrom",
      "outputs": [],
      "stateMutability": "nonpayable",
      "type": "function"
    },
    {
      "inputs": [
        {
          "internalType": "address",
          "name": "operator",
          "type": "address"
        },
        {
          "internalType": "bool",
          "name": "approved",
          "type": "bool"
        }
      ],
      "name": "setApprovalForAll",
      "outputs": [],
      "stateMutability": "nonpayable",
      "type": "function"
    },
    {
      "inputs": [
        {
          "internalType": "bytes4",
          "name": "interfaceId",
          "type": "bytes4"
        }
      ],
      "name": "supportsInterface",
      "outputs": [
        {
          "internalType": "bool",
          "name": "",
          "type": "bool"
        }
      ],
      "stateMutability": "view",
      "type": "function"
    },
    {
      "inputs": [],
      "name": "symbol",
      "outputs": [
        {
          "internalType": "string",
          "name": "",
          "type": "string"
        }
      ],
      "stateMutability": "view",
      "type": "function"
    },
    {
      "inputs": [
        {
          "internalType": "uint256",
          "name": "tokenId",
          "type": "uint256"
        }
      ],
      "name": "tokenURI",
      "outputs": [
        {
          "internalType": "string",
          "name": "",
          "type": "string"
        }
      ],
      "stateMutability": "view",
      "type": "function"
    },
    {
      "inputs": [
        {
          "internalType": "address",
          "name": "from",
          "type": "address"
        },
        {
          "internalType": "address",
          "name": "to",
          "type": "address"
        },
        {
          "internalType": "uint256",
          "name": "tokenId",
          "type": "uint256"
        }
      ],
      "name": "transferFrom",
      "outputs": [],
      "stateMutability": "nonpayable",
      "type": "function"
    }
  ],
  "bytecode": "0x608060405234801561001057600080fd5b50604051806040016040528060088152602001671219585b1d1a125160c21b8152506040518060400160405280600381526020016212125160ea1b815250816000908161005d9190610111565b50600161006a8282610111565b5050506101cf565b634e487b7160e01b600052604160045260246000fd5b600181811c9082168061009c57607f821691505b6020821081036100bc57634e487b7160e01b600052602260045260246000fd5b50919050565b601f82111561010c57806000526020600020601f840160051c810160208510156100e95750805b601f840160051c820191505b8181101561010957600081556001016100f5565b50505b505050565b81516001600160401b0381111561012a5761012a610072565b61013e816101388454610088565b846100c2565b6020601f821160018114610172576000831561015a5750848201515b600019600385901b1c1916600184901b178455610109565b600084815260208120601f198516915b828110156101a25787850151825560209485019460019092019101610182565b50848210156101c05786840151600019600387901b60f8161c191681555b50505050600190811b01905550565b611024806101de6000396000f3fe608060405234801561001057600080fd5b50600436106100f55760003560e01c806361b8ce8c11610097578063a22cb46511610066578063a22cb465146101f5578063b88d4fde14610208578063c87b56dd1461021b578063e985e9c51461022e57600080fd5b806361b8ce8c146101b05780636352211e146101c757806370a08231146101da57806395d89b41146101ed57600080fd5b8063095ea7b3116100d3578063095ea7b31461016257806323b872dd1461017757806342842e0e1461018a578063454fafec1461019d57600080fd5b806301ffc9a7146100fa57806306fdde0314610122578063081812fc14610137575b600080fd5b61010d610108366004610c01565b610241565b60405190151581526020015b60405180910390f35b61012a610293565b6040516101199190610c6e565b61014a610145366004610c81565b610325565b6040516001600160a01b039091168152602001610119565b610175610170366004610cb6565b61034e565b005b610175610185366004610ce0565b61035d565b610175610198366004610ce0565b6103ed565b6101756101ab366004610d1d565b61040d565b6101b960065481565b604051908152602001610119565b61014a6101d5366004610c81565b610417565b6101b96101e8366004610da7565b610422565b61012a61046a565b610175610203366004610dc2565b610479565b610175610216366004610e14565b610484565b61012a610229366004610c81565b61049c565b61010d61023c366004610ef8565b610511565b60006001600160e01b031982166380ac58cd60e01b148061027257506001600160e01b03198216635b5e139f60e01b145b8061028d57506301ffc9a760e01b6001600160e01b03198316145b92915050565b6060600080546102a290610f2b565b80601f01602080910402602001604051908101604052809291908181526020018280546102ce90610f2b565b801561031b5780601f106102f05761010080835404028352916020019161031b565b820191906000526020600020905b8154815290600101906020018083116102fe57829003601f168201915b5050505050905090565b60006103308261053f565b506000828152600460205260409020546001600160a01b031661028d565b610359828233610578565b5050565b6001600160a01b03821661038c57604051633250574960e11b8152600060048201526024015b60405180910390fd5b6000610399838333610585565b9050836001600160a01b0316816001600160a01b0316146103e7576040516364283d7b60e01b81526001600160a01b0380861660048301526024820184905282166044820152606401610383565b50505050565b61040883838360405180602001604052806000815250610484565b505050565b6103e7848461067e565b600061028d8261053f565b60006001600160a01b03821661044e576040516322718ad960e21b815260006004820152602401610383565b506001600160a01b031660009081526003602052604090205490565b6060600180546102a290610f2b565b6103593383836106e3565b61048f84848461035d565b6103e73385858585610782565b60606104a78261053f565b5060006104bf60408051602081019091526000815290565b905060008151116104df576040518060200160405280600081525061050a565b806104e9846108ad565b6040516020016104fa929190610f65565b6040516020818303038152906040525b9392505050565b6001600160a01b03918216600090815260056020908152604080832093909416825291909152205460ff1690565b6000818152600260205260408120546001600160a01b03168061028d57604051637e27328960e01b815260048101849052602401610383565b6104088383836001610940565b6000828152600260205260408120546001600160a01b03908116908316156105b2576105b2818486610a46565b6001600160a01b038116156105f0576105cf600085600080610940565b6001600160a01b038116600090815260036020526040902080546000190190555b6001600160a01b0385161561061f576001600160a01b0385166000908152600360205260409020805460010190555b60008481526002602052604080822080546001600160a01b0319166001600160a01b0389811691821790925591518793918516917fddf252ad1be2c89b69c2b068fc378daa952ba7f163c4a11628f55a4df523b3ef91a4949350505050565b6001600160a01b0382166106a857604051633250574960e11b815260006004820152602401610383565b60006106b683836000610585565b90506001600160a01b03811615610408576040516339e3563760e11b815260006004820152602401610383565b6001600160a01b03821661071557604051630b61174360e31b81526001600160a01b0383166004820152602401610383565b6001600160a01b03838116600081815260056020908152604080832094871680845294825291829020805460ff191686151590811790915591519182527f17307eab39ab6107e8899845ad3d59bd9653f200f220920489ca2b5937696c31910160405180910390a3505050565b6001600160a01b0383163b156108a657604051630a85bd0160e11b81526001600160a01b0384169063150b7a02906107c4908890889087908790600401610f94565b6020604051808303816000875af19250505080156107ff575060408051601f3d908101601f191682019092526107fc91810190610fd1565b60015b610868573d80801561082d576040519150601f19603f3d011682016040523d82523d6000602084013e610832565b606091505b50805160000361086057604051633250574960e11b81526001600160a01b0385166004820152602401610383565b805160208201fd5b6001600160e01b03198116630a85bd0160e11b146108a457604051633250574960e11b81526001600160a01b0385166004820152602401610383565b505b5050505050565b606060006108ba83610aaa565b600101905060008167ffffffffffffffff8111156108da576108da610dfe565b6040519080825280601f01601f191660200182016040528015610904576020820181803683370190505b5090508181016020015b600019016f181899199a1a9b1b9c1cb0b131b232b360811b600a86061a8153600a850494508461090e57509392505050565b808061095457506001600160a01b03821615155b15610a165760006109648461053f565b90506001600160a01b038316158015906109905750826001600160a01b0316816001600160a01b031614155b80156109a357506109a18184610511565b155b156109cc5760405163a9fbf51f60e01b81526001600160a01b0384166004820152602401610383565b8115610a145783856001600160a01b0316826001600160a01b03167f8c5be1e5ebec7d5bd14f71427d1e84f3dd0314c0f7b2291e5b200ac8c7c3b92560405160405180910390a45b505b5050600090815260046020526040902080546001600160a01b0319166001600160a01b0392909216919091179055565b610a51838383610b82565b610408576001600160a01b038316610a7f57604051637e27328960e01b815260048101829052602401610383565b60405163177e802f60e01b81526001600160a01b038316600482015260248101829052604401610383565b60008072184f03e93ff9f4daa797ed6e38ed64bf6a1f0160401b8310610ae95772184f03e93ff9f4daa797ed6e38ed64bf6a1f0160401b830492506040015b6d04ee2d6d415b85acef81000000008310610b15576d04ee2d6d415b85acef8100000000830492506020015b662386f26fc100008310610b3357662386f26fc10000830492506010015b6305f5e1008310610b4b576305f5e100830492506008015b6127108310610b5f57612710830492506004015b60648310610b71576064830492506002015b600a831061028d5760010192915050565b60006001600160a01b03831615801590610be05750826001600160a01b0316846001600160a01b03161480610bbc5750610bbc8484610511565b80610be057506000828152600460205260409020546001600160a01b038481169116145b949350505050565b6001600160e01b031981168114610bfe57600080fd5b50565b600060208284031215610c1357600080fd5b813561050a81610be8565b60005b83811015610c39578181015183820152602001610c21565b50506000910152565b60008151808452610c5a816020860160208601610c1e565b601f01601f19169290920160200192915050565b60208152600061050a6020830184610c42565b600060208284031215610c9357600080fd5b5035919050565b80356001600160a01b0381168114610cb157600080fd5b919050565b60008060408385031215610cc957600080fd5b610cd283610c9a565b946020939093013593505050565b600080600060608486031215610cf557600080fd5b610cfe84610c9a565b9250610d0c60208501610c9a565b929592945050506040919091013590565b60008060008060608587031215610d3357600080fd5b610d3c85610c9a565b935060208501359250604085013567ffffffffffffffff811115610d5f57600080fd5b8501601f81018713610d7057600080fd5b803567ffffffffffffffff811115610d8757600080fd5b876020828401011115610d9957600080fd5b949793965060200194505050565b600060208284031215610db957600080fd5b61050a82610c9a565b60008060408385031215610dd557600080fd5b610dde83610c9a565b915060208301358015158114610df357600080fd5b809150509250929050565b634e487b7160e01b600052604160045260246000fd5b60008060008060808587031215610e2a57600080fd5b610e3385610c9a565b9350610e4160208601610c9a565b925060408501359150606085013567ffffffffffffffff811115610e6457600080fd5b8501601f81018713610e7557600080fd5b803567ffffffffffffffff811115610e8f57610e8f610dfe565b604051601f8201601f19908116603f0116810167ffffffffffffffff81118282101715610ebe57610ebe610dfe565b604052818152828201602001891015610ed657600080fd5b8160208401602083013760006020838301015280935050505092959194509250565b60008060408385031215610f0b57600080fd5b610f1483610c9a565b9150610f2260208401610c9a565b90509250929050565b600181811c90821680610f3f57607f821691505b602082108103610f5f57634e487b7160e01b600052602260045260246000fd5b50919050565b60008351610f77818460208801610c1e565b835190830190610f8b818360208801610c1e565b01949350505050565b6001600160a01b0385811682528416602082015260408101839052608060608201819052600090610fc790830184610c42565b9695505050505050565b600060208284031215610fe357600080fd5b815161050a81610be856fea26469706673582212206742e2dbaf2533dee1f0aa1cfa5e3023fe4ab4f9f2a1f3951d3f4dc6c11485a264736f6c634300081c0033",
  "linkReferences": {},
  "deployedLinkReferences": {}
}