{
  "_format": "hh-sol-artifact-1",
  "contractName": "FlameBornToken",
  "sourceName": "contracts/FlameBornToken.sol",
  "abi": [
    {
      "inputs": [],
      "stateMutability": "nonpayable",
      "type": "constructor"
    },
    {
      "inputs": [],
      "name": "AccessControlBadConfirmation",
      "type": "error"
    },
    {
      "inputs": [
        {
          "internalType": "address",
          "name": "account",
          "type": "address"
        },
        {
          "internalType": "bytes32",
          "name": "neededRole",
          "type": "bytes32"
        }
      ],
      "name": "AccessControlUnauthorizedAccount",
      "type": "error"
    },
    {
      "inputs": [
        {
          "internalType": "address",
          "name": "target",
          "type": "address"
        }
      ],
      "name": "AddressEmptyCode",
      "type": "error"
    },
    {
      "inputs": [],
      "name": "ECDSAInvalidSignature",
      "type": "error"
    },
    {
      "inputs": [
        {
          "internalType": "uint256",
          "name": "length",
          "type": "uint256"
        }
      ],
      "name": "ECDSAInvalidSignatureLength",
      "type": "error"
    },
    {
      "inputs": [
        {
          "internalType": "bytes32",
          "name": "s",
          "type": "bytes32"
        }
      ],
      "name": "ECDSAInvalidSignatureS",
      "type": "error"
    },
    {
      "inputs": [
        {
          "internalType": "address",
          "name": "implementation",
          "type": "address"
        }
      ],
      "name": "ERC1967InvalidImplementation",
      "type": "error"
    },
    {
      "inputs": [],
      "name": "ERC1967NonPayable",
      "type": "error"
    },
    {
      "inputs": [
        {
          "internalType": "address",
          "name": "spender",
          "type": "address"
        },
        {
          "internalType": "uint256",
          "name": "allowance",
          "type": "uint256"
        },
        {
          "internalType": "uint256",
          "name": "needed",
          "type": "uint256"
        }
      ],
      "name": "ERC20InsufficientAllowance",
      "type": "error"
    },
    {
      "inputs": [
        {
          "internalType": "address",
          "name": "sender",
          "type": "address"
        },
        {
          "internalType": "uint256",
          "name": "balance",
          "type": "uint256"
        },
        {
          "internalType": "uint256",
          "name": "needed",
          "type": "uint256"
        }
      ],
      "name": "ERC20InsufficientBalance",
      "type": "error"
    },
    {
      "inputs": [
        {
          "internalType": "address",
          "name": "approver",
          "type": "address"
        }
      ],
      "name": "ERC20InvalidApprover",
      "type": "error"
    },
    {
      "inputs": [
        {
          "internalType": "address",
          "name": "receiver",
          "type": "address"
        }
      ],
      "name": "ERC20InvalidReceiver",
      "type": "error"
    },
    {
      "inputs": [
        {
          "internalType": "address",
          "name": "sender",
          "type": "address"
        }
      ],
      "name": "ERC20InvalidSender",
      "type": "error"
    },
    {
      "inputs": [
        {
          "internalType": "address",
          "name": "spender",
          "type": "address"
        }
      ],
      "name": "ERC20InvalidSpender",
      "type": "error"
    },
    {
      "inputs": [
        {
          "internalType": "uint256",
          "name": "deadline",
          "type": "uint256"
        }
      ],
      "name": "ERC2612ExpiredSignature",
      "type": "error"
    },
    {
      "inputs": [
        {
          "internalType": "address",
          "name": "signer",
          "type": "address"
        },
        {
          "internalType": "address",
          "name": "owner",
          "type": "address"
        }
      ],
      "name": "ERC2612InvalidSigner",
      "type": "error"
    },
    {
      "inputs": [],
      "name": "EnforcedPause",
      "type": "error"
    },
    {
      "inputs": [],
      "name": "ExpectedPause",
      "type": "error"
    },
    {
      "inputs": [],
      "name": "FailedCall",
      "type": "error"
    },
    {
      "inputs": [
        {
          "internalType": "address",
          "name": "account",
          "type": "address"
        },
        {
          "internalType": "uint256",
          "name": "currentNonce",
          "type": "uint256"
        }
      ],
      "name": "InvalidAccountNonce",
      "type": "error"
    },
    {
      "inputs": [],
      "name": "InvalidInitialization",
      "type": "error"
    },
    {
      "inputs": [],
      "name": "NotInitializing",
      "type": "error"
    },
    {
      "inputs": [
        {
          "internalType": "address",
          "name": "owner",
          "type": "address"
        }
      ],
      "name": "OwnableInvalidOwner",
      "type": "error"
    },
    {
      "inputs": [
        {
          "internalType": "address",
          "name": "account",
          "type": "address"
        }
      ],
      "name": "OwnableUnauthorizedAccount",
      "type": "error"
    },
    {
      "inputs": [],
      "name": "UUPSUnauthorizedCallContext",
      "type": "error"
    },
    {
      "inputs": [
        {
          "internalType": "bytes32",
          "name": "slot",
          "type": "bytes32"
        }
      ],
      "name": "UUPSUnsupportedProxiableUUID",
      "type": "error"
    },
    {
      "anonymous": false,
      "inputs": [
        {
          "indexed": true,
          "internalType": "address",
          "name": "owner",
          "type": "address"
        },
        {
          "indexed": true,
          "internalType": "address",
          "name": "spender",
          "type": "address"
        },
        {
          "indexed": false,
          "internalType": "uint256",
          "name": "value",
          "type": "uint256"
        }
      ],
      "name": "Approval",
      "type": "event"
    },
    {
      "anonymous": false,
      "inputs": [],
      "name": "EIP712DomainChanged",
      "type": "event"
    },
    {
      "anonymous": false,
      "inputs": [
        {
          "indexed": false,
          "internalType": "uint64",
          "name": "version",
          "type": "uint64"
        }
      ],
      "name": "Initialized",
      "type": "event"
    },
    {
      "anonymous": false,
      "inputs": [
        {
          "indexed": true,
          "internalType": "address",
          "name": "previousOwner",
          "type": "address"
        },
        {
          "indexed": true,
          "internalType": "address",
          "name": "newOwner",
          "type": "address"
        }
      ],
      "name": "OwnershipTransferred",
      "type": "event"
    },
    {
      "anonymous": false,
      "inputs": [
        {
          "indexed": false,
          "internalType": "address",
          "name": "account",
          "type": "address"
        }
      ],
      "name": "Paused",
      "type": "event"
    },
    {
      "anonymous": false,
      "inputs": [
        {
          "indexed": true,
          "internalType": "bytes32",
          "name": "role",
          "type": "bytes32"
        },
        {
          "indexed": true,
          "internalType": "bytes32",
          "name": "previousAdminRole",
          "type": "bytes32"
        },
        {
          "indexed": true,
          "internalType": "bytes32",
          "name": "newAdminRole",
          "type": "bytes32"
        }
      ],
      "name": "RoleAdminChanged",
      "type": "event"
    },
    {
      "anonymous": false,
      "inputs": [
        {
          "indexed": true,
          "internalType": "bytes32",
          "name": "role",
          "type": "bytes32"
        },
        {
          "indexed": true,
          "internalType": "address",
          "name": "account",
          "type": "address"
        },
        {
          "indexed": true,
          "internalType": "address",
          "name": "sender",
          "type": "address"
        }
      ],
      "name": "RoleGranted",
      "type": "event"
    },
    {
      "anonymous": false,
      "inputs": [
        {
          "indexed": true,
          "internalType": "bytes32",
          "name": "role",
          "type": "bytes32"
        },
        {
          "indexed": true,
          "internalType": "address",
          "name": "account",
          "type": "address"
        },
        {
          "indexed": true,
          "internalType": "address",
          "name": "sender",
          "type": "address"
        }
      ],
      "name": "RoleRevoked",
      "type": "event"
    },
    {
      "anonymous": false,
      "inputs": [
        {
          "indexed": true,
          "internalType": "address",
          "name": "from",
          "type": "address"
        },
        {
          "indexed": true,
          "internalType": "address",
          "name": "to",
          "type": "address"
        },
        {
          "indexed": false,
          "internalType": "uint256",
          "name": "value",
          "type": "uint256"
        }
      ],
      "name": "Transfer",
      "type": "event"
    },
    {
      "anonymous": false,
      "inputs": [
        {
          "indexed": false,
          "internalType": "address",
          "name": "account",
          "type": "address"
        }
      ],
      "name": "Unpaused",
      "type": "event"
    },
    {
      "anonymous": false,
      "inputs": [
        {
          "indexed": true,
          "internalType": "address",
          "name": "implementation",
          "type": "address"
        }
      ],
      "name": "Upgraded",
      "type": "event"
    },
    {
      "inputs": [],
      "name": "DEFAULT_ADMIN_ROLE",
      "outputs": [
        {
          "internalType": "bytes32",
          "name": "",
          "type": "bytes32"
        }
      ],
      "stateMutability": "view",
      "type": "function"
    },
    {
      "inputs": [],
      "name": "DOMAIN_SEPARATOR",
      "outputs": [
        {
          "internalType": "bytes32",
          "name": "",
          "type": "bytes32"
        }
      ],
      "stateMutability": "view",
      "type": "function"
    },
    {
      "inputs": [],
      "name": "MINTER_ROLE",
      "outputs": [
        {
          "internalType": "bytes32",
          "name": "",
          "type": "bytes32"
        }
      ],
      "stateMutability": "view",
      "type": "function"
    },
    {
      "inputs": [],
      "name": "UPGRADE_INTERFACE_VERSION",
      "outputs": [
        {
          "internalType": "string",
          "name": "",
          "type": "string"
        }
      ],
      "stateMutability": "view",
      "type": "function"
    },
    {
      "inputs": [
        {
          "internalType": "address",
          "name": "owner",
          "type": "address"
        },
        {
          "internalType": "address",
          "name": "spender",
          "type": "address"
        }
      ],
      "name": "allowance",
      "outputs": [
        {
          "internalType": "uint256",
          "name": "",
          "type": "uint256"
        }
      ],
      "stateMutability": "view",
      "type": "function"
    },
    {
      "inputs": [
        {
          "internalType": "address",
          "name": "spender",
          "type": "address"
        },
        {
          "internalType": "uint256",
          "name": "value",
          "type": "uint256"
        }
      ],
      "name": "approve",
      "outputs": [
        {
          "internalType": "bool",
          "name": "",
          "type": "bool"
        }
      ],
      "stateMutability": "nonpayable",
      "type": "function"
    },
    {
      "inputs": [
        {
          "internalType": "address",
          "name": "account",
          "type": "address"
        }
      ],
      "name": "balanceOf",
      "outputs": [
        {
          "internalType": "uint256",
          "name": "",
          "type": "uint256"
        }
      ],
      "stateMutability": "view",
      "type": "function"
    },
    {
      "inputs": [
        {
          "internalType": "uint256",
          "name": "value",
          "type": "uint256"
        }
      ],
      "name": "burn",
      "outputs": [],
      "stateMutability": "nonpayable",
      "type": "function"
    },
    {
      "inputs": [
        {
          "internalType": "address",
          "name": "account",
          "type": "address"
        },
        {
          "internalType": "uint256",
          "name": "value",
          "type": "uint256"
        }
      ],
      "name": "burnFrom",
      "outputs": [],
      "stateMutability": "nonpayable",
      "type": "function"
    },
    {
      "inputs": [],
      "name": "decimals",
      "outputs": [
        {
          "internalType": "uint8",
          "name": "",
          "type": "uint8"
        }
      ],
      "stateMutability": "view",
      "type": "function"
    },
    {
      "inputs": [],
      "name": "eip712Domain",
      "outputs": [
        {
          "internalType": "bytes1",
          "name": "fields",
          "type": "bytes1"
        },
        {
          "internalType": "string",
          "name": "name",
          "type": "string"
        },
        {
          "internalType": "string",
          "name": "version",
          "type": "string"
        },
        {
          "internalType": "uint256",
          "name": "chainId",
          "type": "uint256"
        },
        {
          "internalType": "address",
          "name": "verifyingContract",
          "type": "address"
        },
        {
          "internalType": "bytes32",
          "name": "salt",
          "type": "bytes32"
        },
        {
          "internalType": "uint256[]",
          "name": "extensions",
          "type": "uint256[]"
        }
      ],
      "stateMutability": "view",
      "type": "function"
    },
    {
      "inputs": [
        {
          "internalType": "bytes32",
          "name": "role",
          "type": "bytes32"
        }
      ],
      "name": "getRoleAdmin",
      "outputs": [
        {
          "internalType": "bytes32",
          "name": "",
          "type": "bytes32"
        }
      ],
      "stateMutability": "view",
      "type": "function"
    },
    {
      "inputs": [
        {
          "internalType": "bytes32",
          "name": "role",
          "type": "bytes32"
        },
        {
          "internalType": "address",
          "name": "account",
          "type": "address"
        }
      ],
      "name": "grantRole",
      "outputs": [],
      "stateMutability": "nonpayable",
      "type": "function"
    },
    {
      "inputs": [
        {
          "internalType": "bytes32",
          "name": "role",
          "type": "bytes32"
        },
        {
          "internalType": "address",
          "name": "account",
          "type": "address"
        }
      ],
      "name": "hasRole",
      "outputs": [
        {
          "internalType": "bool",
          "name": "",
          "type": "bool"
        }
      ],
      "stateMutability": "view",
      "type": "function"
    },
    {
      "inputs": [
        {
          "internalType": "address",
          "name": "initialOwner",
          "type": "address"
        }
      ],
      "name": "initialize",
      "outputs": [],
      "stateMutability": "nonpayable",
      "type": "function"
    },
    {
      "inputs": [
        {
          "internalType": "address",
          "name": "to",
          "type": "address"
        },
        {
          "internalType": "uint256",
          "name": "amount",
          "type": "uint256"
        }
      ],
      "name": "mint",
      "outputs": [],
      "stateMutability": "nonpayable",
      "type": "function"
    },
    {
      "inputs": [],
      "name": "name",
      "outputs": [
        {
          "internalType": "string",
          "name": "",
          "type": "string"
        }
      ],
      "stateMutability": "view",
      "type": "function"
    },
    {
      "inputs": [
        {
          "internalType": "address",
          "name": "owner",
          "type": "address"
        }
      ],
      "name": "nonces",
      "outputs": [
        {
          "internalType": "uint256",
          "name": "",
          "type": "uint256"
        }
      ],
      "stateMutability": "view",
      "type": "function"
    },
    {
      "inputs": [],
      "name": "owner",
      "outputs": [
        {
          "internalType": "address",
          "name": "",
          "type": "address"
        }
      ],
      "stateMutability": "view",
      "type": "function"
    },
    {
      "inputs": [],
      "name": "pause",
      "outputs": [],
      "stateMutability": "nonpayable",
      "type": "function"
    },
    {
      "inputs": [],
      "name": "paused",
      "outputs": [
        {
          "internalType": "bool",
          "name": "",
          "type": "bool"
        }
      ],
      "stateMutability": "view",
      "type": "function"
    },
    {
      "inputs": [
        {
          "internalType": "address",
          "name": "owner",
          "type": "address"
        },
        {
          "internalType": "address",
          "name": "spender",
          "type": "address"
        },
        {
          "internalType": "uint256",
          "name": "value",
          "type": "uint256"
        },
        {
          "internalType": "uint256",
          "name": "deadline",
          "type": "uint256"
        },
        {
          "internalType": "uint8",
          "name": "v",
          "type": "uint8"
        },
        {
          "internalType": "bytes32",
          "name": "r",
          "type": "bytes32"
        },
        {
          "internalType": "bytes32",
          "name": "s",
          "type": "bytes32"
        }
      ],
      "name": "permit",
      "outputs": [],
      "stateMutability": "nonpayable",
      "type": "function"
    },
    {
      "inputs": [],
      "name": "proxiableUUID",
      "outputs": [
        {
          "internalType": "bytes32",
          "name": "",
          "type": "bytes32"
        }
      ],
      "stateMutability": "view",
      "type": "function"
    },
    {
      "inputs": [],
      "name": "renounceOwnership",
      "outputs": [],
      "stateMutability": "nonpayable",
      "type": "function"
    },
    {
      "inputs": [
        {
          "internalType": "bytes32",
          "name": "role",
          "type": "bytes32"
        },
        {
          "internalType": "address",
          "name": "callerConfirmation",
          "type": "address"
        }
      ],
      "name": "renounceRole",
      "outputs": [],
      "stateMutability": "nonpayable",
      "type": "function"
    },
    {
      "inputs": [
        {
          "internalType": "bytes32",
          "name": "role",
          "type": "bytes32"
        },
        {
          "internalType": "address",
          "name": "account",
          "type": "address"
        }
      ],
      "name": "revokeRole",
      "outputs": [],
      "stateMutability": "nonpayable",
      "type": "function"
    },
    {
      "inputs": [
        {
          "internalType": "bytes4",
          "name": "interfaceId",
          "type": "bytes4"
        }
      ],
      "name": "supportsInterface",
      "outputs": [
        {
          "internalType": "bool",
          "name": "",
          "type": "bool"
        }
      ],
      "stateMutability": "view",
      "type": "function"
    },
    {
      "inputs": [],
      "name": "symbol",
      "outputs": [
        {
          "internalType": "string",
          "name": "",
          "type": "string"
        }
      ],
      "stateMutability": "view",
      "type": "function"
    },
    {
      "inputs": [],
      "name": "totalSupply",
      "outputs": [
        {
          "internalType": "uint256",
          "name": "",
          "type": "uint256"
        }
      ],
      "stateMutability": "view",
      "type": "function"
    },
    {
      "inputs": [
        {
          "internalType": "address",
          "name": "to",
          "type": "address"
        },
        {
          "internalType": "uint256",
          "name": "value",
          "type": "uint256"
        }
      ],
      "name": "transfer",
      "outputs": [
        {
          "internalType": "bool",
          "name": "",
          "type": "bool"
        }
      ],
      "stateMutability": "nonpayable",
      "type": "function"
    },
    {
      "inputs": [
        {
          "internalType": "address",
          "name": "from",
          "type": "address"
        },
        {
          "internalType": "address",
          "name": "to",
          "type": "address"
        },
        {
          "internalType": "uint256",
          "name": "value",
          "type": "uint256"
        }
      ],
      "name": "transferFrom",
      "outputs": [
        {
          "internalType": "bool",
          "name": "",
          "type": "bool"
        }
      ],
      "stateMutability": "nonpayable",
      "type": "function"
    },
    {
      "inputs": [
        {
          "internalType": "address",
          "name": "newOwner",
          "type": "address"
        }
      ],
      "name": "transferOwnership",
      "outputs": [],
      "stateMutability": "nonpayable",
      "type": "function"
    },
    {
      "inputs": [],
      "name": "unpause",
      "outputs": [],
      "stateMutability": "nonpayable",
      "type": "function"
    },
    {
      "inputs": [
        {
          "internalType": "address",
          "name": "newImplementation",
          "type": "address"
        },
        {
          "internalType": "bytes",
          "name": "data",
          "type": "bytes"
        }
      ],
      "name": "upgradeToAndCall",
      "outputs": [],
      "stateMutability": "payable",
      "type": "function"
    }
  ],
  "bytecode": "0x60a06040523060805234801561001457600080fd5b5061001d610022565b6100d4565b7ff0c57e16840df040f15088dc2f81fe391c3923bec73e23a9662efc9c229c6a00805468010000000000000000900460ff16156100725760405163f92ee8a960e01b815260040160405180910390fd5b80546001600160401b03908116146100d15780546001600160401b0319166001600160401b0390811782556040519081527fc7f505b2f371ae2175ee4913f4499e1f2633a7b5936321eed1cdaeb6115181d29060200160405180910390a15b50565b6080516124ee6100fd600039600081816111c1015281816111ea015261132b01526124ee6000f3fe6080604052600436106101f95760003560e01c8063715018a61161010d578063a217fddf116100a0578063d505accf1161006f578063d505accf146105a2578063d5391393146105c2578063d547741f146105f6578063dd62ed3e14610616578063f2fde38b1461063657600080fd5b8063a217fddf1461051c578063a9059cbb14610531578063ad3cb1cc14610551578063c4d66de81461058257600080fd5b806384b0196e116100dc57806384b0196e146104925780638da5cb5b146104ba57806391d14854146104e757806395d89b411461050757600080fd5b8063715018a61461042857806379cc67901461043d5780637ecebe001461045d5780638456cb591461047d57600080fd5b80633644e5151161019057806342966c681161015f57806342966c681461039b5780634f1ef286146103bb57806352d1902d146103ce5780635c975abb146103e357806370a082311461040857600080fd5b80633644e5151461033157806336568abe146103465780633f4ba83a1461036657806340c10f191461037b57600080fd5b806323b872dd116101cc57806323b872dd146102b3578063248a9ca3146102d35780632f2ff15d146102f3578063313ce5671461031557600080fd5b806301ffc9a7146101fe57806306fdde0314610233578063095ea7b31461025557806318160ddd14610275575b600080fd5b34801561020a57600080fd5b5061021e610219366004611dd2565b610656565b60405190151581526020015b60405180910390f35b34801561023f57600080fd5b5061024861068d565b60405161022a9190611e4c565b34801561026157600080fd5b5061021e610270366004611e7b565b610736565b34801561028157600080fd5b507f52c63247e1f47db19d5ce0460030c497f067ca4cebf71ba98eeadabe20bace02545b60405190815260200161022a565b3480156102bf57600080fd5b5061021e6102ce366004611ea5565b61074e565b3480156102df57600080fd5b506102a56102ee366004611ee2565b610774565b3480156102ff57600080fd5b5061031361030e366004611efb565b610796565b005b34801561032157600080fd5b506040516012815260200161022a565b34801561033d57600080fd5b506102a56107b8565b34801561035257600080fd5b50610313610361366004611efb565b6107c7565b34801561037257600080fd5b506103136107ff565b34801561038757600080fd5b50610313610396366004611e7b565b610811565b3480156103a757600080fd5b506103136103b6366004611ee2565b6108b4565b6103136103c9366004611f3d565b6108c1565b3480156103da57600080fd5b506102a56108dc565b3480156103ef57600080fd5b506000805160206124998339815191525460ff1661021e565b34801561041457600080fd5b506102a5610423366004612007565b6108f9565b34801561043457600080fd5b5061031361092c565b34801561044957600080fd5b50610313610458366004611e7b565b61093e565b34801561046957600080fd5b506102a5610478366004612007565b610953565b34801561048957600080fd5b5061031361095e565b34801561049e57600080fd5b506104a761096e565b60405161022a9796959493929190612022565b3480156104c657600080fd5b506104cf610a1a565b6040516001600160a01b03909116815260200161022a565b3480156104f357600080fd5b5061021e610502366004611efb565b610a48565b34801561051357600080fd5b50610248610a80565b34801561052857600080fd5b506102a5600081565b34801561053d57600080fd5b5061021e61054c366004611e7b565b610abf565b34801561055d57600080fd5b50610248604051806040016040528060058152602001640352e302e360dc1b81525081565b34801561058e57600080fd5b5061031361059d366004612007565b610acd565b3480156105ae57600080fd5b506103136105bd3660046120ba565b610cbc565b3480156105ce57600080fd5b506102a57f9f2df0fed2c77648de5860a4cc508cd0818c85b8b8a1ab4ceeef8d981c8956a681565b34801561060257600080fd5b50610313610611366004611efb565b610e15565b34801561062257600080fd5b506102a561063136600461212d565b610e31565b34801561064257600080fd5b50610313610651366004612007565b610e7b565b60006001600160e01b03198216637965db0b60e01b148061068757506301ffc9a760e01b6001600160e01b03198316145b92915050565b606060006000805160206124198339815191525b90508060030180546106b290612157565b80601f01602080910402602001604051908101604052809291908181526020018280546106de90612157565b801561072b5780601f106107005761010080835404028352916020019161072b565b820191906000526020600020905b81548152906001019060200180831161070e57829003601f168201915b505050505091505090565b600033610744818585610eb6565b5060019392505050565b60003361075c858285610ec3565b610767858585610f24565b60019150505b9392505050565b6000908152600080516020612479833981519152602052604090206001015490565b61079f82610774565b6107a881610f83565b6107b28383610f8d565b50505050565b60006107c2611032565b905090565b6001600160a01b03811633146107f05760405163334bd91960e11b815260040160405180910390fd5b6107fa828261103c565b505050565b6108076110b8565b61080f6110ea565b565b61083b7f9f2df0fed2c77648de5860a4cc508cd0818c85b8b8a1ab4ceeef8d981c8956a633610a48565b8061085557503361084a610a1a565b6001600160a01b0316145b6108a65760405162461bcd60e51b815260206004820181905260248201527f43616c6c6572206973206e6f7420617574686f72697a656420746f206d696e7460448201526064015b60405180910390fd5b6108b0828261114a565b5050565b6108be3382611180565b50565b6108c96111b6565b6108d28261125b565b6108b08282611263565b60006108e6611320565b5060008051602061245983398151915290565b6000806000805160206124198339815191525b6001600160a01b0390931660009081526020939093525050604090205490565b6109346110b8565b61080f6000611369565b610949823383610ec3565b6108b08282611180565b6000610687826113da565b6109666110b8565b61080f611403565b60006060808280808381600080516020612439833981519152805490915015801561099b57506001810154155b6109df5760405162461bcd60e51b81526020600482015260156024820152741152540dcc4c8e88155b9a5b9a5d1a585b1a5e9959605a1b604482015260640161089d565b6109e761144c565b6109ef61148b565b60408051600080825260208201909252600f60f81b9c939b5091995046985030975095509350915050565b7f9016d09d72d40fdae2fd8ceac6b6234c7706214fd39c1cd1e609a0528c199300546001600160a01b031690565b6000918252600080516020612479833981519152602090815260408084206001600160a01b0393909316845291905290205460ff1690565b7f52c63247e1f47db19d5ce0460030c497f067ca4cebf71ba98eeadabe20bace048054606091600080516020612419833981519152916106b290612157565b600033610744818585610f24565b6000610ad76114a3565b805490915060ff600160401b820416159067ffffffffffffffff16600081158015610aff5750825b905060008267ffffffffffffffff166001148015610b1c5750303b155b905081158015610b2a575080155b15610b485760405163f92ee8a960e01b815260040160405180910390fd5b845467ffffffffffffffff191660011785558315610b7257845460ff60401b1916600160401b1785555b610bbd6040518060400160405280600e81526020016d233630b6b2a137b9372a37b5b2b760911b8152506040518060400160405280600381526020016223262160e91b8152506114cc565b610bc56114de565b610bcd6114de565b610bd6866114e6565b610bde6114de565b610c0d6040518060400160405280600e81526020016d233630b6b2a137b9372a37b5b2b760911b8152506114f7565b610c156114de565b610c20600087610f8d565b50610c4b7f9f2df0fed2c77648de5860a4cc508cd0818c85b8b8a1ab4ceeef8d981c8956a687610f8d565b50610c6e86610c5c6012600a61228e565b610c6990620f424061229d565b61114a565b8315610cb457845460ff60401b19168555604051600181527fc7f505b2f371ae2175ee4913f4499e1f2633a7b5936321eed1cdaeb6115181d29060200160405180910390a15b505050505050565b83421115610ce05760405163313c898160e11b81526004810185905260240161089d565b60007f6e71edae12b1b97f4d1f60370fef10105fa2faae0126114a169c64845d6126c9888888610d4c8c6001600160a01b031660009081527f5ab42ced628888259c08ac98db1eb0cf702fc1501344311d8b100cd1bfe4bb006020526040902080546001810190915590565b6040805160208101969096526001600160a01b0394851690860152929091166060840152608083015260a082015260c0810186905260e0016040516020818303038152906040528051906020012090506000610da782611522565b90506000610db78287878761154f565b9050896001600160a01b0316816001600160a01b031614610dfe576040516325c0072360e11b81526001600160a01b0380831660048301528b16602482015260440161089d565b610e098a8a8a610eb6565b50505050505050505050565b610e1e82610774565b610e2781610f83565b6107b2838361103c565b6001600160a01b0391821660009081527f52c63247e1f47db19d5ce0460030c497f067ca4cebf71ba98eeadabe20bace016020908152604080832093909416825291909152205490565b610e836110b8565b6001600160a01b038116610ead57604051631e4fbdf760e01b81526000600482015260240161089d565b6108be81611369565b6107fa838383600161157d565b6000610ecf8484610e31565b90506000198110156107b25781811015610f1557604051637dc7a0d960e11b81526001600160a01b0384166004820152602481018290526044810183905260640161089d565b6107b28484848403600061157d565b6001600160a01b038316610f4e57604051634b637e8f60e11b81526000600482015260240161089d565b6001600160a01b038216610f785760405163ec442f0560e01b81526000600482015260240161089d565b6107fa838383611665565b6108be8133611670565b6000600080516020612479833981519152610fa88484610a48565b611028576000848152602082815260408083206001600160a01b03871684529091529020805460ff19166001179055610fde3390565b6001600160a01b0316836001600160a01b0316857f2f8788117e7eff1d82e926ec794901d17c78024a50270940304540a733656f0d60405160405180910390a46001915050610687565b6000915050610687565b60006107c26116a9565b60006000805160206124798339815191526110578484610a48565b15611028576000848152602082815260408083206001600160a01b0387168085529252808320805460ff1916905551339287917ff6391f5c32d9c69d2a47ea670b442974b53935d1edc7fd64eb21e047a839171b9190a46001915050610687565b336110c1610a1a565b6001600160a01b03161461080f5760405163118cdaa760e01b815233600482015260240161089d565b6110f261171d565b600080516020612499833981519152805460ff191681557f5db9ee0a495bf2e6ff9c91a7834c1ba4fdd244a5e8aa4e537bd38aeae4b073aa335b6040516001600160a01b03909116815260200160405180910390a150565b6001600160a01b0382166111745760405163ec442f0560e01b81526000600482015260240161089d565b6108b060008383611665565b6001600160a01b0382166111aa57604051634b637e8f60e11b81526000600482015260240161089d565b6108b082600083611665565b306001600160a01b037f000000000000000000000000000000000000000000000000000000000000000016148061123d57507f00000000000000000000000000000000000000000000000000000000000000006001600160a01b0316611231600080516020612459833981519152546001600160a01b031690565b6001600160a01b031614155b1561080f5760405163703e46dd60e11b815260040160405180910390fd5b6108be6110b8565b816001600160a01b03166352d1902d6040518163ffffffff1660e01b8152600401602060405180830381865afa9250505080156112bd575060408051601f3d908101601f191682019092526112ba918101906122b4565b60015b6112e557604051634c9c8ce360e01b81526001600160a01b038316600482015260240161089d565b600080516020612459833981519152811461131657604051632a87526960e21b81526004810182905260240161089d565b6107fa838361174d565b306001600160a01b037f0000000000000000000000000000000000000000000000000000000000000000161461080f5760405163703e46dd60e11b815260040160405180910390fd5b7f9016d09d72d40fdae2fd8ceac6b6234c7706214fd39c1cd1e609a0528c19930080546001600160a01b031981166001600160a01b03848116918217845560405192169182907f8be0079c531659141344cd1fd0a4f28419497f9722a3daafe3b4186f6b6457e090600090a3505050565b6000807f5ab42ced628888259c08ac98db1eb0cf702fc1501344311d8b100cd1bfe4bb0061090c565b61140b6117a3565b600080516020612499833981519152805460ff191660011781557f62e78cea01bee320cd4e420270b5ea74000d11b0c9f74754ebdbfc544b05a2583361112c565b7fa16a46d94261c7517cc8ff89f61c0ce93598e3c849801011dee649a6a557d1028054606091600080516020612439833981519152916106b290612157565b606060006000805160206124398339815191526106a1565b6000807ff0c57e16840df040f15088dc2f81fe391c3923bec73e23a9662efc9c229c6a00610687565b6114d46117d4565b6108b082826117f9565b61080f6117d4565b6114ee6117d4565b6108be8161184a565b6114ff6117d4565b6108be81604051806040016040528060018152602001603160f81b815250611852565b600061068761152f611032565b8360405161190160f01b8152600281019290925260228201526042902090565b600080600080611561888888886118b3565b9250925092506115718282611982565b50909695505050505050565b6000805160206124198339815191526001600160a01b0385166115b65760405163e602df0560e01b81526000600482015260240161089d565b6001600160a01b0384166115e057604051634a1406b160e11b81526000600482015260240161089d565b6001600160a01b0380861660009081526001830160209081526040808320938816835292905220839055811561165e57836001600160a01b0316856001600160a01b03167f8c5be1e5ebec7d5bd14f71427d1e84f3dd0314c0f7b2291e5b200ac8c7c3b9258560405161165591815260200190565b60405180910390a35b5050505050565b6107fa838383611a3b565b61167a8282610a48565b6108b05760405163e2517d3f60e01b81526001600160a01b03821660048201526024810183905260440161089d565b60007f8b73c3c69bb8fe3d512ecc4cf759cc79239f7b179b0ffacaa9a75d522b39400f6116d4611a4e565b6116dc611ab8565b60408051602081019490945283019190915260608201524660808201523060a082015260c00160405160208183030381529060405280519060200120905090565b6000805160206124998339815191525460ff1661080f57604051638dfc202b60e01b815260040160405180910390fd5b61175682611afc565b6040516001600160a01b038316907fbc7cd75a20ee27fd9adebab32041f755214dbc6bffa90cc0225b39da2e5c2d3b90600090a280511561179b576107fa8282611b61565b6108b0611bd7565b6000805160206124998339815191525460ff161561080f5760405163d93c066560e01b815260040160405180910390fd5b6117dc611bf6565b61080f57604051631afcd79f60e31b815260040160405180910390fd5b6118016117d4565b6000805160206124198339815191527f52c63247e1f47db19d5ce0460030c497f067ca4cebf71ba98eeadabe20bace0361183b8482612314565b50600481016107b28382612314565b610e836117d4565b61185a6117d4565b6000805160206124398339815191527fa16a46d94261c7517cc8ff89f61c0ce93598e3c849801011dee649a6a557d1026118948482612314565b50600381016118a38382612314565b5060008082556001909101555050565b600080807f7fffffffffffffffffffffffffffffff5d576e7357a4501ddfe92f46681b20a08411156118ee5750600091506003905082611978565b604080516000808252602082018084528a905260ff891692820192909252606081018790526080810186905260019060a0016020604051602081039080840390855afa158015611942573d6000803e3d6000fd5b5050604051601f1901519150506001600160a01b03811661196e57506000925060019150829050611978565b9250600091508190505b9450945094915050565b6000826003811115611996576119966123d3565b0361199f575050565b60018260038111156119b3576119b36123d3565b036119d15760405163f645eedf60e01b815260040160405180910390fd5b60028260038111156119e5576119e56123d3565b03611a065760405163fce698f760e01b81526004810182905260240161089d565b6003826003811115611a1a57611a1a6123d3565b036108b0576040516335e2f38360e21b81526004810182905260240161089d565b611a436117a3565b6107fa838383611c10565b600060008051602061243983398151915281611a6861144c565b805190915015611a8057805160209091012092915050565b81548015611a8f579392505050565b7fc5d2460186f7233c927e7db2dcc703c0e500b653ca82273b7bfad8045d85a470935050505090565b600060008051602061243983398151915281611ad261148b565b805190915015611aea57805160209091012092915050565b60018201548015611a8f579392505050565b806001600160a01b03163b600003611b3257604051634c9c8ce360e01b81526001600160a01b038216600482015260240161089d565b60008051602061245983398151915280546001600160a01b0319166001600160a01b0392909216919091179055565b6060600080846001600160a01b031684604051611b7e91906123e9565b600060405180830381855af49150503d8060008114611bb9576040519150601f19603f3d011682016040523d82523d6000602084013e611bbe565b606091505b5091509150611bce858383611d4e565b95945050505050565b341561080f5760405163b398979f60e01b815260040160405180910390fd5b6000611c006114a3565b54600160401b900460ff16919050565b6000805160206124198339815191526001600160a01b038416611c4c5781816002016000828254611c419190612405565b90915550611cbe9050565b6001600160a01b03841660009081526020829052604090205482811015611c9f5760405163391434e360e21b81526001600160a01b0386166004820152602481018290526044810184905260640161089d565b6001600160a01b03851660009081526020839052604090209083900390555b6001600160a01b038316611cdc576002810180548390039055611cfb565b6001600160a01b03831660009081526020829052604090208054830190555b826001600160a01b0316846001600160a01b03167fddf252ad1be2c89b69c2b068fc378daa952ba7f163c4a11628f55a4df523b3ef84604051611d4091815260200190565b60405180910390a350505050565b606082611d6357611d5e82611daa565b61076d565b8151158015611d7a57506001600160a01b0384163b155b15611da357604051639996b31560e01b81526001600160a01b038516600482015260240161089d565b508061076d565b805115611db957805160208201fd5b60405163d6bda27560e01b815260040160405180910390fd5b600060208284031215611de457600080fd5b81356001600160e01b03198116811461076d57600080fd5b60005b83811015611e17578181015183820152602001611dff565b50506000910152565b60008151808452611e38816020860160208601611dfc565b601f01601f19169290920160200192915050565b60208152600061076d6020830184611e20565b80356001600160a01b0381168114611e7657600080fd5b919050565b60008060408385031215611e8e57600080fd5b611e9783611e5f565b946020939093013593505050565b600080600060608486031215611eba57600080fd5b611ec384611e5f565b9250611ed160208501611e5f565b929592945050506040919091013590565b600060208284031215611ef457600080fd5b5035919050565b60008060408385031215611f0e57600080fd5b82359150611f1e60208401611e5f565b90509250929050565b634e487b7160e01b600052604160045260246000fd5b60008060408385031215611f5057600080fd5b611f5983611e5f565b9150602083013567ffffffffffffffff811115611f7557600080fd5b8301601f81018513611f8657600080fd5b803567ffffffffffffffff811115611fa057611fa0611f27565b604051601f8201601f19908116603f0116810167ffffffffffffffff81118282101715611fcf57611fcf611f27565b604052818152828201602001871015611fe757600080fd5b816020840160208301376000602083830101528093505050509250929050565b60006020828403121561201957600080fd5b61076d82611e5f565b60ff60f81b8816815260e06020820152600061204160e0830189611e20565b82810360408401526120538189611e20565b606084018890526001600160a01b038716608085015260a0840186905283810360c08501528451808252602080870193509091019060005b818110156120a957835183526020938401939092019160010161208b565b50909b9a5050505050505050505050565b600080600080600080600060e0888a0312156120d557600080fd5b6120de88611e5f565b96506120ec60208901611e5f565b95506040880135945060608801359350608088013560ff8116811461211057600080fd5b9699959850939692959460a0840135945060c09093013592915050565b6000806040838503121561214057600080fd5b61214983611e5f565b9150611f1e60208401611e5f565b600181811c9082168061216b57607f821691505b60208210810361218b57634e487b7160e01b600052602260045260246000fd5b50919050565b634e487b7160e01b600052601160045260246000fd5b6001815b60018411156121e2578085048111156121c6576121c6612191565b60018416156121d457908102905b60019390931c9280026121ab565b935093915050565b6000826121f957506001610687565b8161220657506000610687565b816001811461221c576002811461222657612242565b6001915050610687565b60ff84111561223757612237612191565b50506001821b610687565b5060208310610133831016604e8410600b8410161715612265575081810a610687565b61227260001984846121a7565b806000190482111561228657612286612191565b029392505050565b600061076d60ff8416836121ea565b808202811582820484141761068757610687612191565b6000602082840312156122c657600080fd5b5051919050565b601f8211156107fa57806000526020600020601f840160051c810160208510156122f45750805b601f840160051c820191505b8181101561165e5760008155600101612300565b815167ffffffffffffffff81111561232e5761232e611f27565b6123428161233c8454612157565b846122cd565b6020601f821160018114612376576000831561235e5750848201515b600019600385901b1c1916600184901b17845561165e565b600084815260208120601f198516915b828110156123a65787850151825560209485019460019092019101612386565b50848210156123c45786840151600019600387901b60f8161c191681555b50505050600190811b01905550565b634e487b7160e01b600052602160045260246000fd5b600082516123fb818460208701611dfc565b9190910192915050565b808201808211156106875761068761219156fe52c63247e1f47db19d5ce0460030c497f067ca4cebf71ba98eeadabe20bace00a16a46d94261c7517cc8ff89f61c0ce93598e3c849801011dee649a6a557d100360894a13ba1a3210667c828492db98dca3e2076cc3735a920a3ca505d382bbc02dd7bc7dec4dceedda775e58dd541e08a116c6c53815c0bd028192f7b626800cd5ed15c6e187e77e9aee88184c21f4f2182ab5827cb3b7e07fbedcd63f03300a26469706673582212208a647b9ae4e4e0429f4a5f1b8fff9585748712386ad9bf63f3dbc0cc6ac1875764736f6c634300081c0033",
  "linkReferences": {},
  "deployedLinkReferences": {}
}