{
  "_format": "hh-sol-artifact-1",
  "contractName": "FlameBornToken",
  "sourceName": "contracts/FlameBornToken.sol",
  "abi": [
    {
      "inputs": [],
      "stateMutability": "nonpayable",
      "type": "constructor"
    },
    {
      "inputs": [
        {
          "internalType": "address",
          "name": "target",
          "type": "address"
        }
      ],
      "name": "AddressEmptyCode",
      "type": "error"
    },
    {
      "inputs": [],
      "name": "ECDSAInvalidSignature",
      "type": "error"
    },
    {
      "inputs": [
        {
          "internalType": "uint256",
          "name": "length",
          "type": "uint256"
        }
      ],
      "name": "ECDSAInvalidSignatureLength",
      "type": "error"
    },
    {
      "inputs": [
        {
          "internalType": "bytes32",
          "name": "s",
          "type": "bytes32"
        }
      ],
      "name": "ECDSAInvalidSignatureS",
      "type": "error"
    },
    {
      "inputs": [
        {
          "internalType": "address",
          "name": "implementation",
          "type": "address"
        }
      ],
      "name": "ERC1967InvalidImplementation",
      "type": "error"
    },
    {
      "inputs": [],
      "name": "ERC1967NonPayable",
      "type": "error"
    },
    {
      "inputs": [
        {
          "internalType": "address",
          "name": "spender",
          "type": "address"
        },
        {
          "internalType": "uint256",
          "name": "allowance",
          "type": "uint256"
        },
        {
          "internalType": "uint256",
          "name": "needed",
          "type": "uint256"
        }
      ],
      "name": "ERC20InsufficientAllowance",
      "type": "error"
    },
    {
      "inputs": [
        {
          "internalType": "address",
          "name": "sender",
          "type": "address"
        },
        {
          "internalType": "uint256",
          "name": "balance",
          "type": "uint256"
        },
        {
          "internalType": "uint256",
          "name": "needed",
          "type": "uint256"
        }
      ],
      "name": "ERC20InsufficientBalance",
      "type": "error"
    },
    {
      "inputs": [
        {
          "internalType": "address",
          "name": "approver",
          "type": "address"
        }
      ],
      "name": "ERC20InvalidApprover",
      "type": "error"
    },
    {
      "inputs": [
        {
          "internalType": "address",
          "name": "receiver",
          "type": "address"
        }
      ],
      "name": "ERC20InvalidReceiver",
      "type": "error"
    },
    {
      "inputs": [
        {
          "internalType": "address",
          "name": "sender",
          "type": "address"
        }
      ],
      "name": "ERC20InvalidSender",
      "type": "error"
    },
    {
      "inputs": [
        {
          "internalType": "address",
          "name": "spender",
          "type": "address"
        }
      ],
      "name": "ERC20InvalidSpender",
      "type": "error"
    },
    {
      "inputs": [
        {
          "internalType": "uint256",
          "name": "deadline",
          "type": "uint256"
        }
      ],
      "name": "ERC2612ExpiredSignature",
      "type": "error"
    },
    {
      "inputs": [
        {
          "internalType": "address",
          "name": "signer",
          "type": "address"
        },
        {
          "internalType": "address",
          "name": "owner",
          "type": "address"
        }
      ],
      "name": "ERC2612InvalidSigner",
      "type": "error"
    },
    {
      "inputs": [],
      "name": "EnforcedPause",
      "type": "error"
    },
    {
      "inputs": [],
      "name": "ExpectedPause",
      "type": "error"
    },
    {
      "inputs": [],
      "name": "FailedCall",
      "type": "error"
    },
    {
      "inputs": [
        {
          "internalType": "address",
          "name": "account",
          "type": "address"
        },
        {
          "internalType": "uint256",
          "name": "currentNonce",
          "type": "uint256"
        }
      ],
      "name": "InvalidAccountNonce",
      "type": "error"
    },
    {
      "inputs": [],
      "name": "InvalidInitialization",
      "type": "error"
    },
    {
      "inputs": [],
      "name": "NotInitializing",
      "type": "error"
    },
    {
      "inputs": [
        {
          "internalType": "address",
          "name": "owner",
          "type": "address"
        }
      ],
      "name": "OwnableInvalidOwner",
      "type": "error"
    },
    {
      "inputs": [
        {
          "internalType": "address",
          "name": "account",
          "type": "address"
        }
      ],
      "name": "OwnableUnauthorizedAccount",
      "type": "error"
    },
    {
      "inputs": [],
      "name": "UUPSUnauthorizedCallContext",
      "type": "error"
    },
    {
      "inputs": [
        {
          "internalType": "bytes32",
          "name": "slot",
          "type": "bytes32"
        }
      ],
      "name": "UUPSUnsupportedProxiableUUID",
      "type": "error"
    },
    {
      "anonymous": false,
      "inputs": [
        {
          "indexed": true,
          "internalType": "address",
          "name": "owner",
          "type": "address"
        },
        {
          "indexed": true,
          "internalType": "address",
          "name": "spender",
          "type": "address"
        },
        {
          "indexed": false,
          "internalType": "uint256",
          "name": "value",
          "type": "uint256"
        }
      ],
      "name": "Approval",
      "type": "event"
    },
    {
      "anonymous": false,
      "inputs": [],
      "name": "EIP712DomainChanged",
      "type": "event"
    },
    {
      "anonymous": false,
      "inputs": [
        {
          "indexed": false,
          "internalType": "uint64",
          "name": "version",
          "type": "uint64"
        }
      ],
      "name": "Initialized",
      "type": "event"
    },
    {
      "anonymous": false,
      "inputs": [
        {
          "indexed": true,
          "internalType": "address",
          "name": "previousOwner",
          "type": "address"
        },
        {
          "indexed": true,
          "internalType": "address",
          "name": "newOwner",
          "type": "address"
        }
      ],
      "name": "OwnershipTransferred",
      "type": "event"
    },
    {
      "anonymous": false,
      "inputs": [
        {
          "indexed": false,
          "internalType": "address",
          "name": "account",
          "type": "address"
        }
      ],
      "name": "Paused",
      "type": "event"
    },
    {
      "anonymous": false,
      "inputs": [
        {
          "indexed": true,
          "internalType": "address",
          "name": "from",
          "type": "address"
        },
        {
          "indexed": true,
          "internalType": "address",
          "name": "to",
          "type": "address"
        },
        {
          "indexed": false,
          "internalType": "uint256",
          "name": "value",
          "type": "uint256"
        }
      ],
      "name": "Transfer",
      "type": "event"
    },
    {
      "anonymous": false,
      "inputs": [
        {
          "indexed": false,
          "internalType": "address",
          "name": "account",
          "type": "address"
        }
      ],
      "name": "Unpaused",
      "type": "event"
    },
    {
      "anonymous": false,
      "inputs": [
        {
          "indexed": true,
          "internalType": "address",
          "name": "implementation",
          "type": "address"
        }
      ],
      "name": "Upgraded",
      "type": "event"
    },
    {
      "inputs": [],
      "name": "DOMAIN_SEPARATOR",
      "outputs": [
        {
          "internalType": "bytes32",
          "name": "",
          "type": "bytes32"
        }
      ],
      "stateMutability": "view",
      "type": "function"
    },
    {
      "inputs": [],
      "name": "UPGRADE_INTERFACE_VERSION",
      "outputs": [
        {
          "internalType": "string",
          "name": "",
          "type": "string"
        }
      ],
      "stateMutability": "view",
      "type": "function"
    },
    {
      "inputs": [
        {
          "internalType": "address",
          "name": "owner",
          "type": "address"
        },
        {
          "internalType": "address",
          "name": "spender",
          "type": "address"
        }
      ],
      "name": "allowance",
      "outputs": [
        {
          "internalType": "uint256",
          "name": "",
          "type": "uint256"
        }
      ],
      "stateMutability": "view",
      "type": "function"
    },
    {
      "inputs": [
        {
          "internalType": "address",
          "name": "spender",
          "type": "address"
        },
        {
          "internalType": "uint256",
          "name": "value",
          "type": "uint256"
        }
      ],
      "name": "approve",
      "outputs": [
        {
          "internalType": "bool",
          "name": "",
          "type": "bool"
        }
      ],
      "stateMutability": "nonpayable",
      "type": "function"
    },
    {
      "inputs": [
        {
          "internalType": "address",
          "name": "account",
          "type": "address"
        }
      ],
      "name": "balanceOf",
      "outputs": [
        {
          "internalType": "uint256",
          "name": "",
          "type": "uint256"
        }
      ],
      "stateMutability": "view",
      "type": "function"
    },
    {
      "inputs": [
        {
          "internalType": "uint256",
          "name": "value",
          "type": "uint256"
        }
      ],
      "name": "burn",
      "outputs": [],
      "stateMutability": "nonpayable",
      "type": "function"
    },
    {
      "inputs": [
        {
          "internalType": "address",
          "name": "account",
          "type": "address"
        },
        {
          "internalType": "uint256",
          "name": "value",
          "type": "uint256"
        }
      ],
      "name": "burnFrom",
      "outputs": [],
      "stateMutability": "nonpayable",
      "type": "function"
    },
    {
      "inputs": [],
      "name": "decimals",
      "outputs": [
        {
          "internalType": "uint8",
          "name": "",
          "type": "uint8"
        }
      ],
      "stateMutability": "view",
      "type": "function"
    },
    {
      "inputs": [],
      "name": "eip712Domain",
      "outputs": [
        {
          "internalType": "bytes1",
          "name": "fields",
          "type": "bytes1"
        },
        {
          "internalType": "string",
          "name": "name",
          "type": "string"
        },
        {
          "internalType": "string",
          "name": "version",
          "type": "string"
        },
        {
          "internalType": "uint256",
          "name": "chainId",
          "type": "uint256"
        },
        {
          "internalType": "address",
          "name": "verifyingContract",
          "type": "address"
        },
        {
          "internalType": "bytes32",
          "name": "salt",
          "type": "bytes32"
        },
        {
          "internalType": "uint256[]",
          "name": "extensions",
          "type": "uint256[]"
        }
      ],
      "stateMutability": "view",
      "type": "function"
    },
    {
      "inputs": [
        {
          "internalType": "address",
          "name": "initialOwner",
          "type": "address"
        }
      ],
      "name": "initialize",
      "outputs": [],
      "stateMutability": "nonpayable",
      "type": "function"
    },
    {
      "inputs": [
        {
          "internalType": "address",
          "name": "to",
          "type": "address"
        },
        {
          "internalType": "uint256",
          "name": "amount",
          "type": "uint256"
        }
      ],
      "name": "mint",
      "outputs": [],
      "stateMutability": "nonpayable",
      "type": "function"
    },
    {
      "inputs": [],
      "name": "name",
      "outputs": [
        {
          "internalType": "string",
          "name": "",
          "type": "string"
        }
      ],
      "stateMutability": "view",
      "type": "function"
    },
    {
      "inputs": [
        {
          "internalType": "address",
          "name": "owner",
          "type": "address"
        }
      ],
      "name": "nonces",
      "outputs": [
        {
          "internalType": "uint256",
          "name": "",
          "type": "uint256"
        }
      ],
      "stateMutability": "view",
      "type": "function"
    },
    {
      "inputs": [],
      "name": "owner",
      "outputs": [
        {
          "internalType": "address",
          "name": "",
          "type": "address"
        }
      ],
      "stateMutability": "view",
      "type": "function"
    },
    {
      "inputs": [],
      "name": "pause",
      "outputs": [],
      "stateMutability": "nonpayable",
      "type": "function"
    },
    {
      "inputs": [],
      "name": "paused",
      "outputs": [
        {
          "internalType": "bool",
          "name": "",
          "type": "bool"
        }
      ],
      "stateMutability": "view",
      "type": "function"
    },
    {
      "inputs": [
        {
          "internalType": "address",
          "name": "owner",
          "type": "address"
        },
        {
          "internalType": "address",
          "name": "spender",
          "type": "address"
        },
        {
          "internalType": "uint256",
          "name": "value",
          "type": "uint256"
        },
        {
          "internalType": "uint256",
          "name": "deadline",
          "type": "uint256"
        },
        {
          "internalType": "uint8",
          "name": "v",
          "type": "uint8"
        },
        {
          "internalType": "bytes32",
          "name": "r",
          "type": "bytes32"
        },
        {
          "internalType": "bytes32",
          "name": "s",
          "type": "bytes32"
        }
      ],
      "name": "permit",
      "outputs": [],
      "stateMutability": "nonpayable",
      "type": "function"
    },
    {
      "inputs": [],
      "name": "proxiableUUID",
      "outputs": [
        {
          "internalType": "bytes32",
          "name": "",
          "type": "bytes32"
        }
      ],
      "stateMutability": "view",
      "type": "function"
    },
    {
      "inputs": [],
      "name": "renounceOwnership",
      "outputs": [],
      "stateMutability": "nonpayable",
      "type": "function"
    },
    {
      "inputs": [],
      "name": "symbol",
      "outputs": [
        {
          "internalType": "string",
          "name": "",
          "type": "string"
        }
      ],
      "stateMutability": "view",
      "type": "function"
    },
    {
      "inputs": [],
      "name": "totalSupply",
      "outputs": [
        {
          "internalType": "uint256",
          "name": "",
          "type": "uint256"
        }
      ],
      "stateMutability": "view",
      "type": "function"
    },
    {
      "inputs": [
        {
          "internalType": "address",
          "name": "to",
          "type": "address"
        },
        {
          "internalType": "uint256",
          "name": "value",
          "type": "uint256"
        }
      ],
      "name": "transfer",
      "outputs": [
        {
          "internalType": "bool",
          "name": "",
          "type": "bool"
        }
      ],
      "stateMutability": "nonpayable",
      "type": "function"
    },
    {
      "inputs": [
        {
          "internalType": "address",
          "name": "from",
          "type": "address"
        },
        {
          "internalType": "address",
          "name": "to",
          "type": "address"
        },
        {
          "internalType": "uint256",
          "name": "value",
          "type": "uint256"
        }
      ],
      "name": "transferFrom",
      "outputs": [
        {
          "internalType": "bool",
          "name": "",
          "type": "bool"
        }
      ],
      "stateMutability": "nonpayable",
      "type": "function"
    },
    {
      "inputs": [
        {
          "internalType": "address",
          "name": "newOwner",
          "type": "address"
        }
      ],
      "name": "transferOwnership",
      "outputs": [],
      "stateMutability": "nonpayable",
      "type": "function"
    },
    {
      "inputs": [],
      "name": "unpause",
      "outputs": [],
      "stateMutability": "nonpayable",
      "type": "function"
    },
    {
      "inputs": [
        {
          "internalType": "address",
          "name": "newImplementation",
          "type": "address"
        },
        {
          "internalType": "bytes",
          "name": "data",
          "type": "bytes"
        }
      ],
      "name": "upgradeToAndCall",
      "outputs": [],
      "stateMutability": "payable",
      "type": "function"
    }
  ],
  "bytecode": "0x60a06040523060805234801561001457600080fd5b5061001d610022565b6100d4565b7ff0c57e16840df040f15088dc2f81fe391c3923bec73e23a9662efc9c229c6a00805468010000000000000000900460ff16156100725760405163f92ee8a960e01b815260040160405180910390fd5b80546001600160401b03908116146100d15780546001600160401b0319166001600160401b0390811782556040519081527fc7f505b2f371ae2175ee4913f4499e1f2633a7b5936321eed1cdaeb6115181d29060200160405180910390a15b50565b608051611ff46100fd60003960008181610d6d01528181610d960152610ed70152611ff46000f3fe6080604052600436106101815760003560e01c8063715018a6116100d157806395d89b411161008a578063c4d66de811610064578063c4d66de814610473578063d505accf14610493578063dd62ed3e146104b3578063f2fde38b146104d357600080fd5b806395d89b411461040d578063a9059cbb14610422578063ad3cb1cc1461044257600080fd5b8063715018a61461033457806379cc6790146103495780637ecebe00146103695780638456cb591461038957806384b0196e1461039e5780638da5cb5b146103c657600080fd5b80633f4ba83a1161013e5780634f1ef286116101185780634f1ef286146102c757806352d1902d146102da5780635c975abb146102ef57806370a082311461031457600080fd5b80633f4ba83a1461027057806340c10f191461028757806342966c68146102a757600080fd5b806306fdde0314610186578063095ea7b3146101b157806318160ddd146101e157806323b872dd1461021f578063313ce5671461023f5780633644e5151461025b575b600080fd5b34801561019257600080fd5b5061019b6104f3565b6040516101a89190611995565b60405180910390f35b3480156101bd57600080fd5b506101d16101cc3660046119c4565b61059c565b60405190151581526020016101a8565b3480156101ed57600080fd5b507f52c63247e1f47db19d5ce0460030c497f067ca4cebf71ba98eeadabe20bace02545b6040519081526020016101a8565b34801561022b57600080fd5b506101d161023a3660046119ee565b6105b6565b34801561024b57600080fd5b50604051601281526020016101a8565b34801561026757600080fd5b506102116105dc565b34801561027c57600080fd5b506102856105eb565b005b34801561029357600080fd5b506102856102a23660046119c4565b6105fd565b3480156102b357600080fd5b506102856102c2366004611a2b565b610613565b6102856102d5366004611a5a565b610620565b3480156102e657600080fd5b5061021161063b565b3480156102fb57600080fd5b50600080516020611f9f8339815191525460ff166101d1565b34801561032057600080fd5b5061021161032f366004611b24565b610658565b34801561034057600080fd5b5061028561068b565b34801561035557600080fd5b506102856103643660046119c4565b61069d565b34801561037557600080fd5b50610211610384366004611b24565b6106b2565b34801561039557600080fd5b506102856106bd565b3480156103aa57600080fd5b506103b36106cd565b6040516101a89796959493929190611b3f565b3480156103d257600080fd5b507f9016d09d72d40fdae2fd8ceac6b6234c7706214fd39c1cd1e609a0528c199300546040516001600160a01b0390911681526020016101a8565b34801561041957600080fd5b5061019b61077e565b34801561042e57600080fd5b506101d161043d3660046119c4565b6107bd565b34801561044e57600080fd5b5061019b604051806040016040528060058152602001640352e302e360dc1b81525081565b34801561047f57600080fd5b5061028561048e366004611b24565b6107cb565b34801561049f57600080fd5b506102856104ae366004611bd7565b61097b565b3480156104bf57600080fd5b506102116104ce366004611c4a565b610ad4565b3480156104df57600080fd5b506102856104ee366004611b24565b610b1e565b60606000600080516020611f3f8339815191525b905080600301805461051890611c7d565b80601f016020809104026020016040519081016040528092919081815260200182805461054490611c7d565b80156105915780601f1061056657610100808354040283529160200191610591565b820191906000526020600020905b81548152906001019060200180831161057457829003601f168201915b505050505091505090565b6000336105aa818585610b59565b60019150505b92915050565b6000336105c4858285610b6b565b6105cf858585610bd2565b60019150505b9392505050565b60006105e6610c31565b905090565b6105f3610c3b565b6105fb610c96565b565b610605610c3b565b61060f8282610cf6565b5050565b61061d3382610d2c565b50565b610628610d62565b61063182610e07565b61060f8282610e0f565b6000610645610ecc565b50600080516020611f7f83398151915290565b600080600080516020611f3f8339815191525b6001600160a01b0390931660009081526020939093525050604090205490565b610693610c3b565b6105fb6000610f15565b6106a8823383610b6b565b61060f8282610d2c565b60006105b082610f86565b6106c5610c3b565b6105fb610faf565b60006060808280808381600080516020611f5f83398151915280549091501580156106fa57506001810154155b6107435760405162461bcd60e51b81526020600482015260156024820152741152540dcc4c8e88155b9a5b9a5d1a585b1a5e9959605a1b60448201526064015b60405180910390fd5b61074b610ff8565b610753611037565b60408051600080825260208201909252600f60f81b9c939b5091995046985030975095509350915050565b7f52c63247e1f47db19d5ce0460030c497f067ca4cebf71ba98eeadabe20bace048054606091600080516020611f3f8339815191529161051890611c7d565b6000336105aa818585610bd2565b60006107d561104f565b805490915060ff600160401b820416159067ffffffffffffffff166000811580156107fd5750825b905060008267ffffffffffffffff16600114801561081a5750303b155b905081158015610828575080155b156108465760405163f92ee8a960e01b815260040160405180910390fd5b845467ffffffffffffffff19166001178555831561087057845460ff60401b1916600160401b1785555b6108bb6040518060400160405280600e81526020016d233630b6b2a137b9372a37b5b2b760911b8152506040518060400160405280600381526020016223262160e91b815250611078565b6108c361108a565b6108cb61108a565b6108d486611092565b6109036040518060400160405280600e81526020016d233630b6b2a137b9372a37b5b2b760911b8152506110a3565b61090b61108a565b61092d8661091b6012600a611db4565b61092890620f4240611dc3565b610cf6565b831561097357845460ff60401b19168555604051600181527fc7f505b2f371ae2175ee4913f4499e1f2633a7b5936321eed1cdaeb6115181d29060200160405180910390a15b505050505050565b8342111561099f5760405163313c898160e11b81526004810185905260240161073a565b60007f6e71edae12b1b97f4d1f60370fef10105fa2faae0126114a169c64845d6126c9888888610a0b8c6001600160a01b031660009081527f5ab42ced628888259c08ac98db1eb0cf702fc1501344311d8b100cd1bfe4bb006020526040902080546001810190915590565b6040805160208101969096526001600160a01b0394851690860152929091166060840152608083015260a082015260c0810186905260e0016040516020818303038152906040528051906020012090506000610a66826110ce565b90506000610a76828787876110fb565b9050896001600160a01b0316816001600160a01b031614610abd576040516325c0072360e11b81526001600160a01b0380831660048301528b16602482015260440161073a565b610ac88a8a8a610b59565b50505050505050505050565b6001600160a01b0391821660009081527f52c63247e1f47db19d5ce0460030c497f067ca4cebf71ba98eeadabe20bace016020908152604080832093909416825291909152205490565b610b26610c3b565b6001600160a01b038116610b5057604051631e4fbdf760e01b81526000600482015260240161073a565b61061d81610f15565b610b668383836001611129565b505050565b6000610b778484610ad4565b9050600019811015610bcc5781811015610bbd57604051637dc7a0d960e11b81526001600160a01b0384166004820152602481018290526044810183905260640161073a565b610bcc84848484036000611129565b50505050565b6001600160a01b038316610bfc57604051634b637e8f60e11b81526000600482015260240161073a565b6001600160a01b038216610c265760405163ec442f0560e01b81526000600482015260240161073a565b610b66838383611211565b60006105e661121c565b33610c6d7f9016d09d72d40fdae2fd8ceac6b6234c7706214fd39c1cd1e609a0528c199300546001600160a01b031690565b6001600160a01b0316146105fb5760405163118cdaa760e01b815233600482015260240161073a565b610c9e611290565b600080516020611f9f833981519152805460ff191681557f5db9ee0a495bf2e6ff9c91a7834c1ba4fdd244a5e8aa4e537bd38aeae4b073aa335b6040516001600160a01b03909116815260200160405180910390a150565b6001600160a01b038216610d205760405163ec442f0560e01b81526000600482015260240161073a565b61060f60008383611211565b6001600160a01b038216610d5657604051634b637e8f60e11b81526000600482015260240161073a565b61060f82600083611211565b306001600160a01b037f0000000000000000000000000000000000000000000000000000000000000000161480610de957507f00000000000000000000000000000000000000000000000000000000000000006001600160a01b0316610ddd600080516020611f7f833981519152546001600160a01b031690565b6001600160a01b031614155b156105fb5760405163703e46dd60e11b815260040160405180910390fd5b61061d610c3b565b816001600160a01b03166352d1902d6040518163ffffffff1660e01b8152600401602060405180830381865afa925050508015610e69575060408051601f3d908101601f19168201909252610e6691810190611dda565b60015b610e9157604051634c9c8ce360e01b81526001600160a01b038316600482015260240161073a565b600080516020611f7f8339815191528114610ec257604051632a87526960e21b81526004810182905260240161073a565b610b6683836112c0565b306001600160a01b037f000000000000000000000000000000000000000000000000000000000000000016146105fb5760405163703e46dd60e11b815260040160405180910390fd5b7f9016d09d72d40fdae2fd8ceac6b6234c7706214fd39c1cd1e609a0528c19930080546001600160a01b031981166001600160a01b03848116918217845560405192169182907f8be0079c531659141344cd1fd0a4f28419497f9722a3daafe3b4186f6b6457e090600090a3505050565b6000807f5ab42ced628888259c08ac98db1eb0cf702fc1501344311d8b100cd1bfe4bb0061066b565b610fb7611316565b600080516020611f9f833981519152805460ff191660011781557f62e78cea01bee320cd4e420270b5ea74000d11b0c9f74754ebdbfc544b05a25833610cd8565b7fa16a46d94261c7517cc8ff89f61c0ce93598e3c849801011dee649a6a557d1028054606091600080516020611f5f8339815191529161051890611c7d565b60606000600080516020611f5f833981519152610507565b6000807ff0c57e16840df040f15088dc2f81fe391c3923bec73e23a9662efc9c229c6a006105b0565b611080611347565b61060f828261136c565b6105fb611347565b61109a611347565b61061d816113bd565b6110ab611347565b61061d81604051806040016040528060018152602001603160f81b8152506113c5565b60006105b06110db610c31565b8360405161190160f01b8152600281019290925260228201526042902090565b60008060008061110d88888888611426565b92509250925061111d82826114f5565b50909695505050505050565b600080516020611f3f8339815191526001600160a01b0385166111625760405163e602df0560e01b81526000600482015260240161073a565b6001600160a01b03841661118c57604051634a1406b160e11b81526000600482015260240161073a565b6001600160a01b0380861660009081526001830160209081526040808320938816835292905220839055811561120a57836001600160a01b0316856001600160a01b03167f8c5be1e5ebec7d5bd14f71427d1e84f3dd0314c0f7b2291e5b200ac8c7c3b9258560405161120191815260200190565b60405180910390a35b5050505050565b610b668383836115ae565b60007f8b73c3c69bb8fe3d512ecc4cf759cc79239f7b179b0ffacaa9a75d522b39400f6112476115c1565b61124f61162b565b60408051602081019490945283019190915260608201524660808201523060a082015260c00160405160208183030381529060405280519060200120905090565b600080516020611f9f8339815191525460ff166105fb57604051638dfc202b60e01b815260040160405180910390fd5b6112c98261166f565b6040516001600160a01b038316907fbc7cd75a20ee27fd9adebab32041f755214dbc6bffa90cc0225b39da2e5c2d3b90600090a280511561130e57610b6682826116d4565b61060f61174a565b600080516020611f9f8339815191525460ff16156105fb5760405163d93c066560e01b815260040160405180910390fd5b61134f611769565b6105fb57604051631afcd79f60e31b815260040160405180910390fd5b611374611347565b600080516020611f3f8339815191527f52c63247e1f47db19d5ce0460030c497f067ca4cebf71ba98eeadabe20bace036113ae8482611e3a565b5060048101610bcc8382611e3a565b610b26611347565b6113cd611347565b600080516020611f5f8339815191527fa16a46d94261c7517cc8ff89f61c0ce93598e3c849801011dee649a6a557d1026114078482611e3a565b50600381016114168382611e3a565b5060008082556001909101555050565b600080807f7fffffffffffffffffffffffffffffff5d576e7357a4501ddfe92f46681b20a084111561146157506000915060039050826114eb565b604080516000808252602082018084528a905260ff891692820192909252606081018790526080810186905260019060a0016020604051602081039080840390855afa1580156114b5573d6000803e3d6000fd5b5050604051601f1901519150506001600160a01b0381166114e1575060009250600191508290506114eb565b9250600091508190505b9450945094915050565b600082600381111561150957611509611ef9565b03611512575050565b600182600381111561152657611526611ef9565b036115445760405163f645eedf60e01b815260040160405180910390fd5b600282600381111561155857611558611ef9565b036115795760405163fce698f760e01b81526004810182905260240161073a565b600382600381111561158d5761158d611ef9565b0361060f576040516335e2f38360e21b81526004810182905260240161073a565b6115b6611316565b610b66838383611783565b6000600080516020611f5f833981519152816115db610ff8565b8051909150156115f357805160209091012092915050565b81548015611602579392505050565b7fc5d2460186f7233c927e7db2dcc703c0e500b653ca82273b7bfad8045d85a470935050505090565b6000600080516020611f5f83398151915281611645611037565b80519091501561165d57805160209091012092915050565b60018201548015611602579392505050565b806001600160a01b03163b6000036116a557604051634c9c8ce360e01b81526001600160a01b038216600482015260240161073a565b600080516020611f7f83398151915280546001600160a01b0319166001600160a01b0392909216919091179055565b6060600080846001600160a01b0316846040516116f19190611f0f565b600060405180830381855af49150503d806000811461172c576040519150601f19603f3d011682016040523d82523d6000602084013e611731565b606091505b50915091506117418583836118c1565b95945050505050565b34156105fb5760405163b398979f60e01b815260040160405180910390fd5b600061177361104f565b54600160401b900460ff16919050565b600080516020611f3f8339815191526001600160a01b0384166117bf57818160020160008282546117b49190611f2b565b909155506118319050565b6001600160a01b038416600090815260208290526040902054828110156118125760405163391434e360e21b81526001600160a01b0386166004820152602481018290526044810184905260640161073a565b6001600160a01b03851660009081526020839052604090209083900390555b6001600160a01b03831661184f57600281018054839003905561186e565b6001600160a01b03831660009081526020829052604090208054830190555b826001600160a01b0316846001600160a01b03167fddf252ad1be2c89b69c2b068fc378daa952ba7f163c4a11628f55a4df523b3ef846040516118b391815260200190565b60405180910390a350505050565b6060826118d6576118d18261191d565b6105d5565b81511580156118ed57506001600160a01b0384163b155b1561191657604051639996b31560e01b81526001600160a01b038516600482015260240161073a565b50806105d5565b80511561192c57805160208201fd5b60405163d6bda27560e01b815260040160405180910390fd5b60005b83811015611960578181015183820152602001611948565b50506000910152565b60008151808452611981816020860160208601611945565b601f01601f19169290920160200192915050565b6020815260006105d56020830184611969565b80356001600160a01b03811681146119bf57600080fd5b919050565b600080604083850312156119d757600080fd5b6119e0836119a8565b946020939093013593505050565b600080600060608486031215611a0357600080fd5b611a0c846119a8565b9250611a1a602085016119a8565b929592945050506040919091013590565b600060208284031215611a3d57600080fd5b5035919050565b634e487b7160e01b600052604160045260246000fd5b60008060408385031215611a6d57600080fd5b611a76836119a8565b9150602083013567ffffffffffffffff811115611a9257600080fd5b8301601f81018513611aa357600080fd5b803567ffffffffffffffff811115611abd57611abd611a44565b604051601f8201601f19908116603f0116810167ffffffffffffffff81118282101715611aec57611aec611a44565b604052818152828201602001871015611b0457600080fd5b816020840160208301376000602083830101528093505050509250929050565b600060208284031215611b3657600080fd5b6105d5826119a8565b60ff60f81b8816815260e060208201526000611b5e60e0830189611969565b8281036040840152611b708189611969565b606084018890526001600160a01b038716608085015260a0840186905283810360c08501528451808252602080870193509091019060005b81811015611bc6578351835260209384019390920191600101611ba8565b50909b9a5050505050505050505050565b600080600080600080600060e0888a031215611bf257600080fd5b611bfb886119a8565b9650611c09602089016119a8565b95506040880135945060608801359350608088013560ff81168114611c2d57600080fd5b9699959850939692959460a0840135945060c09093013592915050565b60008060408385031215611c5d57600080fd5b611c66836119a8565b9150611c74602084016119a8565b90509250929050565b600181811c90821680611c9157607f821691505b602082108103611cb157634e487b7160e01b600052602260045260246000fd5b50919050565b634e487b7160e01b600052601160045260246000fd5b6001815b6001841115611d0857808504811115611cec57611cec611cb7565b6001841615611cfa57908102905b60019390931c928002611cd1565b935093915050565b600082611d1f575060016105b0565b81611d2c575060006105b0565b8160018114611d425760028114611d4c57611d68565b60019150506105b0565b60ff841115611d5d57611d5d611cb7565b50506001821b6105b0565b5060208310610133831016604e8410600b8410161715611d8b575081810a6105b0565b611d986000198484611ccd565b8060001904821115611dac57611dac611cb7565b029392505050565b60006105d560ff841683611d10565b80820281158282048414176105b0576105b0611cb7565b600060208284031215611dec57600080fd5b5051919050565b601f821115610b6657806000526020600020601f840160051c81016020851015611e1a5750805b601f840160051c820191505b8181101561120a5760008155600101611e26565b815167ffffffffffffffff811115611e5457611e54611a44565b611e6881611e628454611c7d565b84611df3565b6020601f821160018114611e9c5760008315611e845750848201515b600019600385901b1c1916600184901b17845561120a565b600084815260208120601f198516915b82811015611ecc5787850151825560209485019460019092019101611eac565b5084821015611eea5786840151600019600387901b60f8161c191681555b50505050600190811b01905550565b634e487b7160e01b600052602160045260246000fd5b60008251611f21818460208701611945565b9190910192915050565b808201808211156105b0576105b0611cb756fe52c63247e1f47db19d5ce0460030c497f067ca4cebf71ba98eeadabe20bace00a16a46d94261c7517cc8ff89f61c0ce93598e3c849801011dee649a6a557d100360894a13ba1a3210667c828492db98dca3e2076cc3735a920a3ca505d382bbccd5ed15c6e187e77e9aee88184c21f4f2182ab5827cb3b7e07fbedcd63f03300a2646970667358221220de19261a7c30099baa0b7c0f45ecb7032dbec6e1841d8f860cf91013a8f88cbe64736f6c634300081c0033",
  "linkReferences": {},
  "deployedLinkReferences": {}
}