{
  "_format": "hh-sol-artifact-1",
  "contractName": "FlameBornEngine",
  "sourceName": "contracts/engine/FlameBornEngine.sol",
  "abi": [
    {
      "inputs": [],
      "stateMutability": "nonpayable",
      "type": "constructor"
    },
    {
      "inputs": [],
      "name": "AccessControlBadConfirmation",
      "type": "error"
    },
    {
      "inputs": [
        {
          "internalType": "address",
          "name": "account",
          "type": "address"
        },
        {
          "internalType": "bytes32",
          "name": "neededRole",
          "type": "bytes32"
        }
      ],
      "name": "AccessControlUnauthorizedAccount",
      "type": "error"
    },
    {
      "inputs": [
        {
          "internalType": "address",
          "name": "actor",
          "type": "address"
        }
      ],
      "name": "ActorAlreadyVerified",
      "type": "error"
    },
    {
      "inputs": [
        {
          "internalType": "address",
          "name": "target",
          "type": "address"
        }
      ],
      "name": "AddressEmptyCode",
      "type": "error"
    },
    {
      "inputs": [
        {
          "internalType": "address",
          "name": "implementation",
          "type": "address"
        }
      ],
      "name": "ERC1967InvalidImplementation",
      "type": "error"
    },
    {
      "inputs": [],
      "name": "ERC1967NonPayable",
      "type": "error"
    },
    {
      "inputs": [],
      "name": "FailedCall",
      "type": "error"
    },
    {
      "inputs": [],
      "name": "InvalidInitialization",
      "type": "error"
    },
    {
      "inputs": [],
      "name": "NotInitializing",
      "type": "error"
    },
    {
      "inputs": [],
      "name": "ReentrancyGuardReentrantCall",
      "type": "error"
    },
    {
      "inputs": [],
      "name": "UUPSUnauthorizedCallContext",
      "type": "error"
    },
    {
      "inputs": [
        {
          "internalType": "bytes32",
          "name": "slot",
          "type": "bytes32"
        }
      ],
      "name": "UUPSUnsupportedProxiableUUID",
      "type": "error"
    },
    {
      "anonymous": false,
      "inputs": [
        {
          "indexed": true,
          "internalType": "address",
          "name": "actor",
          "type": "address"
        },
        {
          "indexed": false,
          "internalType": "enum FlameBornEngine.ActorRole",
          "name": "role",
          "type": "uint8"
        },
        {
          "indexed": false,
          "internalType": "string",
          "name": "name",
          "type": "string"
        }
      ],
      "name": "ActorVerified",
      "type": "event"
    },
    {
      "anonymous": false,
      "inputs": [
        {
          "indexed": true,
          "internalType": "address",
          "name": "donor",
          "type": "address"
        },
        {
          "indexed": false,
          "internalType": "uint256",
          "name": "amountETH",
          "type": "uint256"
        },
        {
          "indexed": false,
          "internalType": "uint256",
          "name": "rewardFLB",
          "type": "uint256"
        }
      ],
      "name": "DonationReceived",
      "type": "event"
    },
    {
      "anonymous": false,
      "inputs": [
        {
          "indexed": false,
          "internalType": "uint64",
          "name": "version",
          "type": "uint64"
        }
      ],
      "name": "Initialized",
      "type": "event"
    },
    {
      "anonymous": false,
      "inputs": [
        {
          "indexed": true,
          "internalType": "address",
          "name": "user",
          "type": "address"
        },
        {
          "indexed": false,
          "internalType": "string",
          "name": "questId",
          "type": "string"
        },
        {
          "indexed": false,
          "internalType": "uint256",
          "name": "reward",
          "type": "uint256"
        }
      ],
      "name": "QuestRewarded",
      "type": "event"
    },
    {
      "anonymous": false,
      "inputs": [
        {
          "indexed": true,
          "internalType": "bytes32",
          "name": "role",
          "type": "bytes32"
        },
        {
          "indexed": true,
          "internalType": "bytes32",
          "name": "previousAdminRole",
          "type": "bytes32"
        },
        {
          "indexed": true,
          "internalType": "bytes32",
          "name": "newAdminRole",
          "type": "bytes32"
        }
      ],
      "name": "RoleAdminChanged",
      "type": "event"
    },
    {
      "anonymous": false,
      "inputs": [
        {
          "indexed": true,
          "internalType": "bytes32",
          "name": "role",
          "type": "bytes32"
        },
        {
          "indexed": true,
          "internalType": "address",
          "name": "account",
          "type": "address"
        },
        {
          "indexed": true,
          "internalType": "address",
          "name": "sender",
          "type": "address"
        }
      ],
      "name": "RoleGranted",
      "type": "event"
    },
    {
      "anonymous": false,
      "inputs": [
        {
          "indexed": true,
          "internalType": "bytes32",
          "name": "role",
          "type": "bytes32"
        },
        {
          "indexed": true,
          "internalType": "address",
          "name": "account",
          "type": "address"
        },
        {
          "indexed": true,
          "internalType": "address",
          "name": "sender",
          "type": "address"
        }
      ],
      "name": "RoleRevoked",
      "type": "event"
    },
    {
      "anonymous": false,
      "inputs": [
        {
          "indexed": true,
          "internalType": "address",
          "name": "implementation",
          "type": "address"
        }
      ],
      "name": "Upgraded",
      "type": "event"
    },
    {
      "inputs": [],
      "name": "DEFAULT_ADMIN_ROLE",
      "outputs": [
        {
          "internalType": "bytes32",
          "name": "",
          "type": "bytes32"
        }
      ],
      "stateMutability": "view",
      "type": "function"
    },
    {
      "inputs": [],
      "name": "MIN_DONATION",
      "outputs": [
        {
          "internalType": "uint256",
          "name": "",
          "type": "uint256"
        }
      ],
      "stateMutability": "view",
      "type": "function"
    },
    {
      "inputs": [],
      "name": "QUEST_ADMIN_ROLE",
      "outputs": [
        {
          "internalType": "bytes32",
          "name": "",
          "type": "bytes32"
        }
      ],
      "stateMutability": "view",
      "type": "function"
    },
    {
      "inputs": [],
      "name": "REGISTRAR_ROLE",
      "outputs": [
        {
          "internalType": "bytes32",
          "name": "",
          "type": "bytes32"
        }
      ],
      "stateMutability": "view",
      "type": "function"
    },
    {
      "inputs": [],
      "name": "UPGRADE_INTERFACE_VERSION",
      "outputs": [
        {
          "internalType": "string",
          "name": "",
          "type": "string"
        }
      ],
      "stateMutability": "view",
      "type": "function"
    },
    {
      "inputs": [],
      "name": "actorReward",
      "outputs": [
        {
          "internalType": "uint256",
          "name": "",
          "type": "uint256"
        }
      ],
      "stateMutability": "view",
      "type": "function"
    },
    {
      "inputs": [
        {
          "internalType": "address",
          "name": "",
          "type": "address"
        }
      ],
      "name": "actors",
      "outputs": [
        {
          "internalType": "bool",
          "name": "verified",
          "type": "bool"
        },
        {
          "internalType": "enum FlameBornEngine.ActorRole",
          "name": "role",
          "type": "uint8"
        },
        {
          "internalType": "string",
          "name": "name",
          "type": "string"
        },
        {
          "internalType": "string",
          "name": "licenseId",
          "type": "string"
        },
        {
          "internalType": "string",
          "name": "phone",
          "type": "string"
        }
      ],
      "stateMutability": "view",
      "type": "function"
    },
    {
      "inputs": [
        {
          "internalType": "address",
          "name": "user",
          "type": "address"
        },
        {
          "internalType": "uint256",
          "name": "reward",
          "type": "uint256"
        },
        {
          "internalType": "string",
          "name": "questId",
          "type": "string"
        }
      ],
      "name": "awardQuest",
      "outputs": [],
      "stateMutability": "nonpayable",
      "type": "function"
    },
    {
      "inputs": [],
      "name": "donate",
      "outputs": [],
      "stateMutability": "payable",
      "type": "function"
    },
    {
      "inputs": [],
      "name": "donationRewardRate",
      "outputs": [
        {
          "internalType": "uint256",
          "name": "",
          "type": "uint256"
        }
      ],
      "stateMutability": "view",
      "type": "function"
    },
    {
      "inputs": [
        {
          "internalType": "address",
          "name": "",
          "type": "address"
        }
      ],
      "name": "donorBalances",
      "outputs": [
        {
          "internalType": "uint256",
          "name": "",
          "type": "uint256"
        }
      ],
      "stateMutability": "view",
      "type": "function"
    },
    {
      "inputs": [
        {
          "internalType": "address",
          "name": "actor",
          "type": "address"
        }
      ],
      "name": "getActor",
      "outputs": [
        {
          "internalType": "bool",
          "name": "verified",
          "type": "bool"
        },
        {
          "internalType": "enum FlameBornEngine.ActorRole",
          "name": "role",
          "type": "uint8"
        },
        {
          "internalType": "string",
          "name": "name",
          "type": "string"
        },
        {
          "internalType": "string",
          "name": "licenseId",
          "type": "string"
        },
        {
          "internalType": "string",
          "name": "phone",
          "type": "string"
        }
      ],
      "stateMutability": "view",
      "type": "function"
    },
    {
      "inputs": [
        {
          "internalType": "bytes32",
          "name": "role",
          "type": "bytes32"
        }
      ],
      "name": "getRoleAdmin",
      "outputs": [
        {
          "internalType": "bytes32",
          "name": "",
          "type": "bytes32"
        }
      ],
      "stateMutability": "view",
      "type": "function"
    },
    {
      "inputs": [
        {
          "internalType": "bytes32",
          "name": "role",
          "type": "bytes32"
        },
        {
          "internalType": "address",
          "name": "account",
          "type": "address"
        }
      ],
      "name": "grantRole",
      "outputs": [],
      "stateMutability": "nonpayable",
      "type": "function"
    },
    {
      "inputs": [
        {
          "internalType": "bytes32",
          "name": "role",
          "type": "bytes32"
        },
        {
          "internalType": "address",
          "name": "account",
          "type": "address"
        }
      ],
      "name": "hasRole",
      "outputs": [
        {
          "internalType": "bool",
          "name": "",
          "type": "bool"
        }
      ],
      "stateMutability": "view",
      "type": "function"
    },
    {
      "inputs": [],
      "name": "healthIDNFT",
      "outputs": [
        {
          "internalType": "contract IHealthIDNFT",
          "name": "",
          "type": "address"
        }
      ],
      "stateMutability": "view",
      "type": "function"
    },
    {
      "inputs": [
        {
          "internalType": "address",
          "name": "admin",
          "type": "address"
        },
        {
          "internalType": "address",
          "name": "_token",
          "type": "address"
        },
        {
          "internalType": "address",
          "name": "_healthIDNFT",
          "type": "address"
        },
        {
          "internalType": "uint256",
          "name": "_actorReward",
          "type": "uint256"
        },
        {
          "internalType": "uint256",
          "name": "_donationRewardRate",
          "type": "uint256"
        }
      ],
      "name": "initialize",
      "outputs": [],
      "stateMutability": "nonpayable",
      "type": "function"
    },
    {
      "inputs": [
        {
          "internalType": "address",
          "name": "actor",
          "type": "address"
        }
      ],
      "name": "isVerifiedActor",
      "outputs": [
        {
          "internalType": "bool",
          "name": "",
          "type": "bool"
        }
      ],
      "stateMutability": "view",
      "type": "function"
    },
    {
      "inputs": [],
      "name": "name",
      "outputs": [
        {
          "internalType": "string",
          "name": "",
          "type": "string"
        }
      ],
      "stateMutability": "view",
      "type": "function"
    },
    {
      "inputs": [],
      "name": "proxiableUUID",
      "outputs": [
        {
          "internalType": "bytes32",
          "name": "",
          "type": "bytes32"
        }
      ],
      "stateMutability": "view",
      "type": "function"
    },
    {
      "inputs": [
        {
          "internalType": "address",
          "name": "",
          "type": "address"
        }
      ],
      "name": "questRewards",
      "outputs": [
        {
          "internalType": "uint256",
          "name": "",
          "type": "uint256"
        }
      ],
      "stateMutability": "view",
      "type": "function"
    },
    {
      "inputs": [
        {
          "internalType": "bytes32",
          "name": "role",
          "type": "bytes32"
        },
        {
          "internalType": "address",
          "name": "callerConfirmation",
          "type": "address"
        }
      ],
      "name": "renounceRole",
      "outputs": [],
      "stateMutability": "nonpayable",
      "type": "function"
    },
    {
      "inputs": [
        {
          "internalType": "bytes32",
          "name": "role",
          "type": "bytes32"
        },
        {
          "internalType": "address",
          "name": "account",
          "type": "address"
        }
      ],
      "name": "revokeRole",
      "outputs": [],
      "stateMutability": "nonpayable",
      "type": "function"
    },
    {
      "inputs": [
        {
          "internalType": "bytes4",
          "name": "interfaceId",
          "type": "bytes4"
        }
      ],
      "name": "supportsInterface",
      "outputs": [
        {
          "internalType": "bool",
          "name": "",
          "type": "bool"
        }
      ],
      "stateMutability": "view",
      "type": "function"
    },
    {
      "inputs": [],
      "name": "symbol",
      "outputs": [
        {
          "internalType": "string",
          "name": "",
          "type": "string"
        }
      ],
      "stateMutability": "view",
      "type": "function"
    },
    {
      "inputs": [],
      "name": "token",
      "outputs": [
        {
          "internalType": "contract IFlameBornToken",
          "name": "",
          "type": "address"
        }
      ],
      "stateMutability": "view",
      "type": "function"
    },
    {
      "inputs": [
        {
          "internalType": "string",
          "name": "name",
          "type": "string"
        }
      ],
      "name": "tokenURIForActor",
      "outputs": [
        {
          "internalType": "string",
          "name": "",
          "type": "string"
        }
      ],
      "stateMutability": "pure",
      "type": "function"
    },
    {
      "inputs": [],
      "name": "totalDonations",
      "outputs": [
        {
          "internalType": "uint256",
          "name": "",
          "type": "uint256"
        }
      ],
      "stateMutability": "view",
      "type": "function"
    },
    {
      "inputs": [
        {
          "internalType": "address",
          "name": "newImplementation",
          "type": "address"
        },
        {
          "internalType": "bytes",
          "name": "data",
          "type": "bytes"
        }
      ],
      "name": "upgradeToAndCall",
      "outputs": [],
      "stateMutability": "payable",
      "type": "function"
    },
    {
      "inputs": [
        {
          "internalType": "address",
          "name": "actorAddress",
          "type": "address"
        },
        {
          "internalType": "enum FlameBornEngine.ActorRole",
          "name": "role",
          "type": "uint8"
        },
        {
          "internalType": "string",
          "name": "name",
          "type": "string"
        },
        {
          "internalType": "string",
          "name": "licenseId",
          "type": "string"
        },
        {
          "internalType": "string",
          "name": "phone",
          "type": "string"
        }
      ],
      "name": "verifyActor",
      "outputs": [],
      "stateMutability": "nonpayable",
      "type": "function"
    },
    {
      "inputs": [],
      "name": "version",
      "outputs": [
        {
          "internalType": "string",
          "name": "",
          "type": "string"
        }
      ],
      "stateMutability": "pure",
      "type": "function"
    },
    {
      "inputs": [
        {
          "internalType": "address payable",
          "name": "recipient",
          "type": "address"
        }
      ],
      "name": "withdrawDonations",
      "outputs": [],
      "stateMutability": "nonpayable",
      "type": "function"
    }
  ],
  "bytecode": "0x60a06040523060805234801561001457600080fd5b5061001d610022565b6100d4565b7ff0c57e16840df040f15088dc2f81fe391c3923bec73e23a9662efc9c229c6a00805468010000000000000000900460ff16156100725760405163f92ee8a960e01b815260040160405180910390fd5b80546001600160401b03908116146100d15780546001600160401b0319166001600160401b0390811782556040519081527fc7f505b2f371ae2175ee4913f4499e1f2633a7b5936321eed1cdaeb6115181d29060200160405180910390a15b50565b6080516126586100fd600039600081816119f501528181611a1e0152611b8801526126586000f3fe6080604052600436106101e35760003560e01c806384d49d8211610102578063d78360bc11610095578063ed88c68e11610064578063ed88c68e14610658578063f5c515be14610660578063f68e955314610699578063fc0c546a146106cd57600080fd5b8063d78360bc146105f1578063db45810e14610607578063de2ed89314610622578063eaa66a3c1461063857600080fd5b8063a56f5b53116100d1578063a56f5b5314610548578063a6b63eb814610568578063ad3cb1cc14610588578063d547741f146105d157600080fd5b806384d49d821461049957806391d14854146104b957806395d89b411461051e578063a217fddf1461053357600080fd5b80634f1ef2861161017a57806362158c751161014957806362158c7514610416578063624c672214610436578063678f9350146104565780637b8c8de11461046c57600080fd5b80634f1ef2861461037057806352d1902d1461038357806354fd4d50146103985780635a21ce24146103de57600080fd5b8063248a9ca3116101b6578063248a9ca3146102ae5780632f2ff15d146102fd57806336568abe1461031f5780634138d1671461033f57600080fd5b806301ffc9a7146101e857806306fdde031461021d578063096428411461023f57806314e0250014610281575b600080fd5b3480156101f457600080fd5b50610208610203366004611ee3565b6106ed565b60405190151581526020015b60405180910390f35b34801561022957600080fd5b50610232610724565b6040516102149190611f5d565b34801561024b57600080fd5b506102737fd9fa870f425abcc65e9f66291fd387e7d8e4b1a8019d84df97822b1a0643f58581565b604051908152602001610214565b34801561028d57600080fd5b5061027361029c366004611f85565b60096020526000908152604090205481565b3480156102ba57600080fd5b506102736102c9366004611fa2565b60009081527f02dd7bc7dec4dceedda775e58dd541e08a116c6c53815c0bd028192f7b626800602052604090206001015490565b34801561030957600080fd5b5061031d610318366004611fbb565b6107b2565b005b34801561032b57600080fd5b5061031d61033a366004611fbb565b6107fc565b34801561034b57600080fd5b5061035f61035a366004611f85565b610834565b604051610214959493929190612023565b61031d61037e36600461210d565b610a84565b34801561038f57600080fd5b50610273610aa3565b3480156103a457600080fd5b5060408051808201909152600d81527f312e312e302d67656e65736973000000000000000000000000000000000000006020820152610232565b3480156103ea57600080fd5b506003546103fe906001600160a01b031681565b6040516001600160a01b039091168152602001610214565b34801561042257600080fd5b5061031d6104313660046121ba565b610ad2565b34801561044257600080fd5b5061031d610451366004612216565b610c86565b34801561046257600080fd5b5061027360055481565b34801561047857600080fd5b50610273610487366004611f85565b60076020526000908152604090205481565b3480156104a557600080fd5b506102326104b43660046122e5565b611037565b3480156104c557600080fd5b506102086104d4366004611fbb565b60009182527f02dd7bc7dec4dceedda775e58dd541e08a116c6c53815c0bd028192f7b626800602090815260408084206001600160a01b0393909316845291905290205460ff1690565b34801561052a57600080fd5b50610232611060565b34801561053f57600080fd5b50610273600081565b34801561055457600080fd5b5061031d610563366004611f85565b61106d565b34801561057457600080fd5b5061031d610583366004612336565b6111bf565b34801561059457600080fd5b506102326040518060400160405280600581526020017f352e302e3000000000000000000000000000000000000000000000000000000081525081565b3480156105dd57600080fd5b5061031d6105ec366004611fbb565b611511565b3480156105fd57600080fd5b5061027360045481565b34801561061357600080fd5b50610273662386f26fc1000081565b34801561062e57600080fd5b5061027360065481565b34801561064457600080fd5b5061035f610653366004611f85565b611555565b61031d611723565b34801561066c57600080fd5b5061020861067b366004611f85565b6001600160a01b031660009081526008602052604090205460ff1690565b3480156106a557600080fd5b506102737fedcc084d3dcd65a1f7f23c65c46722faca6953d28e43150a467cf43e5c30923881565b3480156106d957600080fd5b506002546103fe906001600160a01b031681565b60006001600160e01b03198216637965db0b60e01b148061071e57506301ffc9a760e01b6001600160e01b03198316145b92915050565b6000805461073190612391565b80601f016020809104026020016040519081016040528092919081815260200182805461075d90612391565b80156107aa5780601f1061077f576101008083540402835291602001916107aa565b820191906000526020600020905b81548152906001019060200180831161078d57829003601f168201915b505050505081565b60008281527f02dd7bc7dec4dceedda775e58dd541e08a116c6c53815c0bd028192f7b62680060205260409020600101546107ec81611868565b6107f68383611875565b50505050565b6001600160a01b03811633146108255760405163334bd91960e11b815260040160405180910390fd5b61082f8282611944565b505050565b6001600160a01b0381166000908152600860209081526040808320815160a08101909252805460ff808216151584528594606094859485948894929391929184019161010090910416600581111561088e5761088e611feb565b600581111561089f5761089f611feb565b81526020016001820180546108b390612391565b80601f01602080910402602001604051908101604052809291908181526020018280546108df90612391565b801561092c5780601f106109015761010080835404028352916020019161092c565b820191906000526020600020905b81548152906001019060200180831161090f57829003601f168201915b5050505050815260200160028201805461094590612391565b80601f016020809104026020016040519081016040528092919081815260200182805461097190612391565b80156109be5780601f10610993576101008083540402835291602001916109be565b820191906000526020600020905b8154815290600101906020018083116109a157829003601f168201915b505050505081526020016003820180546109d790612391565b80601f0160208091040260200160405190810160405280929190818152602001828054610a0390612391565b8015610a505780601f10610a2557610100808354040283529160200191610a50565b820191906000526020600020905b815481529060010190602001808311610a3357829003601f168201915b5050509190925250508151602083015160408401516060850151608090950151929c919b5099509297509550909350505050565b610a8c6119ea565b610a9582611aa3565b610a9f8282611aae565b5050565b6000610aad611b7d565b507f360894a13ba1a3210667c828492db98dca3e2076cc3735a920a3ca505d382bbc90565b7fd9fa870f425abcc65e9f66291fd387e7d8e4b1a8019d84df97822b1a0643f585610afc81611868565b6001600160a01b038516610b575760405162461bcd60e51b815260206004820152600c60248201527f496e76616c69642075736572000000000000000000000000000000000000000060448201526064015b60405180910390fd5b60008411610ba75760405162461bcd60e51b815260206004820152601260248201527f526577617264206d757374206265203e203000000000000000000000000000006044820152606401610b4e565b6001600160a01b03851660009081526009602052604081208054869290610bcf9084906123e1565b90915550506002546040516340c10f1960e01b81526001600160a01b03878116600483015260248201879052909116906340c10f1990604401600060405180830381600087803b158015610c2257600080fd5b505af1158015610c36573d6000803e3d6000fd5b50505050846001600160a01b03167ff746c75ab19937d58b2a3e0406d8d5fcd1e8ae5545a89c47e88e53497787182c848487604051610c779392919061241d565b60405180910390a25050505050565b7fedcc084d3dcd65a1f7f23c65c46722faca6953d28e43150a467cf43e5c309238610cb081611868565b6001600160a01b038916610d065760405162461bcd60e51b815260206004820152600d60248201527f496e76616c6964206163746f72000000000000000000000000000000000000006044820152606401610b4e565b6001600160a01b03891660009081526008602052604090205460ff1615610d4b57604051635a01047360e01b81526001600160a01b038a166004820152602401610b4e565b6040518060a00160405280600115158152602001896005811115610d7157610d71611feb565b815260200188888080601f016020809104026020016040519081016040528093929190818152602001838380828437600092019190915250505090825250604080516020601f890181900481028201810190925287815291810191908890889081908401838280828437600092019190915250505090825250604080516020601f87018190048102820181019092528581529181019190869086908190840183828082843760009201829052509390945250506001600160a01b038c1681526008602090815260409091208351815490151560ff19821681178355928501519193509091839161ff001990911661ffff1990911617610100836005811115610e7b57610e7b611feb565b021790555060408201516001820190610e94908261248f565b5060608201516002820190610ea9908261248f565b5060808201516003820190610ebe908261248f565b509050506000610f0388888080601f01602080910402602001604051908101604052809392919081815260200183838082843760009201919091525061103792505050565b6003546040516311c741bd60e21b81529192506001600160a01b03169063471d06f490610f36908d90859060040161254e565b6020604051808303816000875af1158015610f55573d6000803e3d6000fd5b505050506040513d601f19601f82011682018060405250810190610f799190612570565b50600254600480546040516340c10f1960e01b81526001600160a01b038e81169382019390935260248101919091529116906340c10f1990604401600060405180830381600087803b158015610fce57600080fd5b505af1158015610fe2573d6000803e3d6000fd5b50505050896001600160a01b03167fa8c194a0bb99fe5563599cd2f9a5c005a12a87ad542c02dd32d07fd57c1134258a8a8a60405161102393929190612589565b60405180910390a250505050505050505050565b60608160405160200161104a91906125aa565b6040516020818303038152906040529050919050565b6001805461073190612391565b600061107881611868565b47806110c65760405162461bcd60e51b815260206004820152601260248201527f4e6f2066756e647320617661696c61626c6500000000000000000000000000006044820152606401610b4e565b6001600160a01b03831661111c5760405162461bcd60e51b815260206004820152601260248201527f526563697069656e7420726571756972656400000000000000000000000000006044820152606401610b4e565b6000836001600160a01b03168260405160006040518083038185875af1925050503d8060008114611169576040519150601f19603f3d011682016040523d82523d6000602084013e61116e565b606091505b50509050806107f65760405162461bcd60e51b815260206004820152600f60248201527f5472616e73666572206661696c656400000000000000000000000000000000006044820152606401610b4e565b60006111c9611bc6565b805490915060ff68010000000000000000820416159067ffffffffffffffff166000811580156111f65750825b905060008267ffffffffffffffff1660011480156112135750303b155b905081158015611221575080155b1561123f5760405163f92ee8a960e01b815260040160405180910390fd5b845467ffffffffffffffff19166001178555831561127357845468ff00000000000000001916680100000000000000001785555b6001600160a01b038a166112c95760405162461bcd60e51b815260206004820152600e60248201527f41646d696e2072657175697265640000000000000000000000000000000000006044820152606401610b4e565b6001600160a01b03891661131f5760405162461bcd60e51b815260206004820152600e60248201527f546f6b656e2072657175697265640000000000000000000000000000000000006044820152606401610b4e565b6001600160a01b0388166113755760405162461bcd60e51b815260206004820152601460248201527f4865616c746849444e46542072657175697265640000000000000000000000006044820152606401610b4e565b61137d611bef565b611385611bef565b61138d611bf7565b600280546001600160a01b03808c1673ffffffffffffffffffffffffffffffffffffffff199283161790925560038054928b1692909116919091179055600487905560058690556113df60008b611875565b5061140a7fedcc084d3dcd65a1f7f23c65c46722faca6953d28e43150a467cf43e5c3092388b611875565b506114357fd9fa870f425abcc65e9f66291fd387e7d8e4b1a8019d84df97822b1a0643f5858b611875565b5060408051808201909152600f81527f466c616d65426f726e456e67696e6500000000000000000000000000000000006020820152600090611477908261248f565b5060408051808201909152600681527f464c422d454e000000000000000000000000000000000000000000000000000060208201526001906114b9908261248f565b50831561150557845468ff000000000000000019168555604051600181527fc7f505b2f371ae2175ee4913f4499e1f2633a7b5936321eed1cdaeb6115181d29060200160405180910390a15b50505050505050505050565b60008281527f02dd7bc7dec4dceedda775e58dd541e08a116c6c53815c0bd028192f7b626800602052604090206001015461154b81611868565b6107f68383611944565b6008602052600090815260409020805460018201805460ff808416946101009094041692919061158490612391565b80601f01602080910402602001604051908101604052809291908181526020018280546115b090612391565b80156115fd5780601f106115d2576101008083540402835291602001916115fd565b820191906000526020600020905b8154815290600101906020018083116115e057829003601f168201915b50505050509080600201805461161290612391565b80601f016020809104026020016040519081016040528092919081815260200182805461163e90612391565b801561168b5780601f106116605761010080835404028352916020019161168b565b820191906000526020600020905b81548152906001019060200180831161166e57829003601f168201915b5050505050908060030180546116a090612391565b80601f01602080910402602001604051908101604052809291908181526020018280546116cc90612391565b80156117195780601f106116ee57610100808354040283529160200191611719565b820191906000526020600020905b8154815290600101906020018083116116fc57829003601f168201915b5050505050905085565b662386f26fc1000034101561177a5760405162461bcd60e51b815260206004820152601260248201527f446f6e6174696f6e20746f6f20736d616c6c00000000000000000000000000006044820152606401610b4e565b346006600082825461178c91906123e1565b909155505033600090815260076020526040812080543492906117b09084906123e1565b90915550506005546000906117c590346125ef565b6002546040516340c10f1960e01b8152336004820152602481018390529192506001600160a01b0316906340c10f1990604401600060405180830381600087803b15801561181257600080fd5b505af1158015611826573d6000803e3d6000fd5b505060408051348152602081018590523393507f4b0304ab2f313234b1cea012339c8f8c3bf2c8bb357d81a579cfdb35d2e3d03092500160405180910390a250565b6118728133611c07565b50565b60008281527f02dd7bc7dec4dceedda775e58dd541e08a116c6c53815c0bd028192f7b626800602081815260408084206001600160a01b038616855290915282205460ff1661193a576000848152602082815260408083206001600160a01b03871684529091529020805460ff191660011790556118f03390565b6001600160a01b0316836001600160a01b0316857f2f8788117e7eff1d82e926ec794901d17c78024a50270940304540a733656f0d60405160405180910390a4600191505061071e565b600091505061071e565b60008281527f02dd7bc7dec4dceedda775e58dd541e08a116c6c53815c0bd028192f7b626800602081815260408084206001600160a01b038616855290915282205460ff161561193a576000848152602082815260408083206001600160a01b0387168085529252808320805460ff1916905551339287917ff6391f5c32d9c69d2a47ea670b442974b53935d1edc7fd64eb21e047a839171b9190a4600191505061071e565b306001600160a01b037f0000000000000000000000000000000000000000000000000000000000000000161480611a8357507f00000000000000000000000000000000000000000000000000000000000000006001600160a01b0316611a777f360894a13ba1a3210667c828492db98dca3e2076cc3735a920a3ca505d382bbc546001600160a01b031690565b6001600160a01b031614155b15611aa15760405163703e46dd60e11b815260040160405180910390fd5b565b6000610a9f81611868565b816001600160a01b03166352d1902d6040518163ffffffff1660e01b8152600401602060405180830381865afa925050508015611b08575060408051601f3d908101601f19168201909252611b0591810190612570565b60015b611b3057604051634c9c8ce360e01b81526001600160a01b0383166004820152602401610b4e565b7f360894a13ba1a3210667c828492db98dca3e2076cc3735a920a3ca505d382bbc8114611b7357604051632a87526960e21b815260048101829052602401610b4e565b61082f8383611c7b565b306001600160a01b037f00000000000000000000000000000000000000000000000000000000000000001614611aa15760405163703e46dd60e11b815260040160405180910390fd5b6000807ff0c57e16840df040f15088dc2f81fe391c3923bec73e23a9662efc9c229c6a0061071e565b611aa1611cd1565b611bff611cd1565b611aa1611cf6565b60008281527f02dd7bc7dec4dceedda775e58dd541e08a116c6c53815c0bd028192f7b626800602090815260408083206001600160a01b038516845290915290205460ff16610a9f5760405163e2517d3f60e01b81526001600160a01b038216600482015260248101839052604401610b4e565b611c8482611d24565b6040516001600160a01b038316907fbc7cd75a20ee27fd9adebab32041f755214dbc6bffa90cc0225b39da2e5c2d3b90600090a2805115611cc95761082f8282611da8565b610a9f611e1e565b611cd9611e3d565b611aa157604051631afcd79f60e31b815260040160405180910390fd5b611cfe611cd1565b60017f9b779b17422d0df92223018b32b4d1fa46e071723d6817e2486d003becc55f0055565b806001600160a01b03163b600003611d5a57604051634c9c8ce360e01b81526001600160a01b0382166004820152602401610b4e565b7f360894a13ba1a3210667c828492db98dca3e2076cc3735a920a3ca505d382bbc805473ffffffffffffffffffffffffffffffffffffffff19166001600160a01b0392909216919091179055565b6060600080846001600160a01b031684604051611dc59190612606565b600060405180830381855af49150503d8060008114611e00576040519150601f19603f3d011682016040523d82523d6000602084013e611e05565b606091505b5091509150611e15858383611e5c565b95945050505050565b3415611aa15760405163b398979f60e01b815260040160405180910390fd5b6000611e47611bc6565b5468010000000000000000900460ff16919050565b606082611e7157611e6c82611ebb565b611eb4565b8151158015611e8857506001600160a01b0384163b155b15611eb157604051639996b31560e01b81526001600160a01b0385166004820152602401610b4e565b50805b9392505050565b805115611eca57805160208201fd5b60405163d6bda27560e01b815260040160405180910390fd5b600060208284031215611ef557600080fd5b81356001600160e01b031981168114611eb457600080fd5b60005b83811015611f28578181015183820152602001611f10565b50506000910152565b60008151808452611f49816020860160208601611f0d565b601f01601f19169290920160200192915050565b602081526000611eb46020830184611f31565b6001600160a01b038116811461187257600080fd5b600060208284031215611f9757600080fd5b8135611eb481611f70565b600060208284031215611fb457600080fd5b5035919050565b60008060408385031215611fce57600080fd5b823591506020830135611fe081611f70565b809150509250929050565b634e487b7160e01b600052602160045260246000fd5b6006811061201f57634e487b7160e01b600052602160045260246000fd5b9052565b85151581526120356020820186612001565b60a06040820152600061204b60a0830186611f31565b828103606084015261205d8186611f31565b905082810360808401526120718185611f31565b98975050505050505050565b634e487b7160e01b600052604160045260246000fd5b60008067ffffffffffffffff8411156120ae576120ae61207d565b50604051601f19601f85018116603f0116810181811067ffffffffffffffff821117156120dd576120dd61207d565b6040528381529050808284018510156120f557600080fd5b83836020830137600060208583010152509392505050565b6000806040838503121561212057600080fd5b823561212b81611f70565b9150602083013567ffffffffffffffff81111561214757600080fd5b8301601f8101851361215857600080fd5b61216785823560208401612093565b9150509250929050565b60008083601f84011261218357600080fd5b50813567ffffffffffffffff81111561219b57600080fd5b6020830191508360208285010111156121b357600080fd5b9250929050565b600080600080606085870312156121d057600080fd5b84356121db81611f70565b935060208501359250604085013567ffffffffffffffff8111156121fe57600080fd5b61220a87828801612171565b95989497509550505050565b60008060008060008060008060a0898b03121561223257600080fd5b883561223d81611f70565b975060208901356006811061225157600080fd5b9650604089013567ffffffffffffffff81111561226d57600080fd5b6122798b828c01612171565b909750955050606089013567ffffffffffffffff81111561229957600080fd5b6122a58b828c01612171565b909550935050608089013567ffffffffffffffff8111156122c557600080fd5b6122d18b828c01612171565b999c989b5096995094979396929594505050565b6000602082840312156122f757600080fd5b813567ffffffffffffffff81111561230e57600080fd5b8201601f8101841361231f57600080fd5b61232e84823560208401612093565b949350505050565b600080600080600060a0868803121561234e57600080fd5b853561235981611f70565b9450602086013561236981611f70565b9350604086013561237981611f70565b94979396509394606081013594506080013592915050565b600181811c908216806123a557607f821691505b6020821081036123c557634e487b7160e01b600052602260045260246000fd5b50919050565b634e487b7160e01b600052601160045260246000fd5b8082018082111561071e5761071e6123cb565b81835281816020850137506000828201602090810191909152601f909101601f19169091010190565b6040815260006124316040830185876123f4565b9050826020830152949350505050565b601f82111561082f57806000526020600020601f840160051c810160208510156124685750805b601f840160051c820191505b818110156124885760008155600101612474565b5050505050565b815167ffffffffffffffff8111156124a9576124a961207d565b6124bd816124b78454612391565b84612441565b6020601f8211600181146124f157600083156124d95750848201515b600019600385901b1c1916600184901b178455612488565b600084815260208120601f198516915b828110156125215787850151825560209485019460019092019101612501565b508482101561253f5786840151600019600387901b60f8161c191681555b50505050600190811b01905550565b6001600160a01b038316815260406020820152600061232e6040830184611f31565b60006020828403121561258257600080fd5b5051919050565b6125938185612001565b604060208201526000611e156040830184866123f4565b7f68747470733a2f2f6578616d706c652e636f6d2f6d657461646174612f0000008152600082516125e281601d850160208701611f0d565b91909101601d0192915050565b808202811582820484141761071e5761071e6123cb565b60008251612618818460208701611f0d565b919091019291505056fea2646970667358221220b88bddfd5e17a9840d8d9743f97158839fed5f0c023c7fc2c72210af132d550864736f6c634300081c0033",
  "linkReferences": {},
  "deployedLinkReferences": {}
}