{
  "_format": "hh-sol-artifact-1",
  "contractName": "FLBTokenMock",
  "sourceName": "contracts/FLBTokenMock.sol",
  "abi": [
    {
      "inputs": [],
      "stateMutability": "nonpayable",
      "type": "constructor"
    },
    {
      "inputs": [
        {
          "internalType": "address",
          "name": "spender",
          "type": "address"
        },
        {
          "internalType": "uint256",
          "name": "allowance",
          "type": "uint256"
        },
        {
          "internalType": "uint256",
          "name": "needed",
          "type": "uint256"
        }
      ],
      "name": "ERC20InsufficientAllowance",
      "type": "error"
    },
    {
      "inputs": [
        {
          "internalType": "address",
          "name": "sender",
          "type": "address"
        },
        {
          "internalType": "uint256",
          "name": "balance",
          "type": "uint256"
        },
        {
          "internalType": "uint256",
          "name": "needed",
          "type": "uint256"
        }
      ],
      "name": "ERC20InsufficientBalance",
      "type": "error"
    },
    {
      "inputs": [
        {
          "internalType": "address",
          "name": "approver",
          "type": "address"
        }
      ],
      "name": "ERC20InvalidApprover",
      "type": "error"
    },
    {
      "inputs": [
        {
          "internalType": "address",
          "name": "receiver",
          "type": "address"
        }
      ],
      "name": "ERC20InvalidReceiver",
      "type": "error"
    },
    {
      "inputs": [
        {
          "internalType": "address",
          "name": "sender",
          "type": "address"
        }
      ],
      "name": "ERC20InvalidSender",
      "type": "error"
    },
    {
      "inputs": [
        {
          "internalType": "address",
          "name": "spender",
          "type": "address"
        }
      ],
      "name": "ERC20InvalidSpender",
      "type": "error"
    },
    {
      "anonymous": false,
      "inputs": [
        {
          "indexed": true,
          "internalType": "address",
          "name": "owner",
          "type": "address"
        },
        {
          "indexed": true,
          "internalType": "address",
          "name": "spender",
          "type": "address"
        },
        {
          "indexed": false,
          "internalType": "uint256",
          "name": "value",
          "type": "uint256"
        }
      ],
      "name": "Approval",
      "type": "event"
    },
    {
      "anonymous": false,
      "inputs": [
        {
          "indexed": true,
          "internalType": "address",
          "name": "from",
          "type": "address"
        },
        {
          "indexed": true,
          "internalType": "address",
          "name": "to",
          "type": "address"
        },
        {
          "indexed": false,
          "internalType": "uint256",
          "name": "value",
          "type": "uint256"
        }
      ],
      "name": "Transfer",
      "type": "event"
    },
    {
      "inputs": [
        {
          "internalType": "address",
          "name": "owner",
          "type": "address"
        },
        {
          "internalType": "address",
          "name": "spender",
          "type": "address"
        }
      ],
      "name": "allowance",
      "outputs": [
        {
          "internalType": "uint256",
          "name": "",
          "type": "uint256"
        }
      ],
      "stateMutability": "view",
      "type": "function"
    },
    {
      "inputs": [
        {
          "internalType": "address",
          "name": "spender",
          "type": "address"
        },
        {
          "internalType": "uint256",
          "name": "value",
          "type": "uint256"
        }
      ],
      "name": "approve",
      "outputs": [
        {
          "internalType": "bool",
          "name": "",
          "type": "bool"
        }
      ],
      "stateMutability": "nonpayable",
      "type": "function"
    },
    {
      "inputs": [
        {
          "internalType": "address",
          "name": "account",
          "type": "address"
        }
      ],
      "name": "balanceOf",
      "outputs": [
        {
          "internalType": "uint256",
          "name": "",
          "type": "uint256"
        }
      ],
      "stateMutability": "view",
      "type": "function"
    },
    {
      "inputs": [
        {
          "internalType": "address",
          "name": "from",
          "type": "address"
        },
        {
          "internalType": "uint256",
          "name": "amount",
          "type": "uint256"
        }
      ],
      "name": "burn",
      "outputs": [],
      "stateMutability": "nonpayable",
      "type": "function"
    },
    {
      "inputs": [],
      "name": "decimals",
      "outputs": [
        {
          "internalType": "uint8",
          "name": "",
          "type": "uint8"
        }
      ],
      "stateMutability": "view",
      "type": "function"
    },
    {
      "inputs": [
        {
          "internalType": "address",
          "name": "to",
          "type": "address"
        },
        {
          "internalType": "uint256",
          "name": "amount",
          "type": "uint256"
        }
      ],
      "name": "mint",
      "outputs": [],
      "stateMutability": "nonpayable",
      "type": "function"
    },
    {
      "inputs": [],
      "name": "minter",
      "outputs": [
        {
          "internalType": "address",
          "name": "",
          "type": "address"
        }
      ],
      "stateMutability": "view",
      "type": "function"
    },
    {
      "inputs": [],
      "name": "name",
      "outputs": [
        {
          "internalType": "string",
          "name": "",
          "type": "string"
        }
      ],
      "stateMutability": "view",
      "type": "function"
    },
    {
      "inputs": [
        {
          "internalType": "address",
          "name": "_minter",
          "type": "address"
        }
      ],
      "name": "setMinter",
      "outputs": [],
      "stateMutability": "nonpayable",
      "type": "function"
    },
    {
      "inputs": [],
      "name": "symbol",
      "outputs": [
        {
          "internalType": "string",
          "name": "",
          "type": "string"
        }
      ],
      "stateMutability": "view",
      "type": "function"
    },
    {
      "inputs": [],
      "name": "totalSupply",
      "outputs": [
        {
          "internalType": "uint256",
          "name": "",
          "type": "uint256"
        }
      ],
      "stateMutability": "view",
      "type": "function"
    },
    {
      "inputs": [
        {
          "internalType": "address",
          "name": "to",
          "type": "address"
        },
        {
          "internalType": "uint256",
          "name": "value",
          "type": "uint256"
        }
      ],
      "name": "transfer",
      "outputs": [
        {
          "internalType": "bool",
          "name": "",
          "type": "bool"
        }
      ],
      "stateMutability": "nonpayable",
      "type": "function"
    },
    {
      "inputs": [
        {
          "internalType": "address",
          "name": "from",
          "type": "address"
        },
        {
          "internalType": "address",
          "name": "to",
          "type": "address"
        },
        {
          "internalType": "uint256",
          "name": "value",
          "type": "uint256"
        }
      ],
      "name": "transferFrom",
      "outputs": [
        {
          "internalType": "bool",
          "name": "",
          "type": "bool"
        }
      ],
      "stateMutability": "nonpayable",
      "type": "function"
    }
  ],
  "bytecode": "0x608060405234801561001057600080fd5b506040518060400160405280600f81526020016e233630b6b2a137b937102a37b5b2b760891b8152506040518060400160405280600381526020016223262160e91b81525081600390816100649190610118565b5060046100718282610118565b5050506101d6565b634e487b7160e01b600052604160045260246000fd5b600181811c908216806100a357607f821691505b6020821081036100c357634e487b7160e01b600052602260045260246000fd5b50919050565b601f82111561011357806000526020600020601f840160051c810160208510156100f05750805b601f840160051c820191505b8181101561011057600081556001016100fc565b50505b505050565b81516001600160401b0381111561013157610131610079565b6101458161013f845461008f565b846100c9565b6020601f82116001811461017957600083156101615750848201515b600019600385901b1c1916600184901b178455610110565b600084815260208120601f198516915b828110156101a95787850151825560209485019460019092019101610189565b50848210156101c75786840151600019600387901b60f8161c191681555b50505050600190811b01905550565b6108e7806101e56000396000f3fe608060405234801561001057600080fd5b50600436106100df5760003560e01c806340c10f191161008c5780639dc29fac116100665780639dc29fac146101ca578063a9059cbb146101dd578063dd62ed3e146101f0578063fca3b5aa1461022957600080fd5b806340c10f191461018457806370a082311461019957806395d89b41146101c257600080fd5b806318160ddd116100bd57806318160ddd1461015057806323b872dd14610162578063313ce5671461017557600080fd5b806306fdde03146100e45780630754617214610102578063095ea7b31461012d575b600080fd5b6100ec610271565b6040516100f99190610730565b60405180910390f35b600554610115906001600160a01b031681565b6040516001600160a01b0390911681526020016100f9565b61014061013b36600461079a565b610303565b60405190151581526020016100f9565b6002545b6040519081526020016100f9565b6101406101703660046107c4565b61031d565b604051601281526020016100f9565b61019761019236600461079a565b610341565b005b6101546101a7366004610801565b6001600160a01b031660009081526020819052604090205490565b6100ec6103ae565b6101976101d836600461079a565b6103bd565b6101406101eb36600461079a565b6103c7565b6101546101fe366004610823565b6001600160a01b03918216600090815260016020908152604080832093909416825291909152205490565b610197610237366004610801565b600580547fffffffffffffffffffffffff0000000000000000000000000000000000000000166001600160a01b0392909216919091179055565b60606003805461028090610856565b80601f01602080910402602001604051908101604052809291908181526020018280546102ac90610856565b80156102f95780601f106102ce576101008083540402835291602001916102f9565b820191906000526020600020905b8154815290600101906020018083116102dc57829003601f168201915b5050505050905090565b6000336103118185856103d5565b60019150505b92915050565b60003361032b8582856103e7565b610336858585610466565b506001949350505050565b6005546001600160a01b031633146103a05760405162461bcd60e51b815260206004820152600b60248201527f4f6e6c79206d696e74657200000000000000000000000000000000000000000060448201526064015b60405180910390fd5b6103aa82826104c5565b5050565b60606004805461028090610856565b6103aa82826104fb565b600033610311818585610466565b6103e28383836001610531565b505050565b6001600160a01b03838116600090815260016020908152604080832093861683529290522054600019811015610460578181101561045157604051637dc7a0d960e11b81526001600160a01b03841660048201526024810182905260448101839052606401610397565b61046084848484036000610531565b50505050565b6001600160a01b03831661049057604051634b637e8f60e11b815260006004820152602401610397565b6001600160a01b0382166104ba5760405163ec442f0560e01b815260006004820152602401610397565b6103e2838383610606565b6001600160a01b0382166104ef5760405163ec442f0560e01b815260006004820152602401610397565b6103aa60008383610606565b6001600160a01b03821661052557604051634b637e8f60e11b815260006004820152602401610397565b6103aa82600083610606565b6001600160a01b03841661055b5760405163e602df0560e01b815260006004820152602401610397565b6001600160a01b03831661058557604051634a1406b160e11b815260006004820152602401610397565b6001600160a01b038085166000908152600160209081526040808320938716835292905220829055801561046057826001600160a01b0316846001600160a01b03167f8c5be1e5ebec7d5bd14f71427d1e84f3dd0314c0f7b2291e5b200ac8c7c3b925846040516105f891815260200190565b60405180910390a350505050565b6001600160a01b0383166106315780600260008282546106269190610890565b909155506106a39050565b6001600160a01b038316600090815260208190526040902054818110156106845760405163391434e360e21b81526001600160a01b03851660048201526024810182905260448101839052606401610397565b6001600160a01b03841660009081526020819052604090209082900390555b6001600160a01b0382166106bf576002805482900390556106de565b6001600160a01b03821660009081526020819052604090208054820190555b816001600160a01b0316836001600160a01b03167fddf252ad1be2c89b69c2b068fc378daa952ba7f163c4a11628f55a4df523b3ef8360405161072391815260200190565b60405180910390a3505050565b602081526000825180602084015260005b8181101561075e5760208186018101516040868401015201610741565b506000604082850101526040601f19601f83011684010191505092915050565b80356001600160a01b038116811461079557600080fd5b919050565b600080604083850312156107ad57600080fd5b6107b68361077e565b946020939093013593505050565b6000806000606084860312156107d957600080fd5b6107e28461077e565b92506107f06020850161077e565b929592945050506040919091013590565b60006020828403121561081357600080fd5b61081c8261077e565b9392505050565b6000806040838503121561083657600080fd5b61083f8361077e565b915061084d6020840161077e565b90509250929050565b600181811c9082168061086a57607f821691505b60208210810361088a57634e487b7160e01b600052602260045260246000fd5b50919050565b8082018082111561031757634e487b7160e01b600052601160045260246000fdfea2646970667358221220677190943595d4e6d02d855a270b7be56cbed220a4a9544f73701ad225f3534264736f6c634300081c0033",
  "linkReferences": {},
  "deployedLinkReferences": {}
}