{
  "_format": "hh-sol-artifact-1",
  "contractName": "FlameBornHealthIDNFT",
  "sourceName": "contracts/FlameBornHealthIDNFT.sol",
  "abi": [
    {
      "inputs": [
        {
          "internalType": "address",
          "name": "admin",
          "type": "address"
        }
      ],
      "stateMutability": "nonpayable",
      "type": "constructor"
    },
    {
      "inputs": [],
      "name": "AccessControlBadConfirmation",
      "type": "error"
    },
    {
      "inputs": [
        {
          "internalType": "address",
          "name": "account",
          "type": "address"
        },
        {
          "internalType": "bytes32",
          "name": "neededRole",
          "type": "bytes32"
        }
      ],
      "name": "AccessControlUnauthorizedAccount",
      "type": "error"
    },
    {
      "inputs": [],
      "name": "AdminRequired",
      "type": "error"
    },
    {
      "inputs": [
        {
          "internalType": "address",
          "name": "sender",
          "type": "address"
        },
        {
          "internalType": "uint256",
          "name": "tokenId",
          "type": "uint256"
        },
        {
          "internalType": "address",
          "name": "owner",
          "type": "address"
        }
      ],
      "name": "ERC721IncorrectOwner",
      "type": "error"
    },
    {
      "inputs": [
        {
          "internalType": "address",
          "name": "operator",
          "type": "address"
        },
        {
          "internalType": "uint256",
          "name": "tokenId",
          "type": "uint256"
        }
      ],
      "name": "ERC721InsufficientApproval",
      "type": "error"
    },
    {
      "inputs": [
        {
          "internalType": "address",
          "name": "approver",
          "type": "address"
        }
      ],
      "name": "ERC721InvalidApprover",
      "type": "error"
    },
    {
      "inputs": [
        {
          "internalType": "address",
          "name": "operator",
          "type": "address"
        }
      ],
      "name": "ERC721InvalidOperator",
      "type": "error"
    },
    {
      "inputs": [
        {
          "internalType": "address",
          "name": "owner",
          "type": "address"
        }
      ],
      "name": "ERC721InvalidOwner",
      "type": "error"
    },
    {
      "inputs": [
        {
          "internalType": "address",
          "name": "receiver",
          "type": "address"
        }
      ],
      "name": "ERC721InvalidReceiver",
      "type": "error"
    },
    {
      "inputs": [
        {
          "internalType": "address",
          "name": "sender",
          "type": "address"
        }
      ],
      "name": "ERC721InvalidSender",
      "type": "error"
    },
    {
      "inputs": [
        {
          "internalType": "uint256",
          "name": "tokenId",
          "type": "uint256"
        }
      ],
      "name": "ERC721NonexistentToken",
      "type": "error"
    },
    {
      "inputs": [],
      "name": "InvalidTokenId",
      "type": "error"
    },
    {
      "inputs": [],
      "name": "SoulboundApprovalNotAllowed",
      "type": "error"
    },
    {
      "inputs": [],
      "name": "SoulboundSetApprovalForAllNotAllowed",
      "type": "error"
    },
    {
      "inputs": [],
      "name": "SoulboundTransferNotAllowed",
      "type": "error"
    },
    {
      "inputs": [],
      "name": "ZeroAddress",
      "type": "error"
    },
    {
      "anonymous": false,
      "inputs": [
        {
          "indexed": true,
          "internalType": "address",
          "name": "owner",
          "type": "address"
        },
        {
          "indexed": true,
          "internalType": "address",
          "name": "approved",
          "type": "address"
        },
        {
          "indexed": true,
          "internalType": "uint256",
          "name": "tokenId",
          "type": "uint256"
        }
      ],
      "name": "Approval",
      "type": "event"
    },
    {
      "anonymous": false,
      "inputs": [
        {
          "indexed": true,
          "internalType": "address",
          "name": "owner",
          "type": "address"
        },
        {
          "indexed": true,
          "internalType": "address",
          "name": "operator",
          "type": "address"
        },
        {
          "indexed": false,
          "internalType": "bool",
          "name": "approved",
          "type": "bool"
        }
      ],
      "name": "ApprovalForAll",
      "type": "event"
    },
    {
      "anonymous": false,
      "inputs": [
        {
          "indexed": false,
          "internalType": "uint256",
          "name": "_fromTokenId",
          "type": "uint256"
        },
        {
          "indexed": false,
          "internalType": "uint256",
          "name": "_toTokenId",
          "type": "uint256"
        }
      ],
      "name": "BatchMetadataUpdate",
      "type": "event"
    },
    {
      "anonymous": false,
      "inputs": [
        {
          "indexed": true,
          "internalType": "uint256",
          "name": "tokenId",
          "type": "uint256"
        },
        {
          "indexed": false,
          "internalType": "string",
          "name": "newMetadataURI",
          "type": "string"
        }
      ],
      "name": "FlameBornHealthIDNFTMetadataUpdated",
      "type": "event"
    },
    {
      "anonymous": false,
      "inputs": [
        {
          "indexed": true,
          "internalType": "address",
          "name": "to",
          "type": "address"
        },
        {
          "indexed": true,
          "internalType": "uint256",
          "name": "tokenId",
          "type": "uint256"
        },
        {
          "indexed": false,
          "internalType": "string",
          "name": "metadataURI",
          "type": "string"
        }
      ],
      "name": "FlameBornHealthIDNFTMinted",
      "type": "event"
    },
    {
      "anonymous": false,
      "inputs": [
        {
          "indexed": false,
          "internalType": "uint256",
          "name": "_tokenId",
          "type": "uint256"
        }
      ],
      "name": "MetadataUpdate",
      "type": "event"
    },
    {
      "anonymous": false,
      "inputs": [
        {
          "indexed": true,
          "internalType": "bytes32",
          "name": "role",
          "type": "bytes32"
        },
        {
          "indexed": true,
          "internalType": "bytes32",
          "name": "previousAdminRole",
          "type": "bytes32"
        },
        {
          "indexed": true,
          "internalType": "bytes32",
          "name": "newAdminRole",
          "type": "bytes32"
        }
      ],
      "name": "RoleAdminChanged",
      "type": "event"
    },
    {
      "anonymous": false,
      "inputs": [
        {
          "indexed": true,
          "internalType": "bytes32",
          "name": "role",
          "type": "bytes32"
        },
        {
          "indexed": true,
          "internalType": "address",
          "name": "account",
          "type": "address"
        },
        {
          "indexed": true,
          "internalType": "address",
          "name": "sender",
          "type": "address"
        }
      ],
      "name": "RoleGranted",
      "type": "event"
    },
    {
      "anonymous": false,
      "inputs": [
        {
          "indexed": true,
          "internalType": "bytes32",
          "name": "role",
          "type": "bytes32"
        },
        {
          "indexed": true,
          "internalType": "address",
          "name": "account",
          "type": "address"
        },
        {
          "indexed": true,
          "internalType": "address",
          "name": "sender",
          "type": "address"
        }
      ],
      "name": "RoleRevoked",
      "type": "event"
    },
    {
      "anonymous": false,
      "inputs": [
        {
          "indexed": true,
          "internalType": "address",
          "name": "from",
          "type": "address"
        },
        {
          "indexed": true,
          "internalType": "address",
          "name": "to",
          "type": "address"
        },
        {
          "indexed": true,
          "internalType": "uint256",
          "name": "tokenId",
          "type": "uint256"
        }
      ],
      "name": "Transfer",
      "type": "event"
    },
    {
      "inputs": [],
      "name": "DEFAULT_ADMIN_ROLE",
      "outputs": [
        {
          "internalType": "bytes32",
          "name": "",
          "type": "bytes32"
        }
      ],
      "stateMutability": "view",
      "type": "function"
    },
    {
      "inputs": [],
      "name": "MINTER_ROLE",
      "outputs": [
        {
          "internalType": "bytes32",
          "name": "",
          "type": "bytes32"
        }
      ],
      "stateMutability": "view",
      "type": "function"
    },
    {
      "inputs": [],
      "name": "MULTISIG_ROLE",
      "outputs": [
        {
          "internalType": "bytes32",
          "name": "",
          "type": "bytes32"
        }
      ],
      "stateMutability": "view",
      "type": "function"
    },
    {
      "inputs": [
        {
          "internalType": "address",
          "name": "to",
          "type": "address"
        },
        {
          "internalType": "uint256",
          "name": "tokenId",
          "type": "uint256"
        }
      ],
      "name": "approve",
      "outputs": [],
      "stateMutability": "nonpayable",
      "type": "function"
    },
    {
      "inputs": [
        {
          "internalType": "address",
          "name": "owner",
          "type": "address"
        }
      ],
      "name": "balanceOf",
      "outputs": [
        {
          "internalType": "uint256",
          "name": "",
          "type": "uint256"
        }
      ],
      "stateMutability": "view",
      "type": "function"
    },
    {
      "inputs": [
        {
          "internalType": "uint256",
          "name": "tokenId",
          "type": "uint256"
        }
      ],
      "name": "getApproved",
      "outputs": [
        {
          "internalType": "address",
          "name": "",
          "type": "address"
        }
      ],
      "stateMutability": "view",
      "type": "function"
    },
    {
      "inputs": [],
      "name": "getCurrentTokenId",
      "outputs": [
        {
          "internalType": "uint256",
          "name": "",
          "type": "uint256"
        }
      ],
      "stateMutability": "view",
      "type": "function"
    },
    {
      "inputs": [
        {
          "internalType": "bytes32",
          "name": "role",
          "type": "bytes32"
        }
      ],
      "name": "getRoleAdmin",
      "outputs": [
        {
          "internalType": "bytes32",
          "name": "",
          "type": "bytes32"
        }
      ],
      "stateMutability": "view",
      "type": "function"
    },
    {
      "inputs": [
        {
          "internalType": "bytes32",
          "name": "role",
          "type": "bytes32"
        },
        {
          "internalType": "address",
          "name": "account",
          "type": "address"
        }
      ],
      "name": "grantRole",
      "outputs": [],
      "stateMutability": "nonpayable",
      "type": "function"
    },
    {
      "inputs": [
        {
          "internalType": "bytes32",
          "name": "role",
          "type": "bytes32"
        },
        {
          "internalType": "address",
          "name": "account",
          "type": "address"
        }
      ],
      "name": "hasRole",
      "outputs": [
        {
          "internalType": "bool",
          "name": "",
          "type": "bool"
        }
      ],
      "stateMutability": "view",
      "type": "function"
    },
    {
      "inputs": [
        {
          "internalType": "address",
          "name": "owner",
          "type": "address"
        },
        {
          "internalType": "address",
          "name": "operator",
          "type": "address"
        }
      ],
      "name": "isApprovedForAll",
      "outputs": [
        {
          "internalType": "bool",
          "name": "",
          "type": "bool"
        }
      ],
      "stateMutability": "view",
      "type": "function"
    },
    {
      "inputs": [
        {
          "internalType": "address",
          "name": "to",
          "type": "address"
        }
      ],
      "name": "mint",
      "outputs": [
        {
          "internalType": "uint256",
          "name": "",
          "type": "uint256"
        }
      ],
      "stateMutability": "nonpayable",
      "type": "function"
    },
    {
      "inputs": [
        {
          "internalType": "address",
          "name": "to",
          "type": "address"
        },
        {
          "internalType": "string",
          "name": "metadataURI",
          "type": "string"
        }
      ],
      "name": "mintWithMetadata",
      "outputs": [
        {
          "internalType": "uint256",
          "name": "",
          "type": "uint256"
        }
      ],
      "stateMutability": "nonpayable",
      "type": "function"
    },
    {
      "inputs": [],
      "name": "name",
      "outputs": [
        {
          "internalType": "string",
          "name": "",
          "type": "string"
        }
      ],
      "stateMutability": "view",
      "type": "function"
    },
    {
      "inputs": [
        {
          "internalType": "uint256",
          "name": "tokenId",
          "type": "uint256"
        }
      ],
      "name": "ownerOf",
      "outputs": [
        {
          "internalType": "address",
          "name": "",
          "type": "address"
        }
      ],
      "stateMutability": "view",
      "type": "function"
    },
    {
      "inputs": [
        {
          "internalType": "bytes32",
          "name": "role",
          "type": "bytes32"
        },
        {
          "internalType": "address",
          "name": "callerConfirmation",
          "type": "address"
        }
      ],
      "name": "renounceRole",
      "outputs": [],
      "stateMutability": "nonpayable",
      "type": "function"
    },
    {
      "inputs": [
        {
          "internalType": "bytes32",
          "name": "role",
          "type": "bytes32"
        },
        {
          "internalType": "address",
          "name": "account",
          "type": "address"
        }
      ],
      "name": "revokeRole",
      "outputs": [],
      "stateMutability": "nonpayable",
      "type": "function"
    },
    {
      "inputs": [
        {
          "internalType": "address",
          "name": "from",
          "type": "address"
        },
        {
          "internalType": "address",
          "name": "to",
          "type": "address"
        },
        {
          "internalType": "uint256",
          "name": "tokenId",
          "type": "uint256"
        }
      ],
      "name": "safeTransferFrom",
      "outputs": [],
      "stateMutability": "nonpayable",
      "type": "function"
    },
    {
      "inputs": [
        {
          "internalType": "address",
          "name": "from",
          "type": "address"
        },
        {
          "internalType": "address",
          "name": "to",
          "type": "address"
        },
        {
          "internalType": "uint256",
          "name": "tokenId",
          "type": "uint256"
        },
        {
          "internalType": "bytes",
          "name": "data",
          "type": "bytes"
        }
      ],
      "name": "safeTransferFrom",
      "outputs": [],
      "stateMutability": "nonpayable",
      "type": "function"
    },
    {
      "inputs": [
        {
          "internalType": "address",
          "name": "operator",
          "type": "address"
        },
        {
          "internalType": "bool",
          "name": "approved",
          "type": "bool"
        }
      ],
      "name": "setApprovalForAll",
      "outputs": [],
      "stateMutability": "nonpayable",
      "type": "function"
    },
    {
      "inputs": [
        {
          "internalType": "bytes4",
          "name": "interfaceId",
          "type": "bytes4"
        }
      ],
      "name": "supportsInterface",
      "outputs": [
        {
          "internalType": "bool",
          "name": "",
          "type": "bool"
        }
      ],
      "stateMutability": "view",
      "type": "function"
    },
    {
      "inputs": [],
      "name": "symbol",
      "outputs": [
        {
          "internalType": "string",
          "name": "",
          "type": "string"
        }
      ],
      "stateMutability": "view",
      "type": "function"
    },
    {
      "inputs": [
        {
          "internalType": "uint256",
          "name": "tokenId",
          "type": "uint256"
        }
      ],
      "name": "tokenURI",
      "outputs": [
        {
          "internalType": "string",
          "name": "",
          "type": "string"
        }
      ],
      "stateMutability": "view",
      "type": "function"
    },
    {
      "inputs": [],
      "name": "totalSupply",
      "outputs": [
        {
          "internalType": "uint256",
          "name": "",
          "type": "uint256"
        }
      ],
      "stateMutability": "view",
      "type": "function"
    },
    {
      "inputs": [
        {
          "internalType": "address",
          "name": "from",
          "type": "address"
        },
        {
          "internalType": "address",
          "name": "to",
          "type": "address"
        },
        {
          "internalType": "uint256",
          "name": "tokenId",
          "type": "uint256"
        }
      ],
      "name": "transferFrom",
      "outputs": [],
      "stateMutability": "nonpayable",
      "type": "function"
    },
    {
      "inputs": [
        {
          "internalType": "uint256",
          "name": "tokenId",
          "type": "uint256"
        },
        {
          "internalType": "string",
          "name": "metadataURI",
          "type": "string"
        }
      ],
      "name": "updateMetadata",
      "outputs": [],
      "stateMutability": "nonpayable",
      "type": "function"
    }
  ],
  "bytecode": "0x608060405234801561001057600080fd5b50604051611ce8380380611ce883398101604081905261002f916101e9565b6040518060400160405280601481526020017f466c616d65426f726e4865616c746849444e4654000000000000000000000000815250604051806040016040528060088152602001671193108b5213919560c21b815250816000908161009591906102b8565b5060016100a282826102b8565b5050506001600160a01b0381166100cc57604051634968a64f60e11b815260040160405180910390fd5b6100d7600082610139565b506101027f9f2df0fed2c77648de5860a4cc508cd0818c85b8b8a1ab4ceeef8d981c8956a682610139565b5061012d7fa5a0b70b385ff7611cd3840916bd08b10829e5bf9e6637cf79dd9a427fc0e2ab33610139565b50506001600855610376565b60008281526007602090815260408083206001600160a01b038516845290915281205460ff166101df5760008381526007602090815260408083206001600160a01b03861684529091529020805460ff191660011790556101973390565b6001600160a01b0316826001600160a01b0316847f2f8788117e7eff1d82e926ec794901d17c78024a50270940304540a733656f0d60405160405180910390a45060016101e3565b5060005b92915050565b6000602082840312156101fb57600080fd5b81516001600160a01b038116811461021257600080fd5b9392505050565b634e487b7160e01b600052604160045260246000fd5b600181811c9082168061024357607f821691505b60208210810361026357634e487b7160e01b600052602260045260246000fd5b50919050565b601f8211156102b357806000526020600020601f840160051c810160208510156102905750805b601f840160051c820191505b818110156102b0576000815560010161029c565b50505b505050565b81516001600160401b038111156102d1576102d1610219565b6102e5816102df845461022f565b84610269565b6020601f82116001811461031957600083156103015750848201515b600019600385901b1c1916600184901b1784556102b0565b600084815260208120601f198516915b828110156103495787850151825560209485019460019092019101610329565b50848210156103675786840151600019600387901b60f8161c191681555b50505050600190811b01905550565b611963806103856000396000f3fe608060405234801561001057600080fd5b506004361061018e5760003560e01c80636352211e116100de578063a22cb46511610097578063d539139311610071578063d539139314610358578063d547741f1461037f578063e328400c14610392578063e985e9c5146103b957600080fd5b8063a22cb4651461031f578063b88d4fde14610332578063c87b56dd1461034557600080fd5b80636352211e146102c35780636a627842146102d657806370a08231146102e957806391d14854146102fc57806395d89b411461030f578063a217fddf1461031757600080fd5b8063248a9ca31161014b57806342842e0e1161012557806342842e0e14610282578063471d06f41461029557806353c8388e146102a857806356189236146102bb57600080fd5b8063248a9ca3146102395780632f2ff15d1461025c57806336568abe1461026f57600080fd5b806301ffc9a71461019357806306fdde03146101bb578063081812fc146101d0578063095ea7b3146101fb57806318160ddd1461021057806323b872dd14610226575b600080fd5b6101a66101a13660046113b4565b6103cc565b60405190151581526020015b60405180910390f35b6101c36103dd565b6040516101b29190611421565b6101e36101de366004611434565b61046f565b6040516001600160a01b0390911681526020016101b2565b61020e610209366004611469565b610498565b005b6102186104a7565b6040519081526020016101b2565b61020e610234366004611493565b6104bd565b610218610247366004611434565b60009081526007602052604090206001015490565b61020e61026a3660046114d0565b61054d565b61020e61027d3660046114d0565b610572565b61020e610290366004611493565b6105aa565b6102186102a33660046115ac565b6105c5565b61020e6102b63660046115fa565b61068d565b600854610218565b6101e36102d1366004611434565b610714565b6102186102e436600461162b565b61071f565b6102186102f736600461162b565b6107e8565b6101a661030a3660046114d0565b610830565b6101c361085b565b610218600081565b61020e61032d366004611646565b61086a565b61020e610340366004611682565b610875565b6101c3610353366004611434565b61088d565b6102187f9f2df0fed2c77648de5860a4cc508cd0818c85b8b8a1ab4ceeef8d981c8956a681565b61020e61038d3660046114d0565b61099e565b6102187fa5a0b70b385ff7611cd3840916bd08b10829e5bf9e6637cf79dd9a427fc0e2ab81565b6101a66103c73660046116fe565b6109c3565b60006103d7826109f1565b92915050565b6060600080546103ec90611728565b80601f016020809104026020016040519081016040528092919081815260200182805461041890611728565b80156104655780601f1061043a57610100808354040283529160200191610465565b820191906000526020600020905b81548152906001019060200180831161044857829003601f168201915b5050505050905090565b600061047a82610a16565b506000828152600460205260409020546001600160a01b03166103d7565b6104a3828233610a4f565b5050565b600060016008546104b89190611772565b905090565b6001600160a01b0382166104ec57604051633250574960e11b8152600060048201526024015b60405180910390fd5b60006104f9838333610a5c565b9050836001600160a01b0316816001600160a01b031614610547576040516364283d7b60e01b81526001600160a01b03808616600483015260248201849052821660448201526064016104e3565b50505050565b60008281526007602052604090206001015461056881610abd565b6105478383610aca565b6001600160a01b038116331461059b5760405163334bd91960e11b815260040160405180910390fd5b6105a58282610b5e565b505050565b6105a583838360405180602001604052806000815250610875565b60007f9f2df0fed2c77648de5860a4cc508cd0818c85b8b8a1ab4ceeef8d981c8956a66105f181610abd565b6001600160a01b0384166106185760405163d92e233d60e01b815260040160405180910390fd5b60088054908190600061062a83611785565b91905055506106398582610bcb565b6106438185610c30565b80856001600160a01b03167ff97c9ae902deeb0ef2bf081b2ba9434c130e396356d43d7aa0a689577068d94f8660405161067d9190611421565b60405180910390a3949350505050565b600061069881610abd565b6000838152600260205260409020546001600160a01b03166106cd576040516307ed98ed60e31b815260040160405180910390fd5b6106d78383610c30565b827f40cd1a581b6c5f35321c40216d6838f1f771ea0372288fb845650d045622751d836040516107079190611421565b60405180910390a2505050565b60006103d782610a16565b60007f9f2df0fed2c77648de5860a4cc508cd0818c85b8b8a1ab4ceeef8d981c8956a661074b81610abd565b6001600160a01b0383166107725760405163d92e233d60e01b815260040160405180910390fd5b60088054908190600061078483611785565b91905055506107938482610bcb565b80846001600160a01b03167ff97c9ae902deeb0ef2bf081b2ba9434c130e396356d43d7aa0a689577068d94f6040516107d790602080825260009082015260400190565b60405180910390a391505b50919050565b60006001600160a01b038216610814576040516322718ad960e21b8152600060048201526024016104e3565b506001600160a01b031660009081526003602052604090205490565b60009182526007602090815260408084206001600160a01b0393909316845291905290205460ff1690565b6060600180546103ec90611728565b6104a3338383610c80565b6108808484846104bd565b6105473385858585610d1f565b606061089882610a16565b50600082815260066020526040812080546108b290611728565b80601f01602080910402602001604051908101604052809291908181526020018280546108de90611728565b801561092b5780601f106109005761010080835404028352916020019161092b565b820191906000526020600020905b81548152906001019060200180831161090e57829003601f168201915b50505050509050600061094960408051602081019091526000815290565b9050805160000361095b575092915050565b81511561098d57808260405160200161097592919061179e565b60405160208183030381529060405292505050919050565b61099684610e4a565b949350505050565b6000828152600760205260409020600101546109b981610abd565b6105478383610b5e565b6001600160a01b03918216600090815260056020908152604080832093909416825291909152205460ff1690565b60006001600160e01b03198216637965db0b60e01b14806103d757506103d782610ebf565b6000818152600260205260408120546001600160a01b0316806103d757604051637e27328960e01b8152600481018490526024016104e3565b6105a58383836001610ee4565b6000828152600260205260408120546001600160a01b03168015801590610a8b57506001600160a01b03851615155b15610aa957604051630d18115360e11b815260040160405180910390fd5b610ab4858585610fea565b95945050505050565b610ac781336110e3565b50565b6000610ad68383610830565b610b565760008381526007602090815260408083206001600160a01b03861684529091529020805460ff19166001179055610b0e3390565b6001600160a01b0316826001600160a01b0316847f2f8788117e7eff1d82e926ec794901d17c78024a50270940304540a733656f0d60405160405180910390a45060016103d7565b5060006103d7565b6000610b6a8383610830565b15610b565760008381526007602090815260408083206001600160a01b0386168085529252808320805460ff1916905551339286917ff6391f5c32d9c69d2a47ea670b442974b53935d1edc7fd64eb21e047a839171b9190a45060016103d7565b6001600160a01b038216610bf557604051633250574960e11b8152600060048201526024016104e3565b6000610c0383836000610a5c565b90506001600160a01b038116156105a5576040516339e3563760e11b8152600060048201526024016104e3565b6000828152600660205260409020610c488282611814565b506040518281527ff8e1a15aba9398e019f0b49df1a4fde98ee17ae345cb5f6b5e2c27f5033e8ce79060200160405180910390a15050565b6001600160a01b038216610cb257604051630b61174360e31b81526001600160a01b03831660048201526024016104e3565b6001600160a01b03838116600081815260056020908152604080832094871680845294825291829020805460ff191686151590811790915591519182527f17307eab39ab6107e8899845ad3d59bd9653f200f220920489ca2b5937696c31910160405180910390a3505050565b6001600160a01b0383163b15610e4357604051630a85bd0160e11b81526001600160a01b0384169063150b7a0290610d619088908890879087906004016118d3565b6020604051808303816000875af1925050508015610d9c575060408051601f3d908101601f19168201909252610d9991810190611910565b60015b610e05573d808015610dca576040519150601f19603f3d011682016040523d82523d6000602084013e610dcf565b606091505b508051600003610dfd57604051633250574960e11b81526001600160a01b03851660048201526024016104e3565b805160208201fd5b6001600160e01b03198116630a85bd0160e11b14610e4157604051633250574960e11b81526001600160a01b03851660048201526024016104e3565b505b5050505050565b6060610e5582610a16565b506000610e6d60408051602081019091526000815290565b90506000815111610e8d5760405180602001604052806000815250610eb8565b80610e978461111c565b604051602001610ea892919061179e565b6040516020818303038152906040525b9392505050565b60006001600160e01b03198216632483248360e11b14806103d757506103d7826111af565b8080610ef857506001600160a01b03821615155b15610fba576000610f0884610a16565b90506001600160a01b03831615801590610f345750826001600160a01b0316816001600160a01b031614155b8015610f475750610f4581846109c3565b155b15610f705760405163a9fbf51f60e01b81526001600160a01b03841660048201526024016104e3565b8115610fb85783856001600160a01b0316826001600160a01b03167f8c5be1e5ebec7d5bd14f71427d1e84f3dd0314c0f7b2291e5b200ac8c7c3b92560405160405180910390a45b505b5050600090815260046020526040902080546001600160a01b0319166001600160a01b0392909216919091179055565b6000828152600260205260408120546001600160a01b0390811690831615611017576110178184866111ff565b6001600160a01b0381161561105557611034600085600080610ee4565b6001600160a01b038116600090815260036020526040902080546000190190555b6001600160a01b03851615611084576001600160a01b0385166000908152600360205260409020805460010190555b60008481526002602052604080822080546001600160a01b0319166001600160a01b0389811691821790925591518793918516917fddf252ad1be2c89b69c2b068fc378daa952ba7f163c4a11628f55a4df523b3ef91a4949350505050565b6110ed8282610830565b6104a35760405163e2517d3f60e01b81526001600160a01b0382166004820152602481018390526044016104e3565b6060600061112983611263565b600101905060008167ffffffffffffffff811115611149576111496114fc565b6040519080825280601f01601f191660200182016040528015611173576020820181803683370190505b5090508181016020015b600019016f181899199a1a9b1b9c1cb0b131b232b360811b600a86061a8153600a850494508461117d57509392505050565b60006001600160e01b031982166380ac58cd60e01b14806111e057506001600160e01b03198216635b5e139f60e01b145b806103d757506301ffc9a760e01b6001600160e01b03198316146103d7565b61120a83838361133b565b6105a5576001600160a01b03831661123857604051637e27328960e01b8152600481018290526024016104e3565b60405163177e802f60e01b81526001600160a01b0383166004820152602481018290526044016104e3565b60008072184f03e93ff9f4daa797ed6e38ed64bf6a1f0160401b83106112a25772184f03e93ff9f4daa797ed6e38ed64bf6a1f0160401b830492506040015b6d04ee2d6d415b85acef810000000083106112ce576d04ee2d6d415b85acef8100000000830492506020015b662386f26fc1000083106112ec57662386f26fc10000830492506010015b6305f5e1008310611304576305f5e100830492506008015b612710831061131857612710830492506004015b6064831061132a576064830492506002015b600a83106103d75760010192915050565b60006001600160a01b038316158015906109965750826001600160a01b0316846001600160a01b03161480611375575061137584846109c3565b806109965750506000908152600460205260409020546001600160a01b03908116911614919050565b6001600160e01b031981168114610ac757600080fd5b6000602082840312156113c657600080fd5b8135610eb88161139e565b60005b838110156113ec5781810151838201526020016113d4565b50506000910152565b6000815180845261140d8160208601602086016113d1565b601f01601f19169290920160200192915050565b602081526000610eb860208301846113f5565b60006020828403121561144657600080fd5b5035919050565b80356001600160a01b038116811461146457600080fd5b919050565b6000806040838503121561147c57600080fd5b6114858361144d565b946020939093013593505050565b6000806000606084860312156114a857600080fd5b6114b18461144d565b92506114bf6020850161144d565b929592945050506040919091013590565b600080604083850312156114e357600080fd5b823591506114f36020840161144d565b90509250929050565b634e487b7160e01b600052604160045260246000fd5b60008067ffffffffffffffff84111561152d5761152d6114fc565b50604051601f19601f85018116603f0116810181811067ffffffffffffffff8211171561155c5761155c6114fc565b60405283815290508082840185101561157457600080fd5b83836020830137600060208583010152509392505050565b600082601f83011261159d57600080fd5b610eb883833560208501611512565b600080604083850312156115bf57600080fd5b6115c88361144d565b9150602083013567ffffffffffffffff8111156115e457600080fd5b6115f08582860161158c565b9150509250929050565b6000806040838503121561160d57600080fd5b82359150602083013567ffffffffffffffff8111156115e457600080fd5b60006020828403121561163d57600080fd5b610eb88261144d565b6000806040838503121561165957600080fd5b6116628361144d565b91506020830135801515811461167757600080fd5b809150509250929050565b6000806000806080858703121561169857600080fd5b6116a18561144d565b93506116af6020860161144d565b925060408501359150606085013567ffffffffffffffff8111156116d257600080fd5b8501601f810187136116e357600080fd5b6116f287823560208401611512565b91505092959194509250565b6000806040838503121561171157600080fd5b61171a8361144d565b91506114f36020840161144d565b600181811c9082168061173c57607f821691505b6020821081036107e257634e487b7160e01b600052602260045260246000fd5b634e487b7160e01b600052601160045260246000fd5b818103818111156103d7576103d761175c565b6000600182016117975761179761175c565b5060010190565b600083516117b08184602088016113d1565b8351908301906117c48183602088016113d1565b01949350505050565b601f8211156105a557806000526020600020601f840160051c810160208510156117f45750805b601f840160051c820191505b81811015610e435760008155600101611800565b815167ffffffffffffffff81111561182e5761182e6114fc565b6118428161183c8454611728565b846117cd565b6020601f821160018114611876576000831561185e5750848201515b600019600385901b1c1916600184901b178455610e43565b600084815260208120601f198516915b828110156118a65787850151825560209485019460019092019101611886565b50848210156118c45786840151600019600387901b60f8161c191681555b50505050600190811b01905550565b6001600160a01b0385811682528416602082015260408101839052608060608201819052600090611906908301846113f5565b9695505050505050565b60006020828403121561192257600080fd5b8151610eb88161139e56fea2646970667358221220d48350d8f790bbcc19063b2d6afddc23289ca6e84a37521dd00a4807cbea0f0a64736f6c634300081c0033",
  "linkReferences": {},
  "deployedLinkReferences": {}
}