{
  "_format": "hh-sol-artifact-1",
  "contractName": "FlameBornToken",
  "sourceName": "contracts/token/FlameBornToken.sol",
  "abi": [
    {
      "inputs": [],
      "stateMutability": "nonpayable",
      "type": "constructor"
    },
    {
      "inputs": [],
      "name": "AccessControlBadConfirmation",
      "type": "error"
    },
    {
      "inputs": [
        {
          "internalType": "address",
          "name": "account",
          "type": "address"
        },
        {
          "internalType": "bytes32",
          "name": "neededRole",
          "type": "bytes32"
        }
      ],
      "name": "AccessControlUnauthorizedAccount",
      "type": "error"
    },
    {
      "inputs": [
        {
          "internalType": "address",
          "name": "target",
          "type": "address"
        }
      ],
      "name": "AddressEmptyCode",
      "type": "error"
    },
    {
      "inputs": [],
      "name": "ECDSAInvalidSignature",
      "type": "error"
    },
    {
      "inputs": [
        {
          "internalType": "uint256",
          "name": "length",
          "type": "uint256"
        }
      ],
      "name": "ECDSAInvalidSignatureLength",
      "type": "error"
    },
    {
      "inputs": [
        {
          "internalType": "bytes32",
          "name": "s",
          "type": "bytes32"
        }
      ],
      "name": "ECDSAInvalidSignatureS",
      "type": "error"
    },
    {
      "inputs": [
        {
          "internalType": "address",
          "name": "implementation",
          "type": "address"
        }
      ],
      "name": "ERC1967InvalidImplementation",
      "type": "error"
    },
    {
      "inputs": [],
      "name": "ERC1967NonPayable",
      "type": "error"
    },
    {
      "inputs": [
        {
          "internalType": "address",
          "name": "spender",
          "type": "address"
        },
        {
          "internalType": "uint256",
          "name": "allowance",
          "type": "uint256"
        },
        {
          "internalType": "uint256",
          "name": "needed",
          "type": "uint256"
        }
      ],
      "name": "ERC20InsufficientAllowance",
      "type": "error"
    },
    {
      "inputs": [
        {
          "internalType": "address",
          "name": "sender",
          "type": "address"
        },
        {
          "internalType": "uint256",
          "name": "balance",
          "type": "uint256"
        },
        {
          "internalType": "uint256",
          "name": "needed",
          "type": "uint256"
        }
      ],
      "name": "ERC20InsufficientBalance",
      "type": "error"
    },
    {
      "inputs": [
        {
          "internalType": "address",
          "name": "approver",
          "type": "address"
        }
      ],
      "name": "ERC20InvalidApprover",
      "type": "error"
    },
    {
      "inputs": [
        {
          "internalType": "address",
          "name": "receiver",
          "type": "address"
        }
      ],
      "name": "ERC20InvalidReceiver",
      "type": "error"
    },
    {
      "inputs": [
        {
          "internalType": "address",
          "name": "sender",
          "type": "address"
        }
      ],
      "name": "ERC20InvalidSender",
      "type": "error"
    },
    {
      "inputs": [
        {
          "internalType": "address",
          "name": "spender",
          "type": "address"
        }
      ],
      "name": "ERC20InvalidSpender",
      "type": "error"
    },
    {
      "inputs": [
        {
          "internalType": "uint256",
          "name": "deadline",
          "type": "uint256"
        }
      ],
      "name": "ERC2612ExpiredSignature",
      "type": "error"
    },
    {
      "inputs": [
        {
          "internalType": "address",
          "name": "signer",
          "type": "address"
        },
        {
          "internalType": "address",
          "name": "owner",
          "type": "address"
        }
      ],
      "name": "ERC2612InvalidSigner",
      "type": "error"
    },
    {
      "inputs": [],
      "name": "EnforcedPause",
      "type": "error"
    },
    {
      "inputs": [],
      "name": "ExpectedPause",
      "type": "error"
    },
    {
      "inputs": [],
      "name": "FailedCall",
      "type": "error"
    },
    {
      "inputs": [
        {
          "internalType": "address",
          "name": "account",
          "type": "address"
        },
        {
          "internalType": "uint256",
          "name": "currentNonce",
          "type": "uint256"
        }
      ],
      "name": "InvalidAccountNonce",
      "type": "error"
    },
    {
      "inputs": [],
      "name": "InvalidInitialization",
      "type": "error"
    },
    {
      "inputs": [],
      "name": "NotInitializing",
      "type": "error"
    },
    {
      "inputs": [
        {
          "internalType": "address",
          "name": "owner",
          "type": "address"
        }
      ],
      "name": "OwnableInvalidOwner",
      "type": "error"
    },
    {
      "inputs": [
        {
          "internalType": "address",
          "name": "account",
          "type": "address"
        }
      ],
      "name": "OwnableUnauthorizedAccount",
      "type": "error"
    },
    {
      "inputs": [],
      "name": "UUPSUnauthorizedCallContext",
      "type": "error"
    },
    {
      "inputs": [
        {
          "internalType": "bytes32",
          "name": "slot",
          "type": "bytes32"
        }
      ],
      "name": "UUPSUnsupportedProxiableUUID",
      "type": "error"
    },
    {
      "anonymous": false,
      "inputs": [
        {
          "indexed": true,
          "internalType": "address",
          "name": "owner",
          "type": "address"
        },
        {
          "indexed": true,
          "internalType": "address",
          "name": "spender",
          "type": "address"
        },
        {
          "indexed": false,
          "internalType": "uint256",
          "name": "value",
          "type": "uint256"
        }
      ],
      "name": "Approval",
      "type": "event"
    },
    {
      "anonymous": false,
      "inputs": [],
      "name": "EIP712DomainChanged",
      "type": "event"
    },
    {
      "anonymous": false,
      "inputs": [
        {
          "indexed": false,
          "internalType": "uint64",
          "name": "version",
          "type": "uint64"
        }
      ],
      "name": "Initialized",
      "type": "event"
    },
    {
      "anonymous": false,
      "inputs": [
        {
          "indexed": true,
          "internalType": "address",
          "name": "previousOwner",
          "type": "address"
        },
        {
          "indexed": true,
          "internalType": "address",
          "name": "newOwner",
          "type": "address"
        }
      ],
      "name": "OwnershipTransferred",
      "type": "event"
    },
    {
      "anonymous": false,
      "inputs": [
        {
          "indexed": false,
          "internalType": "address",
          "name": "account",
          "type": "address"
        }
      ],
      "name": "Paused",
      "type": "event"
    },
    {
      "anonymous": false,
      "inputs": [
        {
          "indexed": true,
          "internalType": "bytes32",
          "name": "role",
          "type": "bytes32"
        },
        {
          "indexed": true,
          "internalType": "bytes32",
          "name": "previousAdminRole",
          "type": "bytes32"
        },
        {
          "indexed": true,
          "internalType": "bytes32",
          "name": "newAdminRole",
          "type": "bytes32"
        }
      ],
      "name": "RoleAdminChanged",
      "type": "event"
    },
    {
      "anonymous": false,
      "inputs": [
        {
          "indexed": true,
          "internalType": "bytes32",
          "name": "role",
          "type": "bytes32"
        },
        {
          "indexed": true,
          "internalType": "address",
          "name": "account",
          "type": "address"
        },
        {
          "indexed": true,
          "internalType": "address",
          "name": "sender",
          "type": "address"
        }
      ],
      "name": "RoleGranted",
      "type": "event"
    },
    {
      "anonymous": false,
      "inputs": [
        {
          "indexed": true,
          "internalType": "bytes32",
          "name": "role",
          "type": "bytes32"
        },
        {
          "indexed": true,
          "internalType": "address",
          "name": "account",
          "type": "address"
        },
        {
          "indexed": true,
          "internalType": "address",
          "name": "sender",
          "type": "address"
        }
      ],
      "name": "RoleRevoked",
      "type": "event"
    },
    {
      "anonymous": false,
      "inputs": [
        {
          "indexed": true,
          "internalType": "address",
          "name": "from",
          "type": "address"
        },
        {
          "indexed": true,
          "internalType": "address",
          "name": "to",
          "type": "address"
        },
        {
          "indexed": false,
          "internalType": "uint256",
          "name": "value",
          "type": "uint256"
        }
      ],
      "name": "Transfer",
      "type": "event"
    },
    {
      "anonymous": false,
      "inputs": [
        {
          "indexed": false,
          "internalType": "address",
          "name": "account",
          "type": "address"
        }
      ],
      "name": "Unpaused",
      "type": "event"
    },
    {
      "anonymous": false,
      "inputs": [
        {
          "indexed": true,
          "internalType": "address",
          "name": "implementation",
          "type": "address"
        }
      ],
      "name": "Upgraded",
      "type": "event"
    },
    {
      "inputs": [],
      "name": "DEFAULT_ADMIN_ROLE",
      "outputs": [
        {
          "internalType": "bytes32",
          "name": "",
          "type": "bytes32"
        }
      ],
      "stateMutability": "view",
      "type": "function"
    },
    {
      "inputs": [],
      "name": "DOMAIN_SEPARATOR",
      "outputs": [
        {
          "internalType": "bytes32",
          "name": "",
          "type": "bytes32"
        }
      ],
      "stateMutability": "view",
      "type": "function"
    },
    {
      "inputs": [],
      "name": "MINTER_ROLE",
      "outputs": [
        {
          "internalType": "bytes32",
          "name": "",
          "type": "bytes32"
        }
      ],
      "stateMutability": "view",
      "type": "function"
    },
    {
      "inputs": [],
      "name": "UPGRADE_INTERFACE_VERSION",
      "outputs": [
        {
          "internalType": "string",
          "name": "",
          "type": "string"
        }
      ],
      "stateMutability": "view",
      "type": "function"
    },
    {
      "inputs": [
        {
          "internalType": "address",
          "name": "owner",
          "type": "address"
        },
        {
          "internalType": "address",
          "name": "spender",
          "type": "address"
        }
      ],
      "name": "allowance",
      "outputs": [
        {
          "internalType": "uint256",
          "name": "",
          "type": "uint256"
        }
      ],
      "stateMutability": "view",
      "type": "function"
    },
    {
      "inputs": [
        {
          "internalType": "address",
          "name": "spender",
          "type": "address"
        },
        {
          "internalType": "uint256",
          "name": "value",
          "type": "uint256"
        }
      ],
      "name": "approve",
      "outputs": [
        {
          "internalType": "bool",
          "name": "",
          "type": "bool"
        }
      ],
      "stateMutability": "nonpayable",
      "type": "function"
    },
    {
      "inputs": [
        {
          "internalType": "address",
          "name": "account",
          "type": "address"
        }
      ],
      "name": "balanceOf",
      "outputs": [
        {
          "internalType": "uint256",
          "name": "",
          "type": "uint256"
        }
      ],
      "stateMutability": "view",
      "type": "function"
    },
    {
      "inputs": [
        {
          "internalType": "uint256",
          "name": "value",
          "type": "uint256"
        }
      ],
      "name": "burn",
      "outputs": [],
      "stateMutability": "nonpayable",
      "type": "function"
    },
    {
      "inputs": [
        {
          "internalType": "address",
          "name": "account",
          "type": "address"
        },
        {
          "internalType": "uint256",
          "name": "value",
          "type": "uint256"
        }
      ],
      "name": "burnFrom",
      "outputs": [],
      "stateMutability": "nonpayable",
      "type": "function"
    },
    {
      "inputs": [],
      "name": "decimals",
      "outputs": [
        {
          "internalType": "uint8",
          "name": "",
          "type": "uint8"
        }
      ],
      "stateMutability": "view",
      "type": "function"
    },
    {
      "inputs": [],
      "name": "eip712Domain",
      "outputs": [
        {
          "internalType": "bytes1",
          "name": "fields",
          "type": "bytes1"
        },
        {
          "internalType": "string",
          "name": "name",
          "type": "string"
        },
        {
          "internalType": "string",
          "name": "version",
          "type": "string"
        },
        {
          "internalType": "uint256",
          "name": "chainId",
          "type": "uint256"
        },
        {
          "internalType": "address",
          "name": "verifyingContract",
          "type": "address"
        },
        {
          "internalType": "bytes32",
          "name": "salt",
          "type": "bytes32"
        },
        {
          "internalType": "uint256[]",
          "name": "extensions",
          "type": "uint256[]"
        }
      ],
      "stateMutability": "view",
      "type": "function"
    },
    {
      "inputs": [
        {
          "internalType": "bytes32",
          "name": "role",
          "type": "bytes32"
        }
      ],
      "name": "getRoleAdmin",
      "outputs": [
        {
          "internalType": "bytes32",
          "name": "",
          "type": "bytes32"
        }
      ],
      "stateMutability": "view",
      "type": "function"
    },
    {
      "inputs": [
        {
          "internalType": "address",
          "name": "account",
          "type": "address"
        }
      ],
      "name": "grantMinterRole",
      "outputs": [],
      "stateMutability": "nonpayable",
      "type": "function"
    },
    {
      "inputs": [
        {
          "internalType": "bytes32",
          "name": "role",
          "type": "bytes32"
        },
        {
          "internalType": "address",
          "name": "account",
          "type": "address"
        }
      ],
      "name": "grantRole",
      "outputs": [],
      "stateMutability": "nonpayable",
      "type": "function"
    },
    {
      "inputs": [
        {
          "internalType": "bytes32",
          "name": "role",
          "type": "bytes32"
        },
        {
          "internalType": "address",
          "name": "account",
          "type": "address"
        }
      ],
      "name": "hasRole",
      "outputs": [
        {
          "internalType": "bool",
          "name": "",
          "type": "bool"
        }
      ],
      "stateMutability": "view",
      "type": "function"
    },
    {
      "inputs": [
        {
          "internalType": "address",
          "name": "initialOwner",
          "type": "address"
        }
      ],
      "name": "initialize",
      "outputs": [],
      "stateMutability": "nonpayable",
      "type": "function"
    },
    {
      "inputs": [
        {
          "internalType": "address",
          "name": "to",
          "type": "address"
        },
        {
          "internalType": "uint256",
          "name": "amount",
          "type": "uint256"
        }
      ],
      "name": "mint",
      "outputs": [],
      "stateMutability": "nonpayable",
      "type": "function"
    },
    {
      "inputs": [],
      "name": "name",
      "outputs": [
        {
          "internalType": "string",
          "name": "",
          "type": "string"
        }
      ],
      "stateMutability": "view",
      "type": "function"
    },
    {
      "inputs": [
        {
          "internalType": "address",
          "name": "owner",
          "type": "address"
        }
      ],
      "name": "nonces",
      "outputs": [
        {
          "internalType": "uint256",
          "name": "",
          "type": "uint256"
        }
      ],
      "stateMutability": "view",
      "type": "function"
    },
    {
      "inputs": [],
      "name": "owner",
      "outputs": [
        {
          "internalType": "address",
          "name": "",
          "type": "address"
        }
      ],
      "stateMutability": "view",
      "type": "function"
    },
    {
      "inputs": [],
      "name": "pause",
      "outputs": [],
      "stateMutability": "nonpayable",
      "type": "function"
    },
    {
      "inputs": [],
      "name": "paused",
      "outputs": [
        {
          "internalType": "bool",
          "name": "",
          "type": "bool"
        }
      ],
      "stateMutability": "view",
      "type": "function"
    },
    {
      "inputs": [
        {
          "internalType": "address",
          "name": "owner",
          "type": "address"
        },
        {
          "internalType": "address",
          "name": "spender",
          "type": "address"
        },
        {
          "internalType": "uint256",
          "name": "value",
          "type": "uint256"
        },
        {
          "internalType": "uint256",
          "name": "deadline",
          "type": "uint256"
        },
        {
          "internalType": "uint8",
          "name": "v",
          "type": "uint8"
        },
        {
          "internalType": "bytes32",
          "name": "r",
          "type": "bytes32"
        },
        {
          "internalType": "bytes32",
          "name": "s",
          "type": "bytes32"
        }
      ],
      "name": "permit",
      "outputs": [],
      "stateMutability": "nonpayable",
      "type": "function"
    },
    {
      "inputs": [],
      "name": "proxiableUUID",
      "outputs": [
        {
          "internalType": "bytes32",
          "name": "",
          "type": "bytes32"
        }
      ],
      "stateMutability": "view",
      "type": "function"
    },
    {
      "inputs": [],
      "name": "renounceOwnership",
      "outputs": [],
      "stateMutability": "nonpayable",
      "type": "function"
    },
    {
      "inputs": [
        {
          "internalType": "bytes32",
          "name": "role",
          "type": "bytes32"
        },
        {
          "internalType": "address",
          "name": "callerConfirmation",
          "type": "address"
        }
      ],
      "name": "renounceRole",
      "outputs": [],
      "stateMutability": "nonpayable",
      "type": "function"
    },
    {
      "inputs": [
        {
          "internalType": "address",
          "name": "account",
          "type": "address"
        }
      ],
      "name": "revokeMinterRole",
      "outputs": [],
      "stateMutability": "nonpayable",
      "type": "function"
    },
    {
      "inputs": [
        {
          "internalType": "bytes32",
          "name": "role",
          "type": "bytes32"
        },
        {
          "internalType": "address",
          "name": "account",
          "type": "address"
        }
      ],
      "name": "revokeRole",
      "outputs": [],
      "stateMutability": "nonpayable",
      "type": "function"
    },
    {
      "inputs": [
        {
          "internalType": "bytes4",
          "name": "interfaceId",
          "type": "bytes4"
        }
      ],
      "name": "supportsInterface",
      "outputs": [
        {
          "internalType": "bool",
          "name": "",
          "type": "bool"
        }
      ],
      "stateMutability": "view",
      "type": "function"
    },
    {
      "inputs": [],
      "name": "symbol",
      "outputs": [
        {
          "internalType": "string",
          "name": "",
          "type": "string"
        }
      ],
      "stateMutability": "view",
      "type": "function"
    },
    {
      "inputs": [],
      "name": "totalSupply",
      "outputs": [
        {
          "internalType": "uint256",
          "name": "",
          "type": "uint256"
        }
      ],
      "stateMutability": "view",
      "type": "function"
    },
    {
      "inputs": [
        {
          "internalType": "address",
          "name": "to",
          "type": "address"
        },
        {
          "internalType": "uint256",
          "name": "value",
          "type": "uint256"
        }
      ],
      "name": "transfer",
      "outputs": [
        {
          "internalType": "bool",
          "name": "",
          "type": "bool"
        }
      ],
      "stateMutability": "nonpayable",
      "type": "function"
    },
    {
      "inputs": [
        {
          "internalType": "address",
          "name": "from",
          "type": "address"
        },
        {
          "internalType": "address",
          "name": "to",
          "type": "address"
        },
        {
          "internalType": "uint256",
          "name": "value",
          "type": "uint256"
        }
      ],
      "name": "transferFrom",
      "outputs": [
        {
          "internalType": "bool",
          "name": "",
          "type": "bool"
        }
      ],
      "stateMutability": "nonpayable",
      "type": "function"
    },
    {
      "inputs": [
        {
          "internalType": "address",
          "name": "newOwner",
          "type": "address"
        }
      ],
      "name": "transferOwnership",
      "outputs": [],
      "stateMutability": "nonpayable",
      "type": "function"
    },
    {
      "inputs": [],
      "name": "unpause",
      "outputs": [],
      "stateMutability": "nonpayable",
      "type": "function"
    },
    {
      "inputs": [
        {
          "internalType": "address",
          "name": "newImplementation",
          "type": "address"
        },
        {
          "internalType": "bytes",
          "name": "data",
          "type": "bytes"
        }
      ],
      "name": "upgradeToAndCall",
      "outputs": [],
      "stateMutability": "payable",
      "type": "function"
    }
  ],
  "bytecode": "0x60a06040523060805234801561001457600080fd5b5061001d610022565b6100d4565b7ff0c57e16840df040f15088dc2f81fe391c3923bec73e23a9662efc9c229c6a00805468010000000000000000900460ff16156100725760405163f92ee8a960e01b815260040160405180910390fd5b80546001600160401b03908116146100d15780546001600160401b0319166001600160401b0390811782556040519081527fc7f505b2f371ae2175ee4913f4499e1f2633a7b5936321eed1cdaeb6115181d29060200160405180910390a15b50565b60805161270c6100fd6000396000818161143e0152818161146701526115cc015261270c6000f3fe60806040526004361061024f5760003560e01c806370a0823111610138578063a217fddf116100b0578063d505accf1161007f578063d547741f11610064578063d547741f14610744578063dd62ed3e14610764578063f2fde38b146107c957600080fd5b8063d505accf146106f0578063d53913931461071057600080fd5b8063a217fddf14610652578063a9059cbb14610667578063ad3cb1cc14610687578063c4d66de8146106d057600080fd5b80638456cb59116101075780638da5cb5b116100ec5780638da5cb5b1461059157806391d14854146105d857806395d89b411461063d57600080fd5b80638456cb591461055457806384b0196e1461056957600080fd5b806370a08231146104df578063715018a6146104ff57806379cc6790146105145780637ecebe001461053457600080fd5b806336568abe116101cb57806342966c681161019a57806352d1902d1161017f57806352d1902d146104735780635c975abb1461048857806369e2f0fb146104bf57600080fd5b806342966c68146104405780634f1ef2861461046057600080fd5b806336568abe146103cb5780633dd1eb61146103eb5780633f4ba83a1461040b57806340c10f191461042057600080fd5b806323b872dd116102225780632f2ff15d116102075780632f2ff15d14610378578063313ce5671461039a5780633644e515146103b657600080fd5b806323b872dd14610309578063248a9ca31461032957600080fd5b806301ffc9a71461025457806306fdde0314610289578063095ea7b3146102ab57806318160ddd146102cb575b600080fd5b34801561026057600080fd5b5061027461026f3660046121a5565b6107e9565b60405190151581526020015b60405180910390f35b34801561029557600080fd5b5061029e610820565b604051610280919061221f565b3480156102b757600080fd5b506102746102c636600461224e565b6108db565b3480156102d757600080fd5b507f52c63247e1f47db19d5ce0460030c497f067ca4cebf71ba98eeadabe20bace02545b604051908152602001610280565b34801561031557600080fd5b50610274610324366004612278565b6108f3565b34801561033557600080fd5b506102fb6103443660046122b5565b60009081527f02dd7bc7dec4dceedda775e58dd541e08a116c6c53815c0bd028192f7b626800602052604090206001015490565b34801561038457600080fd5b506103986103933660046122ce565b610919565b005b3480156103a657600080fd5b5060405160128152602001610280565b3480156103c257600080fd5b506102fb610963565b3480156103d757600080fd5b506103986103e63660046122ce565b610972565b3480156103f757600080fd5b506103986104063660046122fa565b6109aa565b34801561041757600080fd5b506103986109e0565b34801561042c57600080fd5b5061039861043b36600461224e565b6109f2565b34801561044c57600080fd5b5061039861045b3660046122b5565b610a7f565b61039861046e36600461232b565b610a8c565b34801561047f57600080fd5b506102fb610aa7565b34801561049457600080fd5b507fcd5ed15c6e187e77e9aee88184c21f4f2182ab5827cb3b7e07fbedcd63f033005460ff16610274565b3480156104cb57600080fd5b506103986104da3660046122fa565b610ad6565b3480156104eb57600080fd5b506102fb6104fa3660046122fa565b610b08565b34801561050b57600080fd5b50610398610b4d565b34801561052057600080fd5b5061039861052f36600461224e565b610b5f565b34801561054057600080fd5b506102fb61054f3660046122fa565b610b74565b34801561056057600080fd5b50610398610b7f565b34801561057557600080fd5b5061057e610b8f565b60405161028097969594939291906123f5565b34801561059d57600080fd5b507f9016d09d72d40fdae2fd8ceac6b6234c7706214fd39c1cd1e609a0528c199300546040516001600160a01b039091168152602001610280565b3480156105e457600080fd5b506102746105f33660046122ce565b60009182527f02dd7bc7dec4dceedda775e58dd541e08a116c6c53815c0bd028192f7b626800602090815260408084206001600160a01b0393909316845291905290205460ff1690565b34801561064957600080fd5b5061029e610c55565b34801561065e57600080fd5b506102fb600081565b34801561067357600080fd5b5061027461068236600461224e565b610ca6565b34801561069357600080fd5b5061029e6040518060400160405280600581526020017f352e302e3000000000000000000000000000000000000000000000000000000081525081565b3480156106dc57600080fd5b506103986106eb3660046122fa565b610cb4565b3480156106fc57600080fd5b5061039861070b36600461248d565b610e95565b34801561071c57600080fd5b506102fb7f9f2df0fed2c77648de5860a4cc508cd0818c85b8b8a1ab4ceeef8d981c8956a681565b34801561075057600080fd5b5061039861075f3660046122ce565b610fee565b34801561077057600080fd5b506102fb61077f366004612500565b6001600160a01b0391821660009081527f52c63247e1f47db19d5ce0460030c497f067ca4cebf71ba98eeadabe20bace016020908152604080832093909416825291909152205490565b3480156107d557600080fd5b506103986107e43660046122fa565b611032565b60006001600160e01b03198216637965db0b60e01b148061081a57506301ffc9a760e01b6001600160e01b03198316145b92915050565b606060007f52c63247e1f47db19d5ce0460030c497f067ca4cebf71ba98eeadabe20bace005b90508060030180546108579061252a565b80601f01602080910402602001604051908101604052809291908181526020018280546108839061252a565b80156108d05780601f106108a5576101008083540402835291602001916108d0565b820191906000526020600020905b8154815290600101906020018083116108b357829003601f168201915b505050505091505090565b6000336108e981858561106d565b5060019392505050565b60003361090185828561107a565b61090c858585611112565b60019150505b9392505050565b60008281527f02dd7bc7dec4dceedda775e58dd541e08a116c6c53815c0bd028192f7b626800602052604090206001015461095381611171565b61095d838361117b565b50505050565b600061096d61124a565b905090565b6001600160a01b038116331461099b5760405163334bd91960e11b815260040160405180910390fd5b6109a58282611254565b505050565b6109b26112fa565b6109dc7f9f2df0fed2c77648de5860a4cc508cd0818c85b8b8a1ab4ceeef8d981c8956a68261117b565b5050565b6109e86112fa565b6109f0611355565b565b3360009081527f549fe2656c81d2947b3b913f0a53b9ea86c71e049f3a1b8aa23c09a8a05cb8d4602052604090205460ff16610a755760405162461bcd60e51b815260206004820181905260248201527f43616c6c6572206973206e6f7420617574686f72697a656420746f206d696e7460448201526064015b60405180910390fd5b6109dc82826113c7565b610a8933826113fd565b50565b610a94611433565b610a9d826114ea565b6109dc82826114f2565b6000610ab16115c1565b507f360894a13ba1a3210667c828492db98dca3e2076cc3735a920a3ca505d382bbc90565b610ade6112fa565b6109dc7f9f2df0fed2c77648de5860a4cc508cd0818c85b8b8a1ab4ceeef8d981c8956a682611254565b6000807f52c63247e1f47db19d5ce0460030c497f067ca4cebf71ba98eeadabe20bace005b6001600160a01b0390931660009081526020939093525050604090205490565b610b556112fa565b6109f0600061160a565b610b6a82338361107a565b6109dc82826113fd565b600061081a82611688565b610b876112fa565b6109f06116b1565b600060608082808083817fa16a46d94261c7517cc8ff89f61c0ce93598e3c849801011dee649a6a557d1008054909150158015610bce57506001810154155b610c1a5760405162461bcd60e51b815260206004820152601560248201527f4549503731323a20556e696e697469616c697a656400000000000000000000006044820152606401610a6c565b610c2261170c565b610c2a61175d565b60408051600080825260208201909252600f60f81b9c939b5091995046985030975095509350915050565b7f52c63247e1f47db19d5ce0460030c497f067ca4cebf71ba98eeadabe20bace0480546060917f52c63247e1f47db19d5ce0460030c497f067ca4cebf71ba98eeadabe20bace00916108579061252a565b6000336108e9818585611112565b6000610cbe611787565b805490915060ff68010000000000000000820416159067ffffffffffffffff16600081158015610ceb5750825b905060008267ffffffffffffffff166001148015610d085750303b155b905081158015610d16575080155b15610d345760405163f92ee8a960e01b815260040160405180910390fd5b845467ffffffffffffffff191660011785558315610d6857845468ff00000000000000001916680100000000000000001785555b610db36040518060400160405280600e81526020016d233630b6b2a137b9372a37b5b2b760911b8152506040518060400160405280600381526020016223262160e91b8152506117b0565b610dbb6117c2565b610dc36117c2565b610dcc866117ca565b610dd46117c2565b610e036040518060400160405280600e81526020016d233630b6b2a137b9372a37b5b2b760911b8152506117db565b610e0b6117c2565b610e1660008761117b565b50610e417f9f2df0fed2c77648de5860a4cc508cd0818c85b8b8a1ab4ceeef8d981c8956a68761117b565b508315610e8d57845468ff000000000000000019168555604051600181527fc7f505b2f371ae2175ee4913f4499e1f2633a7b5936321eed1cdaeb6115181d29060200160405180910390a15b505050505050565b83421115610eb95760405163313c898160e11b815260048101859052602401610a6c565b60007f6e71edae12b1b97f4d1f60370fef10105fa2faae0126114a169c64845d6126c9888888610f258c6001600160a01b031660009081527f5ab42ced628888259c08ac98db1eb0cf702fc1501344311d8b100cd1bfe4bb006020526040902080546001810190915590565b6040805160208101969096526001600160a01b0394851690860152929091166060840152608083015260a082015260c0810186905260e0016040516020818303038152906040528051906020012090506000610f8082611806565b90506000610f9082878787611833565b9050896001600160a01b0316816001600160a01b031614610fd7576040516325c0072360e11b81526001600160a01b0380831660048301528b166024820152604401610a6c565b610fe28a8a8a61106d565b50505050505050505050565b60008281527f02dd7bc7dec4dceedda775e58dd541e08a116c6c53815c0bd028192f7b626800602052604090206001015461102881611171565b61095d8383611254565b61103a6112fa565b6001600160a01b03811661106457604051631e4fbdf760e01b815260006004820152602401610a6c565b610a898161160a565b6109a58383836001611861565b6001600160a01b0383811660009081527f52c63247e1f47db19d5ce0460030c497f067ca4cebf71ba98eeadabe20bace01602090815260408083209386168352929052205460001981101561095d578181101561110357604051637dc7a0d960e11b81526001600160a01b03841660048201526024810182905260448101839052606401610a6c565b61095d84848484036000611861565b6001600160a01b03831661113c57604051634b637e8f60e11b815260006004820152602401610a6c565b6001600160a01b0382166111665760405163ec442f0560e01b815260006004820152602401610a6c565b6109a583838361195b565b610a898133611966565b60008281527f02dd7bc7dec4dceedda775e58dd541e08a116c6c53815c0bd028192f7b626800602081815260408084206001600160a01b038616855290915282205460ff16611240576000848152602082815260408083206001600160a01b03871684529091529020805460ff191660011790556111f63390565b6001600160a01b0316836001600160a01b0316857f2f8788117e7eff1d82e926ec794901d17c78024a50270940304540a733656f0d60405160405180910390a4600191505061081a565b600091505061081a565b600061096d6119da565b60008281527f02dd7bc7dec4dceedda775e58dd541e08a116c6c53815c0bd028192f7b626800602081815260408084206001600160a01b038616855290915282205460ff1615611240576000848152602082815260408083206001600160a01b0387168085529252808320805460ff1916905551339287917ff6391f5c32d9c69d2a47ea670b442974b53935d1edc7fd64eb21e047a839171b9190a4600191505061081a565b3361132c7f9016d09d72d40fdae2fd8ceac6b6234c7706214fd39c1cd1e609a0528c199300546001600160a01b031690565b6001600160a01b0316146109f05760405163118cdaa760e01b8152336004820152602401610a6c565b61135d611a4e565b7fcd5ed15c6e187e77e9aee88184c21f4f2182ab5827cb3b7e07fbedcd63f03300805460ff191681557f5db9ee0a495bf2e6ff9c91a7834c1ba4fdd244a5e8aa4e537bd38aeae4b073aa335b6040516001600160a01b03909116815260200160405180910390a150565b6001600160a01b0382166113f15760405163ec442f0560e01b815260006004820152602401610a6c565b6109dc6000838361195b565b6001600160a01b03821661142757604051634b637e8f60e11b815260006004820152602401610a6c565b6109dc8260008361195b565b306001600160a01b037f00000000000000000000000000000000000000000000000000000000000000001614806114cc57507f00000000000000000000000000000000000000000000000000000000000000006001600160a01b03166114c07f360894a13ba1a3210667c828492db98dca3e2076cc3735a920a3ca505d382bbc546001600160a01b031690565b6001600160a01b031614155b156109f05760405163703e46dd60e11b815260040160405180910390fd5b610a896112fa565b816001600160a01b03166352d1902d6040518163ffffffff1660e01b8152600401602060405180830381865afa92505050801561154c575060408051601f3d908101601f1916820190925261154991810190612564565b60015b61157457604051634c9c8ce360e01b81526001600160a01b0383166004820152602401610a6c565b7f360894a13ba1a3210667c828492db98dca3e2076cc3735a920a3ca505d382bbc81146115b757604051632a87526960e21b815260048101829052602401610a6c565b6109a58383611a90565b306001600160a01b037f000000000000000000000000000000000000000000000000000000000000000016146109f05760405163703e46dd60e11b815260040160405180910390fd5b7f9016d09d72d40fdae2fd8ceac6b6234c7706214fd39c1cd1e609a0528c199300805473ffffffffffffffffffffffffffffffffffffffff1981166001600160a01b03848116918217845560405192169182907f8be0079c531659141344cd1fd0a4f28419497f9722a3daafe3b4186f6b6457e090600090a3505050565b6000807f5ab42ced628888259c08ac98db1eb0cf702fc1501344311d8b100cd1bfe4bb00610b2d565b6116b9611ae6565b7fcd5ed15c6e187e77e9aee88184c21f4f2182ab5827cb3b7e07fbedcd63f03300805460ff191660011781557f62e78cea01bee320cd4e420270b5ea74000d11b0c9f74754ebdbfc544b05a258336113a9565b7fa16a46d94261c7517cc8ff89f61c0ce93598e3c849801011dee649a6a557d10280546060917fa16a46d94261c7517cc8ff89f61c0ce93598e3c849801011dee649a6a557d100916108579061252a565b606060007fa16a46d94261c7517cc8ff89f61c0ce93598e3c849801011dee649a6a557d100610846565b6000807ff0c57e16840df040f15088dc2f81fe391c3923bec73e23a9662efc9c229c6a0061081a565b6117b8611b29565b6109dc8282611b4e565b6109f0611b29565b6117d2611b29565b610a8981611bb1565b6117e3611b29565b610a8981604051806040016040528060018152602001603160f81b815250611bb9565b600061081a61181361124a565b8360405161190160f01b8152600281019290925260228201526042902090565b60008060008061184588888888611c2c565b9250925092506118558282611cfb565b50909695505050505050565b7f52c63247e1f47db19d5ce0460030c497f067ca4cebf71ba98eeadabe20bace006001600160a01b0385166118ac5760405163e602df0560e01b815260006004820152602401610a6c565b6001600160a01b0384166118d657604051634a1406b160e11b815260006004820152602401610a6c565b6001600160a01b0380861660009081526001830160209081526040808320938816835292905220839055811561195457836001600160a01b0316856001600160a01b03167f8c5be1e5ebec7d5bd14f71427d1e84f3dd0314c0f7b2291e5b200ac8c7c3b9258560405161194b91815260200190565b60405180910390a35b5050505050565b6109a5838383611db4565b60008281527f02dd7bc7dec4dceedda775e58dd541e08a116c6c53815c0bd028192f7b626800602090815260408083206001600160a01b038516845290915290205460ff166109dc5760405163e2517d3f60e01b81526001600160a01b038216600482015260248101839052604401610a6c565b60007f8b73c3c69bb8fe3d512ecc4cf759cc79239f7b179b0ffacaa9a75d522b39400f611a05611dc7565b611a0d611e43565b60408051602081019490945283019190915260608201524660808201523060a082015260c00160405160208183030381529060405280519060200120905090565b7fcd5ed15c6e187e77e9aee88184c21f4f2182ab5827cb3b7e07fbedcd63f033005460ff166109f057604051638dfc202b60e01b815260040160405180910390fd5b611a9982611e99565b6040516001600160a01b038316907fbc7cd75a20ee27fd9adebab32041f755214dbc6bffa90cc0225b39da2e5c2d3b90600090a2805115611ade576109a58282611f1d565b6109dc611f93565b7fcd5ed15c6e187e77e9aee88184c21f4f2182ab5827cb3b7e07fbedcd63f033005460ff16156109f05760405163d93c066560e01b815260040160405180910390fd5b611b31611fb2565b6109f057604051631afcd79f60e31b815260040160405180910390fd5b611b56611b29565b7f52c63247e1f47db19d5ce0460030c497f067ca4cebf71ba98eeadabe20bace007f52c63247e1f47db19d5ce0460030c497f067ca4cebf71ba98eeadabe20bace03611ba284826125c4565b506004810161095d83826125c4565b61103a611b29565b611bc1611b29565b7fa16a46d94261c7517cc8ff89f61c0ce93598e3c849801011dee649a6a557d1007fa16a46d94261c7517cc8ff89f61c0ce93598e3c849801011dee649a6a557d102611c0d84826125c4565b5060038101611c1c83826125c4565b5060008082556001909101555050565b600080807f7fffffffffffffffffffffffffffffff5d576e7357a4501ddfe92f46681b20a0841115611c675750600091506003905082611cf1565b604080516000808252602082018084528a905260ff891692820192909252606081018790526080810186905260019060a0016020604051602081039080840390855afa158015611cbb573d6000803e3d6000fd5b5050604051601f1901519150506001600160a01b038116611ce757506000925060019150829050611cf1565b9250600091508190505b9450945094915050565b6000826003811115611d0f57611d0f612683565b03611d18575050565b6001826003811115611d2c57611d2c612683565b03611d4a5760405163f645eedf60e01b815260040160405180910390fd5b6002826003811115611d5e57611d5e612683565b03611d7f5760405163fce698f760e01b815260048101829052602401610a6c565b6003826003811115611d9357611d93612683565b036109dc576040516335e2f38360e21b815260048101829052602401610a6c565b611dbc611ae6565b6109a5838383611fd1565b60007fa16a46d94261c7517cc8ff89f61c0ce93598e3c849801011dee649a6a557d10081611df361170c565b805190915015611e0b57805160209091012092915050565b81548015611e1a579392505050565b7fc5d2460186f7233c927e7db2dcc703c0e500b653ca82273b7bfad8045d85a470935050505090565b60007fa16a46d94261c7517cc8ff89f61c0ce93598e3c849801011dee649a6a557d10081611e6f61175d565b805190915015611e8757805160209091012092915050565b60018201548015611e1a579392505050565b806001600160a01b03163b600003611ecf57604051634c9c8ce360e01b81526001600160a01b0382166004820152602401610a6c565b7f360894a13ba1a3210667c828492db98dca3e2076cc3735a920a3ca505d382bbc805473ffffffffffffffffffffffffffffffffffffffff19166001600160a01b0392909216919091179055565b6060600080846001600160a01b031684604051611f3a9190612699565b600060405180830381855af49150503d8060008114611f75576040519150601f19603f3d011682016040523d82523d6000602084013e611f7a565b606091505b5091509150611f8a858383612121565b95945050505050565b34156109f05760405163b398979f60e01b815260040160405180910390fd5b6000611fbc611787565b5468010000000000000000900460ff16919050565b7f52c63247e1f47db19d5ce0460030c497f067ca4cebf71ba98eeadabe20bace006001600160a01b03841661201f578181600201600082825461201491906126b5565b909155506120919050565b6001600160a01b038416600090815260208290526040902054828110156120725760405163391434e360e21b81526001600160a01b03861660048201526024810182905260448101849052606401610a6c565b6001600160a01b03851660009081526020839052604090209083900390555b6001600160a01b0383166120af5760028101805483900390556120ce565b6001600160a01b03831660009081526020829052604090208054830190555b826001600160a01b0316846001600160a01b03167fddf252ad1be2c89b69c2b068fc378daa952ba7f163c4a11628f55a4df523b3ef8460405161211391815260200190565b60405180910390a350505050565b606082612136576121318261217d565b610912565b815115801561214d57506001600160a01b0384163b155b1561217657604051639996b31560e01b81526001600160a01b0385166004820152602401610a6c565b5080610912565b80511561218c57805160208201fd5b60405163d6bda27560e01b815260040160405180910390fd5b6000602082840312156121b757600080fd5b81356001600160e01b03198116811461091257600080fd5b60005b838110156121ea5781810151838201526020016121d2565b50506000910152565b6000815180845261220b8160208601602086016121cf565b601f01601f19169290920160200192915050565b60208152600061091260208301846121f3565b80356001600160a01b038116811461224957600080fd5b919050565b6000806040838503121561226157600080fd5b61226a83612232565b946020939093013593505050565b60008060006060848603121561228d57600080fd5b61229684612232565b92506122a460208501612232565b929592945050506040919091013590565b6000602082840312156122c757600080fd5b5035919050565b600080604083850312156122e157600080fd5b823591506122f160208401612232565b90509250929050565b60006020828403121561230c57600080fd5b61091282612232565b634e487b7160e01b600052604160045260246000fd5b6000806040838503121561233e57600080fd5b61234783612232565b9150602083013567ffffffffffffffff81111561236357600080fd5b8301601f8101851361237457600080fd5b803567ffffffffffffffff81111561238e5761238e612315565b604051601f8201601f19908116603f0116810167ffffffffffffffff811182821017156123bd576123bd612315565b6040528181528282016020018710156123d557600080fd5b816020840160208301376000602083830101528093505050509250929050565b60ff60f81b8816815260e06020820152600061241460e08301896121f3565b828103604084015261242681896121f3565b606084018890526001600160a01b038716608085015260a0840186905283810360c08501528451808252602080870193509091019060005b8181101561247c57835183526020938401939092019160010161245e565b50909b9a5050505050505050505050565b600080600080600080600060e0888a0312156124a857600080fd5b6124b188612232565b96506124bf60208901612232565b95506040880135945060608801359350608088013560ff811681146124e357600080fd5b9699959850939692959460a0840135945060c09093013592915050565b6000806040838503121561251357600080fd5b61251c83612232565b91506122f160208401612232565b600181811c9082168061253e57607f821691505b60208210810361255e57634e487b7160e01b600052602260045260246000fd5b50919050565b60006020828403121561257657600080fd5b5051919050565b601f8211156109a557806000526020600020601f840160051c810160208510156125a45750805b601f840160051c820191505b8181101561195457600081556001016125b0565b815167ffffffffffffffff8111156125de576125de612315565b6125f2816125ec845461252a565b8461257d565b6020601f821160018114612626576000831561260e5750848201515b600019600385901b1c1916600184901b178455611954565b600084815260208120601f198516915b828110156126565787850151825560209485019460019092019101612636565b50848210156126745786840151600019600387901b60f8161c191681555b50505050600190811b01905550565b634e487b7160e01b600052602160045260246000fd5b600082516126ab8184602087016121cf565b9190910192915050565b8082018082111561081a57634e487b7160e01b600052601160045260246000fdfea2646970667358221220e40fca90fa1fbd2edd2b1b5d0b85f5ce8b7f82b3a356a7e76c478b7e05e32bec64736f6c634300081c0033",
  "linkReferences": {},
  "deployedLinkReferences": {}
}