{
  "_format": "hh-sol-artifact-1",
  "contractName": "FlameBornEngine",
  "sourceName": "contracts/FlameBornEngine.sol",
  "abi": [
    {
      "inputs": [],
      "stateMutability": "nonpayable",
      "type": "constructor"
    },
    {
      "inputs": [],
      "name": "AccessControlBadConfirmation",
      "type": "error"
    },
    {
      "inputs": [
        {
          "internalType": "address",
          "name": "account",
          "type": "address"
        },
        {
          "internalType": "bytes32",
          "name": "neededRole",
          "type": "bytes32"
        }
      ],
      "name": "AccessControlUnauthorizedAccount",
      "type": "error"
    },
    {
      "inputs": [
        {
          "internalType": "address",
          "name": "actor",
          "type": "address"
        }
      ],
      "name": "ActorAlreadyVerified",
      "type": "error"
    },
    {
      "inputs": [
        {
          "internalType": "address",
          "name": "target",
          "type": "address"
        }
      ],
      "name": "AddressEmptyCode",
      "type": "error"
    },
    {
      "inputs": [
        {
          "internalType": "address",
          "name": "implementation",
          "type": "address"
        }
      ],
      "name": "ERC1967InvalidImplementation",
      "type": "error"
    },
    {
      "inputs": [],
      "name": "ERC1967NonPayable",
      "type": "error"
    },
    {
      "inputs": [],
      "name": "FailedCall",
      "type": "error"
    },
    {
      "inputs": [],
      "name": "InvalidInitialization",
      "type": "error"
    },
    {
      "inputs": [],
      "name": "NotInitializing",
      "type": "error"
    },
    {
      "inputs": [],
      "name": "ReentrancyGuardReentrantCall",
      "type": "error"
    },
    {
      "inputs": [],
      "name": "UUPSUnauthorizedCallContext",
      "type": "error"
    },
    {
      "inputs": [
        {
          "internalType": "bytes32",
          "name": "slot",
          "type": "bytes32"
        }
      ],
      "name": "UUPSUnsupportedProxiableUUID",
      "type": "error"
    },
    {
      "anonymous": false,
      "inputs": [
        {
          "indexed": true,
          "internalType": "address",
          "name": "actor",
          "type": "address"
        },
        {
          "indexed": false,
          "internalType": "enum FlameBornEngine.ActorRole",
          "name": "role",
          "type": "uint8"
        },
        {
          "indexed": false,
          "internalType": "string",
          "name": "name",
          "type": "string"
        }
      ],
      "name": "ActorVerified",
      "type": "event"
    },
    {
      "anonymous": false,
      "inputs": [
        {
          "indexed": true,
          "internalType": "address",
          "name": "donor",
          "type": "address"
        },
        {
          "indexed": false,
          "internalType": "uint256",
          "name": "amountETH",
          "type": "uint256"
        },
        {
          "indexed": false,
          "internalType": "uint256",
          "name": "rewardFLB",
          "type": "uint256"
        }
      ],
      "name": "DonationReceived",
      "type": "event"
    },
    {
      "anonymous": false,
      "inputs": [
        {
          "indexed": false,
          "internalType": "uint64",
          "name": "version",
          "type": "uint64"
        }
      ],
      "name": "Initialized",
      "type": "event"
    },
    {
      "anonymous": false,
      "inputs": [
        {
          "indexed": true,
          "internalType": "address",
          "name": "user",
          "type": "address"
        },
        {
          "indexed": false,
          "internalType": "string",
          "name": "questId",
          "type": "string"
        },
        {
          "indexed": false,
          "internalType": "uint256",
          "name": "reward",
          "type": "uint256"
        }
      ],
      "name": "QuestRewarded",
      "type": "event"
    },
    {
      "anonymous": false,
      "inputs": [
        {
          "indexed": true,
          "internalType": "bytes32",
          "name": "role",
          "type": "bytes32"
        },
        {
          "indexed": true,
          "internalType": "bytes32",
          "name": "previousAdminRole",
          "type": "bytes32"
        },
        {
          "indexed": true,
          "internalType": "bytes32",
          "name": "newAdminRole",
          "type": "bytes32"
        }
      ],
      "name": "RoleAdminChanged",
      "type": "event"
    },
    {
      "anonymous": false,
      "inputs": [
        {
          "indexed": true,
          "internalType": "bytes32",
          "name": "role",
          "type": "bytes32"
        },
        {
          "indexed": true,
          "internalType": "address",
          "name": "account",
          "type": "address"
        },
        {
          "indexed": true,
          "internalType": "address",
          "name": "sender",
          "type": "address"
        }
      ],
      "name": "RoleGranted",
      "type": "event"
    },
    {
      "anonymous": false,
      "inputs": [
        {
          "indexed": true,
          "internalType": "bytes32",
          "name": "role",
          "type": "bytes32"
        },
        {
          "indexed": true,
          "internalType": "address",
          "name": "account",
          "type": "address"
        },
        {
          "indexed": true,
          "internalType": "address",
          "name": "sender",
          "type": "address"
        }
      ],
      "name": "RoleRevoked",
      "type": "event"
    },
    {
      "anonymous": false,
      "inputs": [
        {
          "indexed": true,
          "internalType": "address",
          "name": "implementation",
          "type": "address"
        }
      ],
      "name": "Upgraded",
      "type": "event"
    },
    {
      "inputs": [],
      "name": "DEFAULT_ADMIN_ROLE",
      "outputs": [
        {
          "internalType": "bytes32",
          "name": "",
          "type": "bytes32"
        }
      ],
      "stateMutability": "view",
      "type": "function"
    },
    {
      "inputs": [],
      "name": "ENGINE_TAG",
      "outputs": [
        {
          "internalType": "string",
          "name": "",
          "type": "string"
        }
      ],
      "stateMutability": "view",
      "type": "function"
    },
    {
      "inputs": [],
      "name": "MIN_DONATION",
      "outputs": [
        {
          "internalType": "uint256",
          "name": "",
          "type": "uint256"
        }
      ],
      "stateMutability": "view",
      "type": "function"
    },
    {
      "inputs": [],
      "name": "QUEST_ADMIN_ROLE",
      "outputs": [
        {
          "internalType": "bytes32",
          "name": "",
          "type": "bytes32"
        }
      ],
      "stateMutability": "view",
      "type": "function"
    },
    {
      "inputs": [],
      "name": "REGISTRAR_ROLE",
      "outputs": [
        {
          "internalType": "bytes32",
          "name": "",
          "type": "bytes32"
        }
      ],
      "stateMutability": "view",
      "type": "function"
    },
    {
      "inputs": [],
      "name": "UPGRADE_INTERFACE_VERSION",
      "outputs": [
        {
          "internalType": "string",
          "name": "",
          "type": "string"
        }
      ],
      "stateMutability": "view",
      "type": "function"
    },
    {
      "inputs": [],
      "name": "actorReward",
      "outputs": [
        {
          "internalType": "uint256",
          "name": "",
          "type": "uint256"
        }
      ],
      "stateMutability": "view",
      "type": "function"
    },
    {
      "inputs": [
        {
          "internalType": "address",
          "name": "",
          "type": "address"
        }
      ],
      "name": "actors",
      "outputs": [
        {
          "internalType": "bool",
          "name": "verified",
          "type": "bool"
        },
        {
          "internalType": "enum FlameBornEngine.ActorRole",
          "name": "role",
          "type": "uint8"
        },
        {
          "internalType": "string",
          "name": "name",
          "type": "string"
        },
        {
          "internalType": "string",
          "name": "licenseId",
          "type": "string"
        },
        {
          "internalType": "string",
          "name": "phone",
          "type": "string"
        }
      ],
      "stateMutability": "view",
      "type": "function"
    },
    {
      "inputs": [
        {
          "internalType": "address",
          "name": "user",
          "type": "address"
        },
        {
          "internalType": "uint256",
          "name": "reward",
          "type": "uint256"
        },
        {
          "internalType": "string",
          "name": "questId",
          "type": "string"
        }
      ],
      "name": "awardQuest",
      "outputs": [],
      "stateMutability": "nonpayable",
      "type": "function"
    },
    {
      "inputs": [],
      "name": "donate",
      "outputs": [],
      "stateMutability": "payable",
      "type": "function"
    },
    {
      "inputs": [],
      "name": "donationRewardRate",
      "outputs": [
        {
          "internalType": "uint256",
          "name": "",
          "type": "uint256"
        }
      ],
      "stateMutability": "view",
      "type": "function"
    },
    {
      "inputs": [
        {
          "internalType": "address",
          "name": "",
          "type": "address"
        }
      ],
      "name": "donorBalances",
      "outputs": [
        {
          "internalType": "uint256",
          "name": "",
          "type": "uint256"
        }
      ],
      "stateMutability": "view",
      "type": "function"
    },
    {
      "inputs": [],
      "name": "engineTag",
      "outputs": [
        {
          "internalType": "string",
          "name": "",
          "type": "string"
        }
      ],
      "stateMutability": "pure",
      "type": "function"
    },
    {
      "inputs": [
        {
          "internalType": "address",
          "name": "actor",
          "type": "address"
        }
      ],
      "name": "getActor",
      "outputs": [
        {
          "internalType": "bool",
          "name": "verified",
          "type": "bool"
        },
        {
          "internalType": "enum FlameBornEngine.ActorRole",
          "name": "role",
          "type": "uint8"
        },
        {
          "internalType": "string",
          "name": "name",
          "type": "string"
        },
        {
          "internalType": "string",
          "name": "licenseId",
          "type": "string"
        },
        {
          "internalType": "string",
          "name": "phone",
          "type": "string"
        }
      ],
      "stateMutability": "view",
      "type": "function"
    },
    {
      "inputs": [
        {
          "internalType": "bytes32",
          "name": "role",
          "type": "bytes32"
        }
      ],
      "name": "getRoleAdmin",
      "outputs": [
        {
          "internalType": "bytes32",
          "name": "",
          "type": "bytes32"
        }
      ],
      "stateMutability": "view",
      "type": "function"
    },
    {
      "inputs": [
        {
          "internalType": "bytes32",
          "name": "role",
          "type": "bytes32"
        },
        {
          "internalType": "address",
          "name": "account",
          "type": "address"
        }
      ],
      "name": "grantRole",
      "outputs": [],
      "stateMutability": "nonpayable",
      "type": "function"
    },
    {
      "inputs": [
        {
          "internalType": "bytes32",
          "name": "role",
          "type": "bytes32"
        },
        {
          "internalType": "address",
          "name": "account",
          "type": "address"
        }
      ],
      "name": "hasRole",
      "outputs": [
        {
          "internalType": "bool",
          "name": "",
          "type": "bool"
        }
      ],
      "stateMutability": "view",
      "type": "function"
    },
    {
      "inputs": [],
      "name": "healthIDNFT",
      "outputs": [
        {
          "internalType": "contract IHealthIDNFT",
          "name": "",
          "type": "address"
        }
      ],
      "stateMutability": "view",
      "type": "function"
    },
    {
      "inputs": [
        {
          "internalType": "address",
          "name": "admin",
          "type": "address"
        },
        {
          "internalType": "address",
          "name": "_token",
          "type": "address"
        },
        {
          "internalType": "address",
          "name": "_healthIDNFT",
          "type": "address"
        },
        {
          "internalType": "uint256",
          "name": "_actorReward",
          "type": "uint256"
        },
        {
          "internalType": "uint256",
          "name": "_donationRewardRate",
          "type": "uint256"
        }
      ],
      "name": "initialize",
      "outputs": [],
      "stateMutability": "nonpayable",
      "type": "function"
    },
    {
      "inputs": [
        {
          "internalType": "address",
          "name": "actor",
          "type": "address"
        }
      ],
      "name": "isVerifiedActor",
      "outputs": [
        {
          "internalType": "bool",
          "name": "",
          "type": "bool"
        }
      ],
      "stateMutability": "view",
      "type": "function"
    },
    {
      "inputs": [],
      "name": "name",
      "outputs": [
        {
          "internalType": "string",
          "name": "",
          "type": "string"
        }
      ],
      "stateMutability": "pure",
      "type": "function"
    },
    {
      "inputs": [],
      "name": "proxiableUUID",
      "outputs": [
        {
          "internalType": "bytes32",
          "name": "",
          "type": "bytes32"
        }
      ],
      "stateMutability": "view",
      "type": "function"
    },
    {
      "inputs": [
        {
          "internalType": "address",
          "name": "",
          "type": "address"
        }
      ],
      "name": "questRewards",
      "outputs": [
        {
          "internalType": "uint256",
          "name": "",
          "type": "uint256"
        }
      ],
      "stateMutability": "view",
      "type": "function"
    },
    {
      "inputs": [
        {
          "internalType": "bytes32",
          "name": "role",
          "type": "bytes32"
        },
        {
          "internalType": "address",
          "name": "callerConfirmation",
          "type": "address"
        }
      ],
      "name": "renounceRole",
      "outputs": [],
      "stateMutability": "nonpayable",
      "type": "function"
    },
    {
      "inputs": [
        {
          "internalType": "bytes32",
          "name": "role",
          "type": "bytes32"
        },
        {
          "internalType": "address",
          "name": "account",
          "type": "address"
        }
      ],
      "name": "revokeRole",
      "outputs": [],
      "stateMutability": "nonpayable",
      "type": "function"
    },
    {
      "inputs": [
        {
          "internalType": "bytes4",
          "name": "interfaceId",
          "type": "bytes4"
        }
      ],
      "name": "supportsInterface",
      "outputs": [
        {
          "internalType": "bool",
          "name": "",
          "type": "bool"
        }
      ],
      "stateMutability": "view",
      "type": "function"
    },
    {
      "inputs": [],
      "name": "symbol",
      "outputs": [
        {
          "internalType": "string",
          "name": "",
          "type": "string"
        }
      ],
      "stateMutability": "pure",
      "type": "function"
    },
    {
      "inputs": [],
      "name": "token",
      "outputs": [
        {
          "internalType": "contract IFlameBornToken",
          "name": "",
          "type": "address"
        }
      ],
      "stateMutability": "view",
      "type": "function"
    },
    {
      "inputs": [
        {
          "internalType": "string",
          "name": "name",
          "type": "string"
        }
      ],
      "name": "tokenURIForActor",
      "outputs": [
        {
          "internalType": "string",
          "name": "",
          "type": "string"
        }
      ],
      "stateMutability": "pure",
      "type": "function"
    },
    {
      "inputs": [],
      "name": "totalDonations",
      "outputs": [
        {
          "internalType": "uint256",
          "name": "",
          "type": "uint256"
        }
      ],
      "stateMutability": "view",
      "type": "function"
    },
    {
      "inputs": [
        {
          "internalType": "address",
          "name": "newImplementation",
          "type": "address"
        },
        {
          "internalType": "bytes",
          "name": "data",
          "type": "bytes"
        }
      ],
      "name": "upgradeToAndCall",
      "outputs": [],
      "stateMutability": "payable",
      "type": "function"
    },
    {
      "inputs": [
        {
          "internalType": "address",
          "name": "actorAddress",
          "type": "address"
        },
        {
          "internalType": "enum FlameBornEngine.ActorRole",
          "name": "role",
          "type": "uint8"
        },
        {
          "internalType": "string",
          "name": "name",
          "type": "string"
        },
        {
          "internalType": "string",
          "name": "licenseId",
          "type": "string"
        },
        {
          "internalType": "string",
          "name": "phone",
          "type": "string"
        }
      ],
      "name": "verifyActor",
      "outputs": [],
      "stateMutability": "nonpayable",
      "type": "function"
    },
    {
      "inputs": [
        {
          "internalType": "address payable",
          "name": "recipient",
          "type": "address"
        }
      ],
      "name": "withdrawDonations",
      "outputs": [],
      "stateMutability": "nonpayable",
      "type": "function"
    }
  ],
  "bytecode": "0x60a06040523060805234801561001457600080fd5b5061001d610022565b6100d4565b7ff0c57e16840df040f15088dc2f81fe391c3923bec73e23a9662efc9c229c6a00805468010000000000000000900460ff16156100725760405163f92ee8a960e01b815260040160405180910390fd5b80546001600160401b03908116146100d15780546001600160401b0319166001600160401b0390811782556040519081527fc7f505b2f371ae2175ee4913f4499e1f2633a7b5936321eed1cdaeb6115181d29060200160405180910390a15b50565b6080516123956100fd600039600081816117730152818161179c01526118e201526123956000f3fe6080604052600436106101ee5760003560e01c80637b8c8de11161010d578063d547741f116100a0578063eaa66a3c1161006f578063eaa66a3c146105dc578063ed88c68e146105fc578063f5c515be14610604578063f68e95531461063d578063fc0c546a1461067157600080fd5b8063d547741f14610575578063d78360bc14610595578063db45810e146105ab578063de2ed893146105c657600080fd5b8063a217fddf116100dc578063a217fddf146104ef578063a56f5b5314610504578063a6b63eb814610524578063ad3cb1cc1461054457600080fd5b80637b8c8de11461048257806384d49d82146104af57806391d14854146104cf57806395d89b41146102ab57600080fd5b80634138d167116101855780635a21ce24116101545780635a21ce24146103f457806362158c751461042c578063624c67221461044c578063678f93501461046c57600080fd5b80634138d167146103695780634f1ef2861461039a57806352d1902d146103ad57806358b7bf61146103c257600080fd5b806314e02500116101c157806314e02500146102da578063248a9ca3146103075780632f2ff15d1461032757806336568abe1461034957600080fd5b806301ffc9a7146101f357806306fdde0314610228578063096428411461026957806311375e01146102ab575b600080fd5b3480156101ff57600080fd5b5061021361020e366004611bde565b610691565b60405190151581526020015b60405180910390f35b34801561023457600080fd5b5060408051808201909152600f81526e466c616d65426f726e456e67696e6560881b60208201525b60405161021f9190611c58565b34801561027557600080fd5b5061029d7fd9fa870f425abcc65e9f66291fd387e7d8e4b1a8019d84df97822b1a0643f58581565b60405190815260200161021f565b3480156102b757600080fd5b5060408051808201909152600681526523262116a2a760d11b602082015261025c565b3480156102e657600080fd5b5061029d6102f5366004611c80565b60076020526000908152604090205481565b34801561031357600080fd5b5061029d610322366004611c9d565b6106c8565b34801561033357600080fd5b50610347610342366004611cb6565b6106ea565b005b34801561035557600080fd5b50610347610364366004611cb6565b61070c565b34801561037557600080fd5b50610389610384366004611c80565b610744565b60405161021f959493929190611d1e565b6103476103a8366004611e08565b610994565b3480156103b957600080fd5b5061029d6109b3565b3480156103ce57600080fd5b5061025c6040518060400160405280600681526020016523262116a2a760d11b81525081565b34801561040057600080fd5b50600154610414906001600160a01b031681565b6040516001600160a01b03909116815260200161021f565b34801561043857600080fd5b50610347610447366004611eb5565b6109d0565b34801561045857600080fd5b50610347610467366004611f11565b610b68565b34801561047857600080fd5b5061029d60035481565b34801561048e57600080fd5b5061029d61049d366004611c80565b60056020526000908152604090205481565b3480156104bb57600080fd5b5061025c6104ca366004611fe0565b610f06565b3480156104db57600080fd5b506102136104ea366004611cb6565b610f2f565b3480156104fb57600080fd5b5061029d600081565b34801561051057600080fd5b5061034761051f366004611c80565b610f67565b34801561053057600080fd5b5061034761053f366004612031565b611095565b34801561055057600080fd5b5061025c604051806040016040528060058152602001640352e302e360dc1b81525081565b34801561058157600080fd5b50610347610590366004611cb6565b611316565b3480156105a157600080fd5b5061029d60025481565b3480156105b757600080fd5b5061029d662386f26fc1000081565b3480156105d257600080fd5b5061029d60045481565b3480156105e857600080fd5b506103896105f7366004611c80565b611332565b610347611500565b34801561061057600080fd5b5061021361061f366004611c80565b6001600160a01b031660009081526006602052604090205460ff1690565b34801561064957600080fd5b5061029d7fedcc084d3dcd65a1f7f23c65c46722faca6953d28e43150a467cf43e5c30923881565b34801561067d57600080fd5b50600054610414906001600160a01b031681565b60006001600160e01b03198216637965db0b60e01b14806106c257506301ffc9a760e01b6001600160e01b03198316145b92915050565b6000908152600080516020612340833981519152602052604090206001015490565b6106f3826106c8565b6106fc8161163a565b6107068383611647565b50505050565b6001600160a01b03811633146107355760405163334bd91960e11b815260040160405180910390fd5b61073f82826116ec565b505050565b6001600160a01b0381166000908152600660209081526040808320815160a08101909252805460ff808216151584528594606094859485948894929391929184019161010090910416600581111561079e5761079e611ce6565b60058111156107af576107af611ce6565b81526020016001820180546107c39061208c565b80601f01602080910402602001604051908101604052809291908181526020018280546107ef9061208c565b801561083c5780601f106108115761010080835404028352916020019161083c565b820191906000526020600020905b81548152906001019060200180831161081f57829003601f168201915b505050505081526020016002820180546108559061208c565b80601f01602080910402602001604051908101604052809291908181526020018280546108819061208c565b80156108ce5780601f106108a3576101008083540402835291602001916108ce565b820191906000526020600020905b8154815290600101906020018083116108b157829003601f168201915b505050505081526020016003820180546108e79061208c565b80601f01602080910402602001604051908101604052809291908181526020018280546109139061208c565b80156109605780601f1061093557610100808354040283529160200191610960565b820191906000526020600020905b81548152906001019060200180831161094357829003601f168201915b5050509190925250508151602083015160408401516060850151608090950151929c919b5099509297509550909350505050565b61099c611768565b6109a58261180f565b6109af828261181a565b5050565b60006109bd6118d7565b5060008051602061232083398151915290565b7fd9fa870f425abcc65e9f66291fd387e7d8e4b1a8019d84df97822b1a0643f5856109fa8161163a565b6001600160a01b038516610a445760405162461bcd60e51b815260206004820152600c60248201526b24b73b30b634b2103ab9b2b960a11b60448201526064015b60405180910390fd5b60008411610a895760405162461bcd60e51b81526020600482015260126024820152710526577617264206d757374206265203e20360741b6044820152606401610a3b565b6001600160a01b03851660009081526007602052604081208054869290610ab19084906120dc565b90915550506000546040516340c10f1960e01b81526001600160a01b03878116600483015260248201879052909116906340c10f1990604401600060405180830381600087803b158015610b0457600080fd5b505af1158015610b18573d6000803e3d6000fd5b50505050846001600160a01b03167ff746c75ab19937d58b2a3e0406d8d5fcd1e8ae5545a89c47e88e53497787182c848487604051610b5993929190612118565b60405180910390a25050505050565b7fedcc084d3dcd65a1f7f23c65c46722faca6953d28e43150a467cf43e5c309238610b928161163a565b6001600160a01b038916610bd85760405162461bcd60e51b815260206004820152600d60248201526c24b73b30b634b21030b1ba37b960991b6044820152606401610a3b565b6001600160a01b03891660009081526006602052604090205460ff1615610c1d57604051635a01047360e01b81526001600160a01b038a166004820152602401610a3b565b6040518060a00160405280600115158152602001896005811115610c4357610c43611ce6565b815260200188888080601f016020809104026020016040519081016040528093929190818152602001838380828437600092019190915250505090825250604080516020601f890181900481028201810190925287815291810191908890889081908401838280828437600092019190915250505090825250604080516020601f87018190048102820181019092528581529181019190869086908190840183828082843760009201829052509390945250506001600160a01b038c1681526006602090815260409091208351815490151560ff19821681178355928501519193509091839161ff001990911661ffff1990911617610100836005811115610d4d57610d4d611ce6565b021790555060408201516001820190610d66908261218a565b5060608201516002820190610d7b908261218a565b5060808201516003820190610d90908261218a565b509050506000610dd588888080601f016020809104026020016040519081016040528093929190818152602001838380828437600092019190915250610f0692505050565b6001546040516311c741bd60e21b81529192506001600160a01b03169063471d06f490610e08908d908590600401612249565b6020604051808303816000875af1158015610e27573d6000803e3d6000fd5b505050506040513d601f19601f82011682018060405250810190610e4b919061226d565b506000546002546040516340c10f1960e01b81526001600160a01b038d8116600483015260248201929092529116906340c10f1990604401600060405180830381600087803b158015610e9d57600080fd5b505af1158015610eb1573d6000803e3d6000fd5b50505050896001600160a01b03167fa8c194a0bb99fe5563599cd2f9a5c005a12a87ad542c02dd32d07fd57c1134258a8a8a604051610ef293929190612286565b60405180910390a250505050505050505050565b606081604051602001610f1991906122a7565b6040516020818303038152906040529050919050565b6000918252600080516020612340833981519152602090815260408084206001600160a01b0393909316845291905290205460ff1690565b6000610f728161163a565b4780610fb55760405162461bcd60e51b81526020600482015260126024820152714e6f2066756e647320617661696c61626c6560701b6044820152606401610a3b565b6001600160a01b0383166110005760405162461bcd60e51b8152602060048201526012602482015271149958da5c1a595b9d081c995c5d5a5c995960721b6044820152606401610a3b565b6000836001600160a01b03168260405160006040518083038185875af1925050503d806000811461104d576040519150601f19603f3d011682016040523d82523d6000602084013e611052565b606091505b50509050806107065760405162461bcd60e51b815260206004820152600f60248201526e151c985b9cd9995c8819985a5b1959608a1b6044820152606401610a3b565b600061109f611920565b805490915060ff600160401b820416159067ffffffffffffffff166000811580156110c75750825b905060008267ffffffffffffffff1660011480156110e45750303b155b9050811580156110f2575080155b156111105760405163f92ee8a960e01b815260040160405180910390fd5b845467ffffffffffffffff19166001178555831561113a57845460ff60401b1916600160401b1785555b6001600160a01b038a166111815760405162461bcd60e51b815260206004820152600e60248201526d10591b5a5b881c995c5d5a5c995960921b6044820152606401610a3b565b6001600160a01b0389166111c85760405162461bcd60e51b815260206004820152600e60248201526d151bdad95b881c995c5d5a5c995960921b6044820152606401610a3b565b6001600160a01b0388166112155760405162461bcd60e51b81526020600482015260146024820152731219585b1d1a1251139195081c995c5d5a5c995960621b6044820152606401610a3b565b61121d611949565b611225611949565b61122d611951565b600080546001600160a01b03808c166001600160a01b031992831617835560018054918c16919092161790556002889055600387905561126d908b611647565b506112987fedcc084d3dcd65a1f7f23c65c46722faca6953d28e43150a467cf43e5c3092388b611647565b506112c37fd9fa870f425abcc65e9f66291fd387e7d8e4b1a8019d84df97822b1a0643f5858b611647565b50831561130a57845460ff60401b19168555604051600181527fc7f505b2f371ae2175ee4913f4499e1f2633a7b5936321eed1cdaeb6115181d29060200160405180910390a15b50505050505050505050565b61131f826106c8565b6113288161163a565b61070683836116ec565b6006602052600090815260409020805460018201805460ff80841694610100909404169291906113619061208c565b80601f016020809104026020016040519081016040528092919081815260200182805461138d9061208c565b80156113da5780601f106113af576101008083540402835291602001916113da565b820191906000526020600020905b8154815290600101906020018083116113bd57829003601f168201915b5050505050908060020180546113ef9061208c565b80601f016020809104026020016040519081016040528092919081815260200182805461141b9061208c565b80156114685780601f1061143d57610100808354040283529160200191611468565b820191906000526020600020905b81548152906001019060200180831161144b57829003601f168201915b50505050509080600301805461147d9061208c565b80601f01602080910402602001604051908101604052809291908181526020018280546114a99061208c565b80156114f65780601f106114cb576101008083540402835291602001916114f6565b820191906000526020600020905b8154815290600101906020018083116114d957829003601f168201915b5050505050905085565b662386f26fc1000034101561154c5760405162461bcd60e51b8152602060048201526012602482015271111bdb985d1a5bdb881d1bdbc81cdb585b1b60721b6044820152606401610a3b565b346004600082825461155e91906120dc565b909155505033600090815260056020526040812080543492906115829084906120dc565b909155505060035460009061159790346122ec565b6000546040516340c10f1960e01b8152336004820152602481018390529192506001600160a01b0316906340c10f1990604401600060405180830381600087803b1580156115e457600080fd5b505af11580156115f8573d6000803e3d6000fd5b505060408051348152602081018590523393507f4b0304ab2f313234b1cea012339c8f8c3bf2c8bb357d81a579cfdb35d2e3d03092500160405180910390a250565b6116448133611961565b50565b60006000805160206123408339815191526116628484610f2f565b6116e2576000848152602082815260408083206001600160a01b03871684529091529020805460ff191660011790556116983390565b6001600160a01b0316836001600160a01b0316857f2f8788117e7eff1d82e926ec794901d17c78024a50270940304540a733656f0d60405160405180910390a460019150506106c2565b60009150506106c2565b60006000805160206123408339815191526117078484610f2f565b156116e2576000848152602082815260408083206001600160a01b0387168085529252808320805460ff1916905551339287917ff6391f5c32d9c69d2a47ea670b442974b53935d1edc7fd64eb21e047a839171b9190a460019150506106c2565b306001600160a01b037f00000000000000000000000000000000000000000000000000000000000000001614806117ef57507f00000000000000000000000000000000000000000000000000000000000000006001600160a01b03166117e3600080516020612320833981519152546001600160a01b031690565b6001600160a01b031614155b1561180d5760405163703e46dd60e11b815260040160405180910390fd5b565b60006109af8161163a565b816001600160a01b03166352d1902d6040518163ffffffff1660e01b8152600401602060405180830381865afa925050508015611874575060408051601f3d908101601f191682019092526118719181019061226d565b60015b61189c57604051634c9c8ce360e01b81526001600160a01b0383166004820152602401610a3b565b60008051602061232083398151915281146118cd57604051632a87526960e21b815260048101829052602401610a3b565b61073f838361199a565b306001600160a01b037f0000000000000000000000000000000000000000000000000000000000000000161461180d5760405163703e46dd60e11b815260040160405180910390fd5b6000807ff0c57e16840df040f15088dc2f81fe391c3923bec73e23a9662efc9c229c6a006106c2565b61180d6119f0565b6119596119f0565b61180d611a15565b61196b8282610f2f565b6109af5760405163e2517d3f60e01b81526001600160a01b038216600482015260248101839052604401610a3b565b6119a382611a43565b6040516001600160a01b038316907fbc7cd75a20ee27fd9adebab32041f755214dbc6bffa90cc0225b39da2e5c2d3b90600090a28051156119e85761073f8282611aa8565b6109af611b1e565b6119f8611b3d565b61180d57604051631afcd79f60e31b815260040160405180910390fd5b611a1d6119f0565b60017f9b779b17422d0df92223018b32b4d1fa46e071723d6817e2486d003becc55f0055565b806001600160a01b03163b600003611a7957604051634c9c8ce360e01b81526001600160a01b0382166004820152602401610a3b565b60008051602061232083398151915280546001600160a01b0319166001600160a01b0392909216919091179055565b6060600080846001600160a01b031684604051611ac59190612303565b600060405180830381855af49150503d8060008114611b00576040519150601f19603f3d011682016040523d82523d6000602084013e611b05565b606091505b5091509150611b15858383611b57565b95945050505050565b341561180d5760405163b398979f60e01b815260040160405180910390fd5b6000611b47611920565b54600160401b900460ff16919050565b606082611b6c57611b6782611bb6565b611baf565b8151158015611b8357506001600160a01b0384163b155b15611bac57604051639996b31560e01b81526001600160a01b0385166004820152602401610a3b565b50805b9392505050565b805115611bc557805160208201fd5b60405163d6bda27560e01b815260040160405180910390fd5b600060208284031215611bf057600080fd5b81356001600160e01b031981168114611baf57600080fd5b60005b83811015611c23578181015183820152602001611c0b565b50506000910152565b60008151808452611c44816020860160208601611c08565b601f01601f19169290920160200192915050565b602081526000611baf6020830184611c2c565b6001600160a01b038116811461164457600080fd5b600060208284031215611c9257600080fd5b8135611baf81611c6b565b600060208284031215611caf57600080fd5b5035919050565b60008060408385031215611cc957600080fd5b823591506020830135611cdb81611c6b565b809150509250929050565b634e487b7160e01b600052602160045260246000fd5b60068110611d1a57634e487b7160e01b600052602160045260246000fd5b9052565b8515158152611d306020820186611cfc565b60a060408201526000611d4660a0830186611c2c565b8281036060840152611d588186611c2c565b90508281036080840152611d6c8185611c2c565b98975050505050505050565b634e487b7160e01b600052604160045260246000fd5b60008067ffffffffffffffff841115611da957611da9611d78565b50604051601f19601f85018116603f0116810181811067ffffffffffffffff82111715611dd857611dd8611d78565b604052838152905080828401851015611df057600080fd5b83836020830137600060208583010152509392505050565b60008060408385031215611e1b57600080fd5b8235611e2681611c6b565b9150602083013567ffffffffffffffff811115611e4257600080fd5b8301601f81018513611e5357600080fd5b611e6285823560208401611d8e565b9150509250929050565b60008083601f840112611e7e57600080fd5b50813567ffffffffffffffff811115611e9657600080fd5b602083019150836020828501011115611eae57600080fd5b9250929050565b60008060008060608587031215611ecb57600080fd5b8435611ed681611c6b565b935060208501359250604085013567ffffffffffffffff811115611ef957600080fd5b611f0587828801611e6c565b95989497509550505050565b60008060008060008060008060a0898b031215611f2d57600080fd5b8835611f3881611c6b565b9750602089013560068110611f4c57600080fd5b9650604089013567ffffffffffffffff811115611f6857600080fd5b611f748b828c01611e6c565b909750955050606089013567ffffffffffffffff811115611f9457600080fd5b611fa08b828c01611e6c565b909550935050608089013567ffffffffffffffff811115611fc057600080fd5b611fcc8b828c01611e6c565b999c989b5096995094979396929594505050565b600060208284031215611ff257600080fd5b813567ffffffffffffffff81111561200957600080fd5b8201601f8101841361201a57600080fd5b61202984823560208401611d8e565b949350505050565b600080600080600060a0868803121561204957600080fd5b853561205481611c6b565b9450602086013561206481611c6b565b9350604086013561207481611c6b565b94979396509394606081013594506080013592915050565b600181811c908216806120a057607f821691505b6020821081036120c057634e487b7160e01b600052602260045260246000fd5b50919050565b634e487b7160e01b600052601160045260246000fd5b808201808211156106c2576106c26120c6565b81835281816020850137506000828201602090810191909152601f909101601f19169091010190565b60408152600061212c6040830185876120ef565b9050826020830152949350505050565b601f82111561073f57806000526020600020601f840160051c810160208510156121635750805b601f840160051c820191505b81811015612183576000815560010161216f565b5050505050565b815167ffffffffffffffff8111156121a4576121a4611d78565b6121b8816121b2845461208c565b8461213c565b6020601f8211600181146121ec57600083156121d45750848201515b600019600385901b1c1916600184901b178455612183565b600084815260208120601f198516915b8281101561221c57878501518255602094850194600190920191016121fc565b508482101561223a5786840151600019600387901b60f8161c191681555b50505050600190811b01905550565b6001600160a01b038316815260406020820181905260009061202990830184611c2c565b60006020828403121561227f57600080fd5b5051919050565b6122908185611cfc565b604060208201526000611b156040830184866120ef565b7f68747470733a2f2f6578616d706c652e636f6d2f6d657461646174612f0000008152600082516122df81601d850160208701611c08565b91909101601d0192915050565b80820281158282048414176106c2576106c26120c6565b60008251612315818460208701611c08565b919091019291505056fe360894a13ba1a3210667c828492db98dca3e2076cc3735a920a3ca505d382bbc02dd7bc7dec4dceedda775e58dd541e08a116c6c53815c0bd028192f7b626800a26469706673582212208fd71f9e979ad3ef92e3b2357c156b5847d564fbbe0ac081da69e72ff720abf264736f6c634300081c0033",
  "linkReferences": {},
  "deployedLinkReferences": {}
}