{
  "_format": "hh-sol-artifact-1",
  "contractName": "FlameBornEngine",
  "sourceName": "contracts/FlameBornEngine.sol",
  "abi": [
    {
      "inputs": [],
      "stateMutability": "nonpayable",
      "type": "constructor"
    },
    {
      "inputs": [],
      "name": "AccessControlBadConfirmation",
      "type": "error"
    },
    {
      "inputs": [
        {
          "internalType": "address",
          "name": "account",
          "type": "address"
        },
        {
          "internalType": "bytes32",
          "name": "neededRole",
          "type": "bytes32"
        }
      ],
      "name": "AccessControlUnauthorizedAccount",
      "type": "error"
    },
    {
      "inputs": [
        {
          "internalType": "address",
          "name": "actor",
          "type": "address"
        }
      ],
      "name": "ActorAlreadyVerified",
      "type": "error"
    },
    {
      "inputs": [
        {
          "internalType": "address",
          "name": "target",
          "type": "address"
        }
      ],
      "name": "AddressEmptyCode",
      "type": "error"
    },
    {
      "inputs": [
        {
          "internalType": "address",
          "name": "implementation",
          "type": "address"
        }
      ],
      "name": "ERC1967InvalidImplementation",
      "type": "error"
    },
    {
      "inputs": [],
      "name": "ERC1967NonPayable",
      "type": "error"
    },
    {
      "inputs": [],
      "name": "FailedCall",
      "type": "error"
    },
    {
      "inputs": [],
      "name": "InvalidInitialization",
      "type": "error"
    },
    {
      "inputs": [],
      "name": "NotInitializing",
      "type": "error"
    },
    {
      "inputs": [],
      "name": "ReentrancyGuardReentrantCall",
      "type": "error"
    },
    {
      "inputs": [],
      "name": "UUPSUnauthorizedCallContext",
      "type": "error"
    },
    {
      "inputs": [
        {
          "internalType": "bytes32",
          "name": "slot",
          "type": "bytes32"
        }
      ],
      "name": "UUPSUnsupportedProxiableUUID",
      "type": "error"
    },
    {
      "anonymous": false,
      "inputs": [
        {
          "indexed": true,
          "internalType": "address",
          "name": "actor",
          "type": "address"
        },
        {
          "indexed": false,
          "internalType": "enum FlameBornEngine.ActorRole",
          "name": "role",
          "type": "uint8"
        },
        {
          "indexed": false,
          "internalType": "string",
          "name": "name",
          "type": "string"
        }
      ],
      "name": "ActorVerified",
      "type": "event"
    },
    {
      "anonymous": false,
      "inputs": [
        {
          "indexed": true,
          "internalType": "address",
          "name": "donor",
          "type": "address"
        },
        {
          "indexed": false,
          "internalType": "uint256",
          "name": "amountETH",
          "type": "uint256"
        },
        {
          "indexed": false,
          "internalType": "uint256",
          "name": "rewardFLB",
          "type": "uint256"
        }
      ],
      "name": "DonationReceived",
      "type": "event"
    },
    {
      "anonymous": false,
      "inputs": [
        {
          "indexed": false,
          "internalType": "uint64",
          "name": "version",
          "type": "uint64"
        }
      ],
      "name": "Initialized",
      "type": "event"
    },
    {
      "anonymous": false,
      "inputs": [
        {
          "indexed": true,
          "internalType": "address",
          "name": "user",
          "type": "address"
        },
        {
          "indexed": false,
          "internalType": "string",
          "name": "questId",
          "type": "string"
        },
        {
          "indexed": false,
          "internalType": "uint256",
          "name": "reward",
          "type": "uint256"
        }
      ],
      "name": "QuestRewarded",
      "type": "event"
    },
    {
      "anonymous": false,
      "inputs": [
        {
          "indexed": true,
          "internalType": "bytes32",
          "name": "role",
          "type": "bytes32"
        },
        {
          "indexed": true,
          "internalType": "bytes32",
          "name": "previousAdminRole",
          "type": "bytes32"
        },
        {
          "indexed": true,
          "internalType": "bytes32",
          "name": "newAdminRole",
          "type": "bytes32"
        }
      ],
      "name": "RoleAdminChanged",
      "type": "event"
    },
    {
      "anonymous": false,
      "inputs": [
        {
          "indexed": true,
          "internalType": "bytes32",
          "name": "role",
          "type": "bytes32"
        },
        {
          "indexed": true,
          "internalType": "address",
          "name": "account",
          "type": "address"
        },
        {
          "indexed": true,
          "internalType": "address",
          "name": "sender",
          "type": "address"
        }
      ],
      "name": "RoleGranted",
      "type": "event"
    },
    {
      "anonymous": false,
      "inputs": [
        {
          "indexed": true,
          "internalType": "bytes32",
          "name": "role",
          "type": "bytes32"
        },
        {
          "indexed": true,
          "internalType": "address",
          "name": "account",
          "type": "address"
        },
        {
          "indexed": true,
          "internalType": "address",
          "name": "sender",
          "type": "address"
        }
      ],
      "name": "RoleRevoked",
      "type": "event"
    },
    {
      "anonymous": false,
      "inputs": [
        {
          "indexed": true,
          "internalType": "address",
          "name": "implementation",
          "type": "address"
        }
      ],
      "name": "Upgraded",
      "type": "event"
    },
    {
      "inputs": [],
      "name": "DEFAULT_ADMIN_ROLE",
      "outputs": [
        {
          "internalType": "bytes32",
          "name": "",
          "type": "bytes32"
        }
      ],
      "stateMutability": "view",
      "type": "function"
    },
    {
      "inputs": [],
      "name": "ENGINE_TAG",
      "outputs": [
        {
          "internalType": "string",
          "name": "",
          "type": "string"
        }
      ],
      "stateMutability": "view",
      "type": "function"
    },
    {
      "inputs": [],
      "name": "MIN_DONATION",
      "outputs": [
        {
          "internalType": "uint256",
          "name": "",
          "type": "uint256"
        }
      ],
      "stateMutability": "view",
      "type": "function"
    },
    {
      "inputs": [],
      "name": "QUEST_ADMIN_ROLE",
      "outputs": [
        {
          "internalType": "bytes32",
          "name": "",
          "type": "bytes32"
        }
      ],
      "stateMutability": "view",
      "type": "function"
    },
    {
      "inputs": [],
      "name": "REGISTRAR_ROLE",
      "outputs": [
        {
          "internalType": "bytes32",
          "name": "",
          "type": "bytes32"
        }
      ],
      "stateMutability": "view",
      "type": "function"
    },
    {
      "inputs": [],
      "name": "UPGRADE_INTERFACE_VERSION",
      "outputs": [
        {
          "internalType": "string",
          "name": "",
          "type": "string"
        }
      ],
      "stateMutability": "view",
      "type": "function"
    },
    {
      "inputs": [],
      "name": "actorReward",
      "outputs": [
        {
          "internalType": "uint256",
          "name": "",
          "type": "uint256"
        }
      ],
      "stateMutability": "view",
      "type": "function"
    },
    {
      "inputs": [
        {
          "internalType": "address",
          "name": "",
          "type": "address"
        }
      ],
      "name": "actors",
      "outputs": [
        {
          "internalType": "bool",
          "name": "verified",
          "type": "bool"
        },
        {
          "internalType": "enum FlameBornEngine.ActorRole",
          "name": "role",
          "type": "uint8"
        },
        {
          "internalType": "string",
          "name": "name",
          "type": "string"
        },
        {
          "internalType": "string",
          "name": "licenseId",
          "type": "string"
        },
        {
          "internalType": "string",
          "name": "phone",
          "type": "string"
        }
      ],
      "stateMutability": "view",
      "type": "function"
    },
    {
      "inputs": [
        {
          "internalType": "address",
          "name": "user",
          "type": "address"
        },
        {
          "internalType": "uint256",
          "name": "reward",
          "type": "uint256"
        },
        {
          "internalType": "string",
          "name": "questId",
          "type": "string"
        }
      ],
      "name": "awardQuest",
      "outputs": [],
      "stateMutability": "nonpayable",
      "type": "function"
    },
    {
      "inputs": [],
      "name": "donate",
      "outputs": [],
      "stateMutability": "payable",
      "type": "function"
    },
    {
      "inputs": [],
      "name": "donationRewardRate",
      "outputs": [
        {
          "internalType": "uint256",
          "name": "",
          "type": "uint256"
        }
      ],
      "stateMutability": "view",
      "type": "function"
    },
    {
      "inputs": [
        {
          "internalType": "address",
          "name": "",
          "type": "address"
        }
      ],
      "name": "donorBalances",
      "outputs": [
        {
          "internalType": "uint256",
          "name": "",
          "type": "uint256"
        }
      ],
      "stateMutability": "view",
      "type": "function"
    },
    {
      "inputs": [],
      "name": "engineTag",
      "outputs": [
        {
          "internalType": "string",
          "name": "",
          "type": "string"
        }
      ],
      "stateMutability": "pure",
      "type": "function"
    },
    {
      "inputs": [
        {
          "internalType": "address",
          "name": "actor",
          "type": "address"
        }
      ],
      "name": "getActor",
      "outputs": [
        {
          "internalType": "bool",
          "name": "verified",
          "type": "bool"
        },
        {
          "internalType": "enum FlameBornEngine.ActorRole",
          "name": "role",
          "type": "uint8"
        },
        {
          "internalType": "string",
          "name": "name",
          "type": "string"
        },
        {
          "internalType": "string",
          "name": "licenseId",
          "type": "string"
        },
        {
          "internalType": "string",
          "name": "phone",
          "type": "string"
        }
      ],
      "stateMutability": "view",
      "type": "function"
    },
    {
      "inputs": [
        {
          "internalType": "bytes32",
          "name": "role",
          "type": "bytes32"
        }
      ],
      "name": "getRoleAdmin",
      "outputs": [
        {
          "internalType": "bytes32",
          "name": "",
          "type": "bytes32"
        }
      ],
      "stateMutability": "view",
      "type": "function"
    },
    {
      "inputs": [
        {
          "internalType": "bytes32",
          "name": "role",
          "type": "bytes32"
        },
        {
          "internalType": "address",
          "name": "account",
          "type": "address"
        }
      ],
      "name": "grantRole",
      "outputs": [],
      "stateMutability": "nonpayable",
      "type": "function"
    },
    {
      "inputs": [
        {
          "internalType": "bytes32",
          "name": "role",
          "type": "bytes32"
        },
        {
          "internalType": "address",
          "name": "account",
          "type": "address"
        }
      ],
      "name": "hasRole",
      "outputs": [
        {
          "internalType": "bool",
          "name": "",
          "type": "bool"
        }
      ],
      "stateMutability": "view",
      "type": "function"
    },
    {
      "inputs": [],
      "name": "healthIDNFT",
      "outputs": [
        {
          "internalType": "contract IHealthIDNFT",
          "name": "",
          "type": "address"
        }
      ],
      "stateMutability": "view",
      "type": "function"
    },
    {
      "inputs": [
        {
          "internalType": "address",
          "name": "admin",
          "type": "address"
        },
        {
          "internalType": "address",
          "name": "_token",
          "type": "address"
        },
        {
          "internalType": "address",
          "name": "_healthIDNFT",
          "type": "address"
        },
        {
          "internalType": "uint256",
          "name": "_actorReward",
          "type": "uint256"
        },
        {
          "internalType": "uint256",
          "name": "_donationRewardRate",
          "type": "uint256"
        }
      ],
      "name": "initialize",
      "outputs": [],
      "stateMutability": "nonpayable",
      "type": "function"
    },
    {
      "inputs": [
        {
          "internalType": "address",
          "name": "actor",
          "type": "address"
        }
      ],
      "name": "isVerifiedActor",
      "outputs": [
        {
          "internalType": "bool",
          "name": "",
          "type": "bool"
        }
      ],
      "stateMutability": "view",
      "type": "function"
    },
    {
      "inputs": [],
      "name": "proxiableUUID",
      "outputs": [
        {
          "internalType": "bytes32",
          "name": "",
          "type": "bytes32"
        }
      ],
      "stateMutability": "view",
      "type": "function"
    },
    {
      "inputs": [
        {
          "internalType": "address",
          "name": "",
          "type": "address"
        }
      ],
      "name": "questRewards",
      "outputs": [
        {
          "internalType": "uint256",
          "name": "",
          "type": "uint256"
        }
      ],
      "stateMutability": "view",
      "type": "function"
    },
    {
      "inputs": [
        {
          "internalType": "bytes32",
          "name": "role",
          "type": "bytes32"
        },
        {
          "internalType": "address",
          "name": "callerConfirmation",
          "type": "address"
        }
      ],
      "name": "renounceRole",
      "outputs": [],
      "stateMutability": "nonpayable",
      "type": "function"
    },
    {
      "inputs": [
        {
          "internalType": "bytes32",
          "name": "role",
          "type": "bytes32"
        },
        {
          "internalType": "address",
          "name": "account",
          "type": "address"
        }
      ],
      "name": "revokeRole",
      "outputs": [],
      "stateMutability": "nonpayable",
      "type": "function"
    },
    {
      "inputs": [
        {
          "internalType": "bytes4",
          "name": "interfaceId",
          "type": "bytes4"
        }
      ],
      "name": "supportsInterface",
      "outputs": [
        {
          "internalType": "bool",
          "name": "",
          "type": "bool"
        }
      ],
      "stateMutability": "view",
      "type": "function"
    },
    {
      "inputs": [],
      "name": "token",
      "outputs": [
        {
          "internalType": "contract IFlameBornToken",
          "name": "",
          "type": "address"
        }
      ],
      "stateMutability": "view",
      "type": "function"
    },
    {
      "inputs": [
        {
          "internalType": "string",
          "name": "name",
          "type": "string"
        }
      ],
      "name": "tokenURIForActor",
      "outputs": [
        {
          "internalType": "string",
          "name": "",
          "type": "string"
        }
      ],
      "stateMutability": "pure",
      "type": "function"
    },
    {
      "inputs": [],
      "name": "totalDonations",
      "outputs": [
        {
          "internalType": "uint256",
          "name": "",
          "type": "uint256"
        }
      ],
      "stateMutability": "view",
      "type": "function"
    },
    {
      "inputs": [
        {
          "internalType": "address",
          "name": "newImplementation",
          "type": "address"
        },
        {
          "internalType": "bytes",
          "name": "data",
          "type": "bytes"
        }
      ],
      "name": "upgradeToAndCall",
      "outputs": [],
      "stateMutability": "payable",
      "type": "function"
    },
    {
      "inputs": [
        {
          "internalType": "address",
          "name": "actorAddress",
          "type": "address"
        },
        {
          "internalType": "enum FlameBornEngine.ActorRole",
          "name": "role",
          "type": "uint8"
        },
        {
          "internalType": "string",
          "name": "name",
          "type": "string"
        },
        {
          "internalType": "string",
          "name": "licenseId",
          "type": "string"
        },
        {
          "internalType": "string",
          "name": "phone",
          "type": "string"
        }
      ],
      "name": "verifyActor",
      "outputs": [],
      "stateMutability": "nonpayable",
      "type": "function"
    },
    {
      "inputs": [
        {
          "internalType": "address payable",
          "name": "recipient",
          "type": "address"
        }
      ],
      "name": "withdrawDonations",
      "outputs": [],
      "stateMutability": "nonpayable",
      "type": "function"
    }
  ],
  "bytecode": "0x60a06040523060805234801561001457600080fd5b5061001d610022565b6100d4565b7ff0c57e16840df040f15088dc2f81fe391c3923bec73e23a9662efc9c229c6a00805468010000000000000000900460ff16156100725760405163f92ee8a960e01b815260040160405180910390fd5b80546001600160401b03908116146100d15780546001600160401b0319166001600160401b0390811782556040519081527fc7f505b2f371ae2175ee4913f4499e1f2633a7b5936321eed1cdaeb6115181d29060200160405180910390a15b50565b6080516123476100fd600039600081816117250152818161174e015261189401526123476000f3fe6080604052600436106101d85760003560e01c80637b8c8de111610102578063d78360bc11610095578063ed88c68e11610064578063ed88c68e146105ae578063f5c515be146105b6578063f68e9553146105ef578063fc0c546a1461062357600080fd5b8063d78360bc14610547578063db45810e1461055d578063de2ed89314610578578063eaa66a3c1461058e57600080fd5b8063a56f5b53116100d1578063a56f5b53146104b6578063a6b63eb8146104d6578063ad3cb1cc146104f6578063d547741f1461052757600080fd5b80637b8c8de11461043457806384d49d821461046157806391d1485414610481578063a217fddf146104a157600080fd5b80634138d1671161017a5780635a21ce24116101495780635a21ce24146103a657806362158c75146103de578063624c6722146103fe578063678f93501461041e57600080fd5b80634138d1671461031b5780634f1ef2861461034c57806352d1902d1461035f57806358b7bf611461037457600080fd5b806314e02500116101b657806314e025001461028c578063248a9ca3146102b95780632f2ff15d146102d957806336568abe146102fb57600080fd5b806301ffc9a7146101dd578063096428411461021257806311375e0114610254575b600080fd5b3480156101e957600080fd5b506101fd6101f8366004611b90565b610643565b60405190151581526020015b60405180910390f35b34801561021e57600080fd5b506102467fd9fa870f425abcc65e9f66291fd387e7d8e4b1a8019d84df97822b1a0643f58581565b604051908152602001610209565b34801561026057600080fd5b5060408051808201909152600681526523262116a2a760d11b60208201525b6040516102099190611c0a565b34801561029857600080fd5b506102466102a7366004611c32565b60076020526000908152604090205481565b3480156102c557600080fd5b506102466102d4366004611c4f565b61067a565b3480156102e557600080fd5b506102f96102f4366004611c68565b61069c565b005b34801561030757600080fd5b506102f9610316366004611c68565b6106be565b34801561032757600080fd5b5061033b610336366004611c32565b6106f6565b604051610209959493929190611cd0565b6102f961035a366004611dba565b610946565b34801561036b57600080fd5b50610246610965565b34801561038057600080fd5b5061027f6040518060400160405280600681526020016523262116a2a760d11b81525081565b3480156103b257600080fd5b506001546103c6906001600160a01b031681565b6040516001600160a01b039091168152602001610209565b3480156103ea57600080fd5b506102f96103f9366004611e67565b610982565b34801561040a57600080fd5b506102f9610419366004611ec3565b610b1a565b34801561042a57600080fd5b5061024660035481565b34801561044057600080fd5b5061024661044f366004611c32565b60056020526000908152604090205481565b34801561046d57600080fd5b5061027f61047c366004611f92565b610eb8565b34801561048d57600080fd5b506101fd61049c366004611c68565b610ee1565b3480156104ad57600080fd5b50610246600081565b3480156104c257600080fd5b506102f96104d1366004611c32565b610f19565b3480156104e257600080fd5b506102f96104f1366004611fe3565b611047565b34801561050257600080fd5b5061027f604051806040016040528060058152602001640352e302e360dc1b81525081565b34801561053357600080fd5b506102f9610542366004611c68565b6112c8565b34801561055357600080fd5b5061024660025481565b34801561056957600080fd5b50610246662386f26fc1000081565b34801561058457600080fd5b5061024660045481565b34801561059a57600080fd5b5061033b6105a9366004611c32565b6112e4565b6102f96114b2565b3480156105c257600080fd5b506101fd6105d1366004611c32565b6001600160a01b031660009081526006602052604090205460ff1690565b3480156105fb57600080fd5b506102467fedcc084d3dcd65a1f7f23c65c46722faca6953d28e43150a467cf43e5c30923881565b34801561062f57600080fd5b506000546103c6906001600160a01b031681565b60006001600160e01b03198216637965db0b60e01b148061067457506301ffc9a760e01b6001600160e01b03198316145b92915050565b60009081526000805160206122f2833981519152602052604090206001015490565b6106a58261067a565b6106ae816115ec565b6106b883836115f9565b50505050565b6001600160a01b03811633146106e75760405163334bd91960e11b815260040160405180910390fd5b6106f1828261169e565b505050565b6001600160a01b0381166000908152600660209081526040808320815160a08101909252805460ff808216151584528594606094859485948894929391929184019161010090910416600581111561075057610750611c98565b600581111561076157610761611c98565b81526020016001820180546107759061203e565b80601f01602080910402602001604051908101604052809291908181526020018280546107a19061203e565b80156107ee5780601f106107c3576101008083540402835291602001916107ee565b820191906000526020600020905b8154815290600101906020018083116107d157829003601f168201915b505050505081526020016002820180546108079061203e565b80601f01602080910402602001604051908101604052809291908181526020018280546108339061203e565b80156108805780601f1061085557610100808354040283529160200191610880565b820191906000526020600020905b81548152906001019060200180831161086357829003601f168201915b505050505081526020016003820180546108999061203e565b80601f01602080910402602001604051908101604052809291908181526020018280546108c59061203e565b80156109125780601f106108e757610100808354040283529160200191610912565b820191906000526020600020905b8154815290600101906020018083116108f557829003601f168201915b5050509190925250508151602083015160408401516060850151608090950151929c919b5099509297509550909350505050565b61094e61171a565b610957826117c1565b61096182826117cc565b5050565b600061096f611889565b506000805160206122d283398151915290565b7fd9fa870f425abcc65e9f66291fd387e7d8e4b1a8019d84df97822b1a0643f5856109ac816115ec565b6001600160a01b0385166109f65760405162461bcd60e51b815260206004820152600c60248201526b24b73b30b634b2103ab9b2b960a11b60448201526064015b60405180910390fd5b60008411610a3b5760405162461bcd60e51b81526020600482015260126024820152710526577617264206d757374206265203e20360741b60448201526064016109ed565b6001600160a01b03851660009081526007602052604081208054869290610a6390849061208e565b90915550506000546040516340c10f1960e01b81526001600160a01b03878116600483015260248201879052909116906340c10f1990604401600060405180830381600087803b158015610ab657600080fd5b505af1158015610aca573d6000803e3d6000fd5b50505050846001600160a01b03167ff746c75ab19937d58b2a3e0406d8d5fcd1e8ae5545a89c47e88e53497787182c848487604051610b0b939291906120ca565b60405180910390a25050505050565b7fedcc084d3dcd65a1f7f23c65c46722faca6953d28e43150a467cf43e5c309238610b44816115ec565b6001600160a01b038916610b8a5760405162461bcd60e51b815260206004820152600d60248201526c24b73b30b634b21030b1ba37b960991b60448201526064016109ed565b6001600160a01b03891660009081526006602052604090205460ff1615610bcf57604051635a01047360e01b81526001600160a01b038a1660048201526024016109ed565b6040518060a00160405280600115158152602001896005811115610bf557610bf5611c98565b815260200188888080601f016020809104026020016040519081016040528093929190818152602001838380828437600092019190915250505090825250604080516020601f890181900481028201810190925287815291810191908890889081908401838280828437600092019190915250505090825250604080516020601f87018190048102820181019092528581529181019190869086908190840183828082843760009201829052509390945250506001600160a01b038c1681526006602090815260409091208351815490151560ff19821681178355928501519193509091839161ff001990911661ffff1990911617610100836005811115610cff57610cff611c98565b021790555060408201516001820190610d18908261213c565b5060608201516002820190610d2d908261213c565b5060808201516003820190610d42908261213c565b509050506000610d8788888080601f016020809104026020016040519081016040528093929190818152602001838380828437600092019190915250610eb892505050565b6001546040516311c741bd60e21b81529192506001600160a01b03169063471d06f490610dba908d9085906004016121fb565b6020604051808303816000875af1158015610dd9573d6000803e3d6000fd5b505050506040513d601f19601f82011682018060405250810190610dfd919061221f565b506000546002546040516340c10f1960e01b81526001600160a01b038d8116600483015260248201929092529116906340c10f1990604401600060405180830381600087803b158015610e4f57600080fd5b505af1158015610e63573d6000803e3d6000fd5b50505050896001600160a01b03167fa8c194a0bb99fe5563599cd2f9a5c005a12a87ad542c02dd32d07fd57c1134258a8a8a604051610ea493929190612238565b60405180910390a250505050505050505050565b606081604051602001610ecb9190612259565b6040516020818303038152906040529050919050565b60009182526000805160206122f2833981519152602090815260408084206001600160a01b0393909316845291905290205460ff1690565b6000610f24816115ec565b4780610f675760405162461bcd60e51b81526020600482015260126024820152714e6f2066756e647320617661696c61626c6560701b60448201526064016109ed565b6001600160a01b038316610fb25760405162461bcd60e51b8152602060048201526012602482015271149958da5c1a595b9d081c995c5d5a5c995960721b60448201526064016109ed565b6000836001600160a01b03168260405160006040518083038185875af1925050503d8060008114610fff576040519150601f19603f3d011682016040523d82523d6000602084013e611004565b606091505b50509050806106b85760405162461bcd60e51b815260206004820152600f60248201526e151c985b9cd9995c8819985a5b1959608a1b60448201526064016109ed565b60006110516118d2565b805490915060ff600160401b820416159067ffffffffffffffff166000811580156110795750825b905060008267ffffffffffffffff1660011480156110965750303b155b9050811580156110a4575080155b156110c25760405163f92ee8a960e01b815260040160405180910390fd5b845467ffffffffffffffff1916600117855583156110ec57845460ff60401b1916600160401b1785555b6001600160a01b038a166111335760405162461bcd60e51b815260206004820152600e60248201526d10591b5a5b881c995c5d5a5c995960921b60448201526064016109ed565b6001600160a01b03891661117a5760405162461bcd60e51b815260206004820152600e60248201526d151bdad95b881c995c5d5a5c995960921b60448201526064016109ed565b6001600160a01b0388166111c75760405162461bcd60e51b81526020600482015260146024820152731219585b1d1a1251139195081c995c5d5a5c995960621b60448201526064016109ed565b6111cf6118fb565b6111d76118fb565b6111df611903565b600080546001600160a01b03808c166001600160a01b031992831617835560018054918c16919092161790556002889055600387905561121f908b6115f9565b5061124a7fedcc084d3dcd65a1f7f23c65c46722faca6953d28e43150a467cf43e5c3092388b6115f9565b506112757fd9fa870f425abcc65e9f66291fd387e7d8e4b1a8019d84df97822b1a0643f5858b6115f9565b5083156112bc57845460ff60401b19168555604051600181527fc7f505b2f371ae2175ee4913f4499e1f2633a7b5936321eed1cdaeb6115181d29060200160405180910390a15b50505050505050505050565b6112d18261067a565b6112da816115ec565b6106b8838361169e565b6006602052600090815260409020805460018201805460ff80841694610100909404169291906113139061203e565b80601f016020809104026020016040519081016040528092919081815260200182805461133f9061203e565b801561138c5780601f106113615761010080835404028352916020019161138c565b820191906000526020600020905b81548152906001019060200180831161136f57829003601f168201915b5050505050908060020180546113a19061203e565b80601f01602080910402602001604051908101604052809291908181526020018280546113cd9061203e565b801561141a5780601f106113ef5761010080835404028352916020019161141a565b820191906000526020600020905b8154815290600101906020018083116113fd57829003601f168201915b50505050509080600301805461142f9061203e565b80601f016020809104026020016040519081016040528092919081815260200182805461145b9061203e565b80156114a85780601f1061147d576101008083540402835291602001916114a8565b820191906000526020600020905b81548152906001019060200180831161148b57829003601f168201915b5050505050905085565b662386f26fc100003410156114fe5760405162461bcd60e51b8152602060048201526012602482015271111bdb985d1a5bdb881d1bdbc81cdb585b1b60721b60448201526064016109ed565b3460046000828254611510919061208e565b9091555050336000908152600560205260408120805434929061153490849061208e565b9091555050600354600090611549903461229e565b6000546040516340c10f1960e01b8152336004820152602481018390529192506001600160a01b0316906340c10f1990604401600060405180830381600087803b15801561159657600080fd5b505af11580156115aa573d6000803e3d6000fd5b505060408051348152602081018590523393507f4b0304ab2f313234b1cea012339c8f8c3bf2c8bb357d81a579cfdb35d2e3d03092500160405180910390a250565b6115f68133611913565b50565b60006000805160206122f28339815191526116148484610ee1565b611694576000848152602082815260408083206001600160a01b03871684529091529020805460ff1916600117905561164a3390565b6001600160a01b0316836001600160a01b0316857f2f8788117e7eff1d82e926ec794901d17c78024a50270940304540a733656f0d60405160405180910390a46001915050610674565b6000915050610674565b60006000805160206122f28339815191526116b98484610ee1565b15611694576000848152602082815260408083206001600160a01b0387168085529252808320805460ff1916905551339287917ff6391f5c32d9c69d2a47ea670b442974b53935d1edc7fd64eb21e047a839171b9190a46001915050610674565b306001600160a01b037f00000000000000000000000000000000000000000000000000000000000000001614806117a157507f00000000000000000000000000000000000000000000000000000000000000006001600160a01b03166117956000805160206122d2833981519152546001600160a01b031690565b6001600160a01b031614155b156117bf5760405163703e46dd60e11b815260040160405180910390fd5b565b6000610961816115ec565b816001600160a01b03166352d1902d6040518163ffffffff1660e01b8152600401602060405180830381865afa925050508015611826575060408051601f3d908101601f191682019092526118239181019061221f565b60015b61184e57604051634c9c8ce360e01b81526001600160a01b03831660048201526024016109ed565b6000805160206122d2833981519152811461187f57604051632a87526960e21b8152600481018290526024016109ed565b6106f1838361194c565b306001600160a01b037f000000000000000000000000000000000000000000000000000000000000000016146117bf5760405163703e46dd60e11b815260040160405180910390fd5b6000807ff0c57e16840df040f15088dc2f81fe391c3923bec73e23a9662efc9c229c6a00610674565b6117bf6119a2565b61190b6119a2565b6117bf6119c7565b61191d8282610ee1565b6109615760405163e2517d3f60e01b81526001600160a01b0382166004820152602481018390526044016109ed565b611955826119f5565b6040516001600160a01b038316907fbc7cd75a20ee27fd9adebab32041f755214dbc6bffa90cc0225b39da2e5c2d3b90600090a280511561199a576106f18282611a5a565b610961611ad0565b6119aa611aef565b6117bf57604051631afcd79f60e31b815260040160405180910390fd5b6119cf6119a2565b60017f9b779b17422d0df92223018b32b4d1fa46e071723d6817e2486d003becc55f0055565b806001600160a01b03163b600003611a2b57604051634c9c8ce360e01b81526001600160a01b03821660048201526024016109ed565b6000805160206122d283398151915280546001600160a01b0319166001600160a01b0392909216919091179055565b6060600080846001600160a01b031684604051611a7791906122b5565b600060405180830381855af49150503d8060008114611ab2576040519150601f19603f3d011682016040523d82523d6000602084013e611ab7565b606091505b5091509150611ac7858383611b09565b95945050505050565b34156117bf5760405163b398979f60e01b815260040160405180910390fd5b6000611af96118d2565b54600160401b900460ff16919050565b606082611b1e57611b1982611b68565b611b61565b8151158015611b3557506001600160a01b0384163b155b15611b5e57604051639996b31560e01b81526001600160a01b03851660048201526024016109ed565b50805b9392505050565b805115611b7757805160208201fd5b60405163d6bda27560e01b815260040160405180910390fd5b600060208284031215611ba257600080fd5b81356001600160e01b031981168114611b6157600080fd5b60005b83811015611bd5578181015183820152602001611bbd565b50506000910152565b60008151808452611bf6816020860160208601611bba565b601f01601f19169290920160200192915050565b602081526000611b616020830184611bde565b6001600160a01b03811681146115f657600080fd5b600060208284031215611c4457600080fd5b8135611b6181611c1d565b600060208284031215611c6157600080fd5b5035919050565b60008060408385031215611c7b57600080fd5b823591506020830135611c8d81611c1d565b809150509250929050565b634e487b7160e01b600052602160045260246000fd5b60068110611ccc57634e487b7160e01b600052602160045260246000fd5b9052565b8515158152611ce26020820186611cae565b60a060408201526000611cf860a0830186611bde565b8281036060840152611d0a8186611bde565b90508281036080840152611d1e8185611bde565b98975050505050505050565b634e487b7160e01b600052604160045260246000fd5b60008067ffffffffffffffff841115611d5b57611d5b611d2a565b50604051601f19601f85018116603f0116810181811067ffffffffffffffff82111715611d8a57611d8a611d2a565b604052838152905080828401851015611da257600080fd5b83836020830137600060208583010152509392505050565b60008060408385031215611dcd57600080fd5b8235611dd881611c1d565b9150602083013567ffffffffffffffff811115611df457600080fd5b8301601f81018513611e0557600080fd5b611e1485823560208401611d40565b9150509250929050565b60008083601f840112611e3057600080fd5b50813567ffffffffffffffff811115611e4857600080fd5b602083019150836020828501011115611e6057600080fd5b9250929050565b60008060008060608587031215611e7d57600080fd5b8435611e8881611c1d565b935060208501359250604085013567ffffffffffffffff811115611eab57600080fd5b611eb787828801611e1e565b95989497509550505050565b60008060008060008060008060a0898b031215611edf57600080fd5b8835611eea81611c1d565b9750602089013560068110611efe57600080fd5b9650604089013567ffffffffffffffff811115611f1a57600080fd5b611f268b828c01611e1e565b909750955050606089013567ffffffffffffffff811115611f4657600080fd5b611f528b828c01611e1e565b909550935050608089013567ffffffffffffffff811115611f7257600080fd5b611f7e8b828c01611e1e565b999c989b5096995094979396929594505050565b600060208284031215611fa457600080fd5b813567ffffffffffffffff811115611fbb57600080fd5b8201601f81018413611fcc57600080fd5b611fdb84823560208401611d40565b949350505050565b600080600080600060a08688031215611ffb57600080fd5b853561200681611c1d565b9450602086013561201681611c1d565b9350604086013561202681611c1d565b94979396509394606081013594506080013592915050565b600181811c9082168061205257607f821691505b60208210810361207257634e487b7160e01b600052602260045260246000fd5b50919050565b634e487b7160e01b600052601160045260246000fd5b8082018082111561067457610674612078565b81835281816020850137506000828201602090810191909152601f909101601f19169091010190565b6040815260006120de6040830185876120a1565b9050826020830152949350505050565b601f8211156106f157806000526020600020601f840160051c810160208510156121155750805b601f840160051c820191505b818110156121355760008155600101612121565b5050505050565b815167ffffffffffffffff81111561215657612156611d2a565b61216a81612164845461203e565b846120ee565b6020601f82116001811461219e57600083156121865750848201515b600019600385901b1c1916600184901b178455612135565b600084815260208120601f198516915b828110156121ce57878501518255602094850194600190920191016121ae565b50848210156121ec5786840151600019600387901b60f8161c191681555b50505050600190811b01905550565b6001600160a01b0383168152604060208201819052600090611fdb90830184611bde565b60006020828403121561223157600080fd5b5051919050565b6122428185611cae565b604060208201526000611ac76040830184866120a1565b7f68747470733a2f2f6578616d706c652e636f6d2f6d657461646174612f00000081526000825161229181601d850160208701611bba565b91909101601d0192915050565b808202811582820484141761067457610674612078565b600082516122c7818460208701611bba565b919091019291505056fe360894a13ba1a3210667c828492db98dca3e2076cc3735a920a3ca505d382bbc02dd7bc7dec4dceedda775e58dd541e08a116c6c53815c0bd028192f7b626800a26469706673582212203846daeb8013fcdf879f808e45f7d28c784859fc4c707de81d1ffeee3d2f8cc964736f6c634300081c0033",
  "linkReferences": {},
  "deployedLinkReferences": {}
}