{
  "_format": "hh-sol-artifact-1",
  "contractName": "FlameBornHealthIDNFT",
  "sourceName": "contracts/nft/FlameBornHealthIDNFT.sol",
  "abi": [
    {
      "inputs": [
        {
          "internalType": "address",
          "name": "admin",
          "type": "address"
        }
      ],
      "stateMutability": "nonpayable",
      "type": "constructor"
    },
    {
      "inputs": [],
      "name": "AccessControlBadConfirmation",
      "type": "error"
    },
    {
      "inputs": [
        {
          "internalType": "address",
          "name": "account",
          "type": "address"
        },
        {
          "internalType": "bytes32",
          "name": "neededRole",
          "type": "bytes32"
        }
      ],
      "name": "AccessControlUnauthorizedAccount",
      "type": "error"
    },
    {
      "inputs": [],
      "name": "AdminRequired",
      "type": "error"
    },
    {
      "inputs": [
        {
          "internalType": "address",
          "name": "sender",
          "type": "address"
        },
        {
          "internalType": "uint256",
          "name": "tokenId",
          "type": "uint256"
        },
        {
          "internalType": "address",
          "name": "owner",
          "type": "address"
        }
      ],
      "name": "ERC721IncorrectOwner",
      "type": "error"
    },
    {
      "inputs": [
        {
          "internalType": "address",
          "name": "operator",
          "type": "address"
        },
        {
          "internalType": "uint256",
          "name": "tokenId",
          "type": "uint256"
        }
      ],
      "name": "ERC721InsufficientApproval",
      "type": "error"
    },
    {
      "inputs": [
        {
          "internalType": "address",
          "name": "approver",
          "type": "address"
        }
      ],
      "name": "ERC721InvalidApprover",
      "type": "error"
    },
    {
      "inputs": [
        {
          "internalType": "address",
          "name": "operator",
          "type": "address"
        }
      ],
      "name": "ERC721InvalidOperator",
      "type": "error"
    },
    {
      "inputs": [
        {
          "internalType": "address",
          "name": "owner",
          "type": "address"
        }
      ],
      "name": "ERC721InvalidOwner",
      "type": "error"
    },
    {
      "inputs": [
        {
          "internalType": "address",
          "name": "receiver",
          "type": "address"
        }
      ],
      "name": "ERC721InvalidReceiver",
      "type": "error"
    },
    {
      "inputs": [
        {
          "internalType": "address",
          "name": "sender",
          "type": "address"
        }
      ],
      "name": "ERC721InvalidSender",
      "type": "error"
    },
    {
      "inputs": [
        {
          "internalType": "uint256",
          "name": "tokenId",
          "type": "uint256"
        }
      ],
      "name": "ERC721NonexistentToken",
      "type": "error"
    },
    {
      "inputs": [],
      "name": "InvalidTokenId",
      "type": "error"
    },
    {
      "inputs": [],
      "name": "SoulboundApprovalNotAllowed",
      "type": "error"
    },
    {
      "inputs": [],
      "name": "SoulboundSetApprovalForAllNotAllowed",
      "type": "error"
    },
    {
      "inputs": [],
      "name": "SoulboundTransferNotAllowed",
      "type": "error"
    },
    {
      "inputs": [],
      "name": "ZeroAddress",
      "type": "error"
    },
    {
      "anonymous": false,
      "inputs": [
        {
          "indexed": true,
          "internalType": "address",
          "name": "owner",
          "type": "address"
        },
        {
          "indexed": true,
          "internalType": "address",
          "name": "approved",
          "type": "address"
        },
        {
          "indexed": true,
          "internalType": "uint256",
          "name": "tokenId",
          "type": "uint256"
        }
      ],
      "name": "Approval",
      "type": "event"
    },
    {
      "anonymous": false,
      "inputs": [
        {
          "indexed": true,
          "internalType": "address",
          "name": "owner",
          "type": "address"
        },
        {
          "indexed": true,
          "internalType": "address",
          "name": "operator",
          "type": "address"
        },
        {
          "indexed": false,
          "internalType": "bool",
          "name": "approved",
          "type": "bool"
        }
      ],
      "name": "ApprovalForAll",
      "type": "event"
    },
    {
      "anonymous": false,
      "inputs": [
        {
          "indexed": false,
          "internalType": "uint256",
          "name": "_fromTokenId",
          "type": "uint256"
        },
        {
          "indexed": false,
          "internalType": "uint256",
          "name": "_toTokenId",
          "type": "uint256"
        }
      ],
      "name": "BatchMetadataUpdate",
      "type": "event"
    },
    {
      "anonymous": false,
      "inputs": [
        {
          "indexed": true,
          "internalType": "uint256",
          "name": "tokenId",
          "type": "uint256"
        },
        {
          "indexed": false,
          "internalType": "string",
          "name": "newMetadataURI",
          "type": "string"
        }
      ],
      "name": "FlameBornHealthIDNFTMetadataUpdated",
      "type": "event"
    },
    {
      "anonymous": false,
      "inputs": [
        {
          "indexed": true,
          "internalType": "address",
          "name": "to",
          "type": "address"
        },
        {
          "indexed": true,
          "internalType": "uint256",
          "name": "tokenId",
          "type": "uint256"
        },
        {
          "indexed": false,
          "internalType": "string",
          "name": "metadataURI",
          "type": "string"
        }
      ],
      "name": "FlameBornHealthIDNFTMinted",
      "type": "event"
    },
    {
      "anonymous": false,
      "inputs": [
        {
          "indexed": false,
          "internalType": "uint256",
          "name": "_tokenId",
          "type": "uint256"
        }
      ],
      "name": "MetadataUpdate",
      "type": "event"
    },
    {
      "anonymous": false,
      "inputs": [
        {
          "indexed": true,
          "internalType": "bytes32",
          "name": "role",
          "type": "bytes32"
        },
        {
          "indexed": true,
          "internalType": "bytes32",
          "name": "previousAdminRole",
          "type": "bytes32"
        },
        {
          "indexed": true,
          "internalType": "bytes32",
          "name": "newAdminRole",
          "type": "bytes32"
        }
      ],
      "name": "RoleAdminChanged",
      "type": "event"
    },
    {
      "anonymous": false,
      "inputs": [
        {
          "indexed": true,
          "internalType": "bytes32",
          "name": "role",
          "type": "bytes32"
        },
        {
          "indexed": true,
          "internalType": "address",
          "name": "account",
          "type": "address"
        },
        {
          "indexed": true,
          "internalType": "address",
          "name": "sender",
          "type": "address"
        }
      ],
      "name": "RoleGranted",
      "type": "event"
    },
    {
      "anonymous": false,
      "inputs": [
        {
          "indexed": true,
          "internalType": "bytes32",
          "name": "role",
          "type": "bytes32"
        },
        {
          "indexed": true,
          "internalType": "address",
          "name": "account",
          "type": "address"
        },
        {
          "indexed": true,
          "internalType": "address",
          "name": "sender",
          "type": "address"
        }
      ],
      "name": "RoleRevoked",
      "type": "event"
    },
    {
      "anonymous": false,
      "inputs": [
        {
          "indexed": true,
          "internalType": "address",
          "name": "from",
          "type": "address"
        },
        {
          "indexed": true,
          "internalType": "address",
          "name": "to",
          "type": "address"
        },
        {
          "indexed": true,
          "internalType": "uint256",
          "name": "tokenId",
          "type": "uint256"
        }
      ],
      "name": "Transfer",
      "type": "event"
    },
    {
      "inputs": [],
      "name": "DEFAULT_ADMIN_ROLE",
      "outputs": [
        {
          "internalType": "bytes32",
          "name": "",
          "type": "bytes32"
        }
      ],
      "stateMutability": "view",
      "type": "function"
    },
    {
      "inputs": [],
      "name": "MINTER_ROLE",
      "outputs": [
        {
          "internalType": "bytes32",
          "name": "",
          "type": "bytes32"
        }
      ],
      "stateMutability": "view",
      "type": "function"
    },
    {
      "inputs": [],
      "name": "MULTISIG_ROLE",
      "outputs": [
        {
          "internalType": "bytes32",
          "name": "",
          "type": "bytes32"
        }
      ],
      "stateMutability": "view",
      "type": "function"
    },
    {
      "inputs": [
        {
          "internalType": "address",
          "name": "to",
          "type": "address"
        },
        {
          "internalType": "uint256",
          "name": "tokenId",
          "type": "uint256"
        }
      ],
      "name": "approve",
      "outputs": [],
      "stateMutability": "nonpayable",
      "type": "function"
    },
    {
      "inputs": [
        {
          "internalType": "address",
          "name": "owner",
          "type": "address"
        }
      ],
      "name": "balanceOf",
      "outputs": [
        {
          "internalType": "uint256",
          "name": "",
          "type": "uint256"
        }
      ],
      "stateMutability": "view",
      "type": "function"
    },
    {
      "inputs": [
        {
          "internalType": "uint256",
          "name": "tokenId",
          "type": "uint256"
        }
      ],
      "name": "getApproved",
      "outputs": [
        {
          "internalType": "address",
          "name": "",
          "type": "address"
        }
      ],
      "stateMutability": "view",
      "type": "function"
    },
    {
      "inputs": [],
      "name": "getCurrentTokenId",
      "outputs": [
        {
          "internalType": "uint256",
          "name": "",
          "type": "uint256"
        }
      ],
      "stateMutability": "view",
      "type": "function"
    },
    {
      "inputs": [
        {
          "internalType": "bytes32",
          "name": "role",
          "type": "bytes32"
        }
      ],
      "name": "getRoleAdmin",
      "outputs": [
        {
          "internalType": "bytes32",
          "name": "",
          "type": "bytes32"
        }
      ],
      "stateMutability": "view",
      "type": "function"
    },
    {
      "inputs": [
        {
          "internalType": "bytes32",
          "name": "role",
          "type": "bytes32"
        },
        {
          "internalType": "address",
          "name": "account",
          "type": "address"
        }
      ],
      "name": "grantRole",
      "outputs": [],
      "stateMutability": "nonpayable",
      "type": "function"
    },
    {
      "inputs": [
        {
          "internalType": "bytes32",
          "name": "role",
          "type": "bytes32"
        },
        {
          "internalType": "address",
          "name": "account",
          "type": "address"
        }
      ],
      "name": "hasRole",
      "outputs": [
        {
          "internalType": "bool",
          "name": "",
          "type": "bool"
        }
      ],
      "stateMutability": "view",
      "type": "function"
    },
    {
      "inputs": [
        {
          "internalType": "address",
          "name": "owner",
          "type": "address"
        },
        {
          "internalType": "address",
          "name": "operator",
          "type": "address"
        }
      ],
      "name": "isApprovedForAll",
      "outputs": [
        {
          "internalType": "bool",
          "name": "",
          "type": "bool"
        }
      ],
      "stateMutability": "view",
      "type": "function"
    },
    {
      "inputs": [
        {
          "internalType": "address",
          "name": "to",
          "type": "address"
        }
      ],
      "name": "mint",
      "outputs": [
        {
          "internalType": "uint256",
          "name": "",
          "type": "uint256"
        }
      ],
      "stateMutability": "nonpayable",
      "type": "function"
    },
    {
      "inputs": [
        {
          "internalType": "address",
          "name": "to",
          "type": "address"
        },
        {
          "internalType": "string",
          "name": "metadataURI",
          "type": "string"
        }
      ],
      "name": "mintWithMetadata",
      "outputs": [
        {
          "internalType": "uint256",
          "name": "",
          "type": "uint256"
        }
      ],
      "stateMutability": "nonpayable",
      "type": "function"
    },
    {
      "inputs": [],
      "name": "name",
      "outputs": [
        {
          "internalType": "string",
          "name": "",
          "type": "string"
        }
      ],
      "stateMutability": "view",
      "type": "function"
    },
    {
      "inputs": [
        {
          "internalType": "uint256",
          "name": "tokenId",
          "type": "uint256"
        }
      ],
      "name": "ownerOf",
      "outputs": [
        {
          "internalType": "address",
          "name": "",
          "type": "address"
        }
      ],
      "stateMutability": "view",
      "type": "function"
    },
    {
      "inputs": [
        {
          "internalType": "bytes32",
          "name": "role",
          "type": "bytes32"
        },
        {
          "internalType": "address",
          "name": "callerConfirmation",
          "type": "address"
        }
      ],
      "name": "renounceRole",
      "outputs": [],
      "stateMutability": "nonpayable",
      "type": "function"
    },
    {
      "inputs": [
        {
          "internalType": "bytes32",
          "name": "role",
          "type": "bytes32"
        },
        {
          "internalType": "address",
          "name": "account",
          "type": "address"
        }
      ],
      "name": "revokeRole",
      "outputs": [],
      "stateMutability": "nonpayable",
      "type": "function"
    },
    {
      "inputs": [
        {
          "internalType": "address",
          "name": "from",
          "type": "address"
        },
        {
          "internalType": "address",
          "name": "to",
          "type": "address"
        },
        {
          "internalType": "uint256",
          "name": "tokenId",
          "type": "uint256"
        }
      ],
      "name": "safeTransferFrom",
      "outputs": [],
      "stateMutability": "nonpayable",
      "type": "function"
    },
    {
      "inputs": [
        {
          "internalType": "address",
          "name": "from",
          "type": "address"
        },
        {
          "internalType": "address",
          "name": "to",
          "type": "address"
        },
        {
          "internalType": "uint256",
          "name": "tokenId",
          "type": "uint256"
        },
        {
          "internalType": "bytes",
          "name": "data",
          "type": "bytes"
        }
      ],
      "name": "safeTransferFrom",
      "outputs": [],
      "stateMutability": "nonpayable",
      "type": "function"
    },
    {
      "inputs": [
        {
          "internalType": "address",
          "name": "operator",
          "type": "address"
        },
        {
          "internalType": "bool",
          "name": "approved",
          "type": "bool"
        }
      ],
      "name": "setApprovalForAll",
      "outputs": [],
      "stateMutability": "nonpayable",
      "type": "function"
    },
    {
      "inputs": [
        {
          "internalType": "bytes4",
          "name": "interfaceId",
          "type": "bytes4"
        }
      ],
      "name": "supportsInterface",
      "outputs": [
        {
          "internalType": "bool",
          "name": "",
          "type": "bool"
        }
      ],
      "stateMutability": "view",
      "type": "function"
    },
    {
      "inputs": [],
      "name": "symbol",
      "outputs": [
        {
          "internalType": "string",
          "name": "",
          "type": "string"
        }
      ],
      "stateMutability": "view",
      "type": "function"
    },
    {
      "inputs": [
        {
          "internalType": "uint256",
          "name": "tokenId",
          "type": "uint256"
        }
      ],
      "name": "tokenURI",
      "outputs": [
        {
          "internalType": "string",
          "name": "",
          "type": "string"
        }
      ],
      "stateMutability": "view",
      "type": "function"
    },
    {
      "inputs": [],
      "name": "totalSupply",
      "outputs": [
        {
          "internalType": "uint256",
          "name": "",
          "type": "uint256"
        }
      ],
      "stateMutability": "view",
      "type": "function"
    },
    {
      "inputs": [
        {
          "internalType": "address",
          "name": "from",
          "type": "address"
        },
        {
          "internalType": "address",
          "name": "to",
          "type": "address"
        },
        {
          "internalType": "uint256",
          "name": "tokenId",
          "type": "uint256"
        }
      ],
      "name": "transferFrom",
      "outputs": [],
      "stateMutability": "nonpayable",
      "type": "function"
    },
    {
      "inputs": [
        {
          "internalType": "uint256",
          "name": "tokenId",
          "type": "uint256"
        },
        {
          "internalType": "string",
          "name": "metadataURI",
          "type": "string"
        }
      ],
      "name": "updateMetadata",
      "outputs": [],
      "stateMutability": "nonpayable",
      "type": "function"
    }
  ],
  "bytecode": "0x608060405234801561001057600080fd5b50604051611dc2380380611dc283398101604081905261002f916101e9565b6040518060400160405280601481526020017f466c616d65426f726e4865616c746849444e4654000000000000000000000000815250604051806040016040528060088152602001671193108b5213919560c21b815250816000908161009591906102b8565b5060016100a282826102b8565b5050506001600160a01b0381166100cc57604051634968a64f60e11b815260040160405180910390fd5b6100d7600082610139565b506101027f9f2df0fed2c77648de5860a4cc508cd0818c85b8b8a1ab4ceeef8d981c8956a682610139565b5061012d7fa5a0b70b385ff7611cd3840916bd08b10829e5bf9e6637cf79dd9a427fc0e2ab33610139565b50506001600855610376565b60008281526007602090815260408083206001600160a01b038516845290915281205460ff166101df5760008381526007602090815260408083206001600160a01b03861684529091529020805460ff191660011790556101973390565b6001600160a01b0316826001600160a01b0316847f2f8788117e7eff1d82e926ec794901d17c78024a50270940304540a733656f0d60405160405180910390a45060016101e3565b5060005b92915050565b6000602082840312156101fb57600080fd5b81516001600160a01b038116811461021257600080fd5b9392505050565b634e487b7160e01b600052604160045260246000fd5b600181811c9082168061024357607f821691505b60208210810361026357634e487b7160e01b600052602260045260246000fd5b50919050565b601f8211156102b357806000526020600020601f840160051c810160208510156102905750805b601f840160051c820191505b818110156102b0576000815560010161029c565b50505b505050565b81516001600160401b038111156102d1576102d1610219565b6102e5816102df845461022f565b84610269565b6020601f82116001811461031957600083156103015750848201515b600019600385901b1c1916600184901b1784556102b0565b600084815260208120601f198516915b828110156103495787850151825560209485019460019092019101610329565b50848210156103675786840151600019600387901b60f8161c191681555b50505050600190811b01905550565b611a3d806103856000396000f3fe608060405234801561001057600080fd5b50600436106101ae5760003560e01c80636352211e116100ee578063a22cb46511610097578063d539139311610071578063d53913931461039e578063d547741f146103c5578063e328400c146103d8578063e985e9c5146103ff57600080fd5b8063a22cb46514610365578063b88d4fde14610378578063c87b56dd1461038b57600080fd5b806391d14854116100c857806391d148541461031c57806395d89b4114610355578063a217fddf1461035d57600080fd5b80636352211e146102e35780636a627842146102f657806370a082311461030957600080fd5b8063248a9ca31161015b57806342842e0e1161013557806342842e0e146102a2578063471d06f4146102b557806353c8388e146102c857806356189236146102db57600080fd5b8063248a9ca3146102595780632f2ff15d1461027c57806336568abe1461028f57600080fd5b8063095ea7b31161018c578063095ea7b31461021b57806318160ddd1461023057806323b872dd1461024657600080fd5b806301ffc9a7146101b357806306fdde03146101db578063081812fc146101f0575b600080fd5b6101c66101c136600461148a565b61043b565b60405190151581526020015b60405180910390f35b6101e361044c565b6040516101d291906114f7565b6102036101fe36600461150a565b6104de565b6040516001600160a01b0390911681526020016101d2565b61022e61022936600461153f565b610507565b005b610238610516565b6040519081526020016101d2565b61022e610254366004611569565b61052c565b61023861026736600461150a565b60009081526007602052604090206001015490565b61022e61028a3660046115a6565b6105bc565b61022e61029d3660046115a6565b6105e1565b61022e6102b0366004611569565b610619565b6102386102c3366004611682565b610634565b61022e6102d63660046116d0565b6106fc565b600854610238565b6102036102f136600461150a565b610783565b610238610304366004611701565b61078e565b610238610317366004611701565b610857565b6101c661032a3660046115a6565b60009182526007602090815260408084206001600160a01b0393909316845291905290205460ff1690565b6101e361089f565b610238600081565b61022e61037336600461171c565b6108ae565b61022e610386366004611758565b6108b9565b6101e361039936600461150a565b6108d1565b6102387f9f2df0fed2c77648de5860a4cc508cd0818c85b8b8a1ab4ceeef8d981c8956a681565b61022e6103d33660046115a6565b6109e2565b6102387fa5a0b70b385ff7611cd3840916bd08b10829e5bf9e6637cf79dd9a427fc0e2ab81565b6101c661040d3660046117d4565b6001600160a01b03918216600090815260056020908152604080832093909416825291909152205460ff1690565b600061044682610a07565b92915050565b60606000805461045b906117fe565b80601f0160208091040260200160405190810160405280929190818152602001828054610487906117fe565b80156104d45780601f106104a9576101008083540402835291602001916104d4565b820191906000526020600020905b8154815290600101906020018083116104b757829003601f168201915b5050505050905090565b60006104e982610a2c565b506000828152600460205260409020546001600160a01b0316610446565b610512828233610a65565b5050565b600060016008546105279190611848565b905090565b6001600160a01b03821661055b57604051633250574960e11b8152600060048201526024015b60405180910390fd5b6000610568838333610a72565b9050836001600160a01b0316816001600160a01b0316146105b6576040516364283d7b60e01b81526001600160a01b0380861660048301526024820184905282166044820152606401610552565b50505050565b6000828152600760205260409020600101546105d781610ad3565b6105b68383610ae0565b6001600160a01b038116331461060a5760405163334bd91960e11b815260040160405180910390fd5b6106148282610b8e565b505050565b610614838383604051806020016040528060008152506108b9565b60007f9f2df0fed2c77648de5860a4cc508cd0818c85b8b8a1ab4ceeef8d981c8956a661066081610ad3565b6001600160a01b0384166106875760405163d92e233d60e01b815260040160405180910390fd5b6008805490819060006106998361185b565b91905055506106a88582610c15565b6106b28185610c7a565b80856001600160a01b03167ff97c9ae902deeb0ef2bf081b2ba9434c130e396356d43d7aa0a689577068d94f866040516106ec91906114f7565b60405180910390a3949350505050565b600061070781610ad3565b6000838152600260205260409020546001600160a01b031661073c576040516307ed98ed60e31b815260040160405180910390fd5b6107468383610c7a565b827f40cd1a581b6c5f35321c40216d6838f1f771ea0372288fb845650d045622751d8360405161077691906114f7565b60405180910390a2505050565b600061044682610a2c565b60007f9f2df0fed2c77648de5860a4cc508cd0818c85b8b8a1ab4ceeef8d981c8956a66107ba81610ad3565b6001600160a01b0383166107e15760405163d92e233d60e01b815260040160405180910390fd5b6008805490819060006107f38361185b565b91905055506108028482610c15565b80846001600160a01b03167ff97c9ae902deeb0ef2bf081b2ba9434c130e396356d43d7aa0a689577068d94f60405161084690602080825260009082015260400190565b60405180910390a391505b50919050565b60006001600160a01b038216610883576040516322718ad960e21b815260006004820152602401610552565b506001600160a01b031660009081526003602052604090205490565b60606001805461045b906117fe565b610512338383610cca565b6108c484848461052c565b6105b63385858585610d69565b60606108dc82610a2c565b50600082815260066020526040812080546108f6906117fe565b80601f0160208091040260200160405190810160405280929190818152602001828054610922906117fe565b801561096f5780601f106109445761010080835404028352916020019161096f565b820191906000526020600020905b81548152906001019060200180831161095257829003601f168201915b50505050509050600061098d60408051602081019091526000815290565b9050805160000361099f575092915050565b8151156109d15780826040516020016109b9929190611874565b60405160208183030381529060405292505050919050565b6109da84610e94565b949350505050565b6000828152600760205260409020600101546109fd81610ad3565b6105b68383610b8e565b60006001600160e01b03198216637965db0b60e01b1480610446575061044682610f09565b6000818152600260205260408120546001600160a01b03168061044657604051637e27328960e01b815260048101849052602401610552565b6106148383836001610f2e565b6000828152600260205260408120546001600160a01b03168015801590610aa157506001600160a01b03851615155b15610abf57604051630d18115360e11b815260040160405180910390fd5b610aca858585611060565b95945050505050565b610add8133611166565b50565b60008281526007602090815260408083206001600160a01b038516845290915281205460ff16610b865760008381526007602090815260408083206001600160a01b03861684529091529020805460ff19166001179055610b3e3390565b6001600160a01b0316826001600160a01b0316847f2f8788117e7eff1d82e926ec794901d17c78024a50270940304540a733656f0d60405160405180910390a4506001610446565b506000610446565b60008281526007602090815260408083206001600160a01b038516845290915281205460ff1615610b865760008381526007602090815260408083206001600160a01b0386168085529252808320805460ff1916905551339286917ff6391f5c32d9c69d2a47ea670b442974b53935d1edc7fd64eb21e047a839171b9190a4506001610446565b6001600160a01b038216610c3f57604051633250574960e11b815260006004820152602401610552565b6000610c4d83836000610a72565b90506001600160a01b03811615610614576040516339e3563760e11b815260006004820152602401610552565b6000828152600660205260409020610c9282826118ea565b506040518281527ff8e1a15aba9398e019f0b49df1a4fde98ee17ae345cb5f6b5e2c27f5033e8ce79060200160405180910390a15050565b6001600160a01b038216610cfc57604051630b61174360e31b81526001600160a01b0383166004820152602401610552565b6001600160a01b03838116600081815260056020908152604080832094871680845294825291829020805460ff191686151590811790915591519182527f17307eab39ab6107e8899845ad3d59bd9653f200f220920489ca2b5937696c31910160405180910390a3505050565b6001600160a01b0383163b15610e8d57604051630a85bd0160e11b81526001600160a01b0384169063150b7a0290610dab9088908890879087906004016119a9565b6020604051808303816000875af1925050508015610de6575060408051601f3d908101601f19168201909252610de3918101906119ea565b60015b610e4f573d808015610e14576040519150601f19603f3d011682016040523d82523d6000602084013e610e19565b606091505b508051600003610e4757604051633250574960e11b81526001600160a01b0385166004820152602401610552565b805160208201fd5b6001600160e01b03198116630a85bd0160e11b14610e8b57604051633250574960e11b81526001600160a01b0385166004820152602401610552565b505b5050505050565b6060610e9f82610a2c565b506000610eb760408051602081019091526000815290565b90506000815111610ed75760405180602001604052806000815250610f02565b80610ee1846111bb565b604051602001610ef2929190611874565b6040516020818303038152906040525b9392505050565b60006001600160e01b03198216632483248360e11b148061044657506104468261125b565b8080610f4257506001600160a01b03821615155b15611023576000610f5284610a2c565b90506001600160a01b03831615801590610f7e5750826001600160a01b0316816001600160a01b031614155b8015610fb057506001600160a01b0380821660009081526005602090815260408083209387168352929052205460ff16155b15610fd95760405163a9fbf51f60e01b81526001600160a01b0384166004820152602401610552565b81156110215783856001600160a01b0316826001600160a01b03167f8c5be1e5ebec7d5bd14f71427d1e84f3dd0314c0f7b2291e5b200ac8c7c3b92560405160405180910390a45b505b50506000908152600460205260409020805473ffffffffffffffffffffffffffffffffffffffff19166001600160a01b0392909216919091179055565b6000828152600260205260408120546001600160a01b039081169083161561108d5761108d8184866112ab565b6001600160a01b038116156110cb576110aa600085600080610f2e565b6001600160a01b038116600090815260036020526040902080546000190190555b6001600160a01b038516156110fa576001600160a01b0385166000908152600360205260409020805460010190555b600084815260026020526040808220805473ffffffffffffffffffffffffffffffffffffffff19166001600160a01b0389811691821790925591518793918516917fddf252ad1be2c89b69c2b068fc378daa952ba7f163c4a11628f55a4df523b3ef91a4949350505050565b60008281526007602090815260408083206001600160a01b038516845290915290205460ff166105125760405163e2517d3f60e01b81526001600160a01b038216600482015260248101839052604401610552565b606060006111c88361130f565b600101905060008167ffffffffffffffff8111156111e8576111e86115d2565b6040519080825280601f01601f191660200182016040528015611212576020820181803683370190505b5090508181016020015b600019017f3031323334353637383961626364656600000000000000000000000000000000600a86061a8153600a850494508461121c57509392505050565b60006001600160e01b031982166380ac58cd60e01b148061128c57506001600160e01b03198216635b5e139f60e01b145b8061044657506301ffc9a760e01b6001600160e01b0319831614610446565b6112b68383836113f1565b610614576001600160a01b0383166112e457604051637e27328960e01b815260048101829052602401610552565b60405163177e802f60e01b81526001600160a01b038316600482015260248101829052604401610552565b6000807a184f03e93ff9f4daa797ed6e38ed64bf6a1f0100000000000000008310611358577a184f03e93ff9f4daa797ed6e38ed64bf6a1f010000000000000000830492506040015b6d04ee2d6d415b85acef81000000008310611384576d04ee2d6d415b85acef8100000000830492506020015b662386f26fc1000083106113a257662386f26fc10000830492506010015b6305f5e10083106113ba576305f5e100830492506008015b61271083106113ce57612710830492506004015b606483106113e0576064830492506002015b600a83106104465760010192915050565b60006001600160a01b038316158015906109da5750826001600160a01b0316846001600160a01b0316148061144b57506001600160a01b0380851660009081526005602090815260408083209387168352929052205460ff165b806109da5750506000908152600460205260409020546001600160a01b03908116911614919050565b6001600160e01b031981168114610add57600080fd5b60006020828403121561149c57600080fd5b8135610f0281611474565b60005b838110156114c25781810151838201526020016114aa565b50506000910152565b600081518084526114e38160208601602086016114a7565b601f01601f19169290920160200192915050565b602081526000610f0260208301846114cb565b60006020828403121561151c57600080fd5b5035919050565b80356001600160a01b038116811461153a57600080fd5b919050565b6000806040838503121561155257600080fd5b61155b83611523565b946020939093013593505050565b60008060006060848603121561157e57600080fd5b61158784611523565b925061159560208501611523565b929592945050506040919091013590565b600080604083850312156115b957600080fd5b823591506115c960208401611523565b90509250929050565b634e487b7160e01b600052604160045260246000fd5b60008067ffffffffffffffff841115611603576116036115d2565b50604051601f19601f85018116603f0116810181811067ffffffffffffffff82111715611632576116326115d2565b60405283815290508082840185101561164a57600080fd5b83836020830137600060208583010152509392505050565b600082601f83011261167357600080fd5b610f02838335602085016115e8565b6000806040838503121561169557600080fd5b61169e83611523565b9150602083013567ffffffffffffffff8111156116ba57600080fd5b6116c685828601611662565b9150509250929050565b600080604083850312156116e357600080fd5b82359150602083013567ffffffffffffffff8111156116ba57600080fd5b60006020828403121561171357600080fd5b610f0282611523565b6000806040838503121561172f57600080fd5b61173883611523565b91506020830135801515811461174d57600080fd5b809150509250929050565b6000806000806080858703121561176e57600080fd5b61177785611523565b935061178560208601611523565b925060408501359150606085013567ffffffffffffffff8111156117a857600080fd5b8501601f810187136117b957600080fd5b6117c8878235602084016115e8565b91505092959194509250565b600080604083850312156117e757600080fd5b6117f083611523565b91506115c960208401611523565b600181811c9082168061181257607f821691505b60208210810361085157634e487b7160e01b600052602260045260246000fd5b634e487b7160e01b600052601160045260246000fd5b8181038181111561044657610446611832565b60006001820161186d5761186d611832565b5060010190565b600083516118868184602088016114a7565b83519083019061189a8183602088016114a7565b01949350505050565b601f82111561061457806000526020600020601f840160051c810160208510156118ca5750805b601f840160051c820191505b81811015610e8d57600081556001016118d6565b815167ffffffffffffffff811115611904576119046115d2565b6119188161191284546117fe565b846118a3565b6020601f82116001811461194c57600083156119345750848201515b600019600385901b1c1916600184901b178455610e8d565b600084815260208120601f198516915b8281101561197c578785015182556020948501946001909201910161195c565b508482101561199a5786840151600019600387901b60f8161c191681555b50505050600190811b01905550565b6001600160a01b03851681526001600160a01b03841660208201528260408201526080606082015260006119e060808301846114cb565b9695505050505050565b6000602082840312156119fc57600080fd5b8151610f028161147456fea2646970667358221220a45378caafdedd022120a9925a67f1386b0aeeb7ff5f80c31497b90d5f61a76564736f6c634300081c0033",
  "linkReferences": {},
  "deployedLinkReferences": {}
}