{
  "_format": "hh-sol-artifact-1",
  "contractName": "Greeter",
  "sourceName": "contracts/Greeter.sol",
  "abi": [
    {
      "inputs": [
        {
          "internalType": "string",
          "name": "initialGreeting",
          "type": "string"
        }
      ],
      "stateMutability": "nonpayable",
      "type": "constructor"
    },
    {
      "anonymous": false,
      "inputs": [
        {
          "indexed": true,
          "internalType": "address",
          "name": "changer",
          "type": "address"
        },
        {
          "indexed": false,
          "internalType": "string",
          "name": "newGreeting",
          "type": "string"
        }
      ],
      "name": "GreetingChanged",
      "type": "event"
    },
    {
      "inputs": [],
      "name": "greet",
      "outputs": [
        {
          "internalType": "string",
          "name": "",
          "type": "string"
        }
      ],
      "stateMutability": "view",
      "type": "function"
    },
    {
      "inputs": [],
      "name": "owner",
      "outputs": [
        {
          "internalType": "address",
          "name": "",
          "type": "address"
        }
      ],
      "stateMutability": "view",
      "type": "function"
    },
    {
      "inputs": [
        {
          "internalType": "string",
          "name": "newGreeting",
          "type": "string"
        }
      ],
      "name": "setGreeting",
      "outputs": [],
      "stateMutability": "nonpayable",
      "type": "function"
    },
    {
      "inputs": [
        {
          "internalType": "address",
          "name": "newOwner",
          "type": "address"
        }
      ],
      "name": "transferOwnership",
      "outputs": [],
      "stateMutability": "nonpayable",
      "type": "function"
    }
  ],
  "bytecode": "0x608060405234801561001057600080fd5b506040516107f43803806107f483398101604081905261002f9161006a565b600061003b82826101bf565b5050600180546001600160a01b0319163317905561027d565b634e487b7160e01b600052604160045260246000fd5b60006020828403121561007c57600080fd5b81516001600160401b0381111561009257600080fd5b8201601f810184136100a357600080fd5b80516001600160401b038111156100bc576100bc610054565b604051601f8201601f19908116603f011681016001600160401b03811182821017156100ea576100ea610054565b60405281815282820160200186101561010257600080fd5b60005b8281101561012157602081850181015183830182015201610105565b50600091810160200191909152949350505050565b600181811c9082168061014a57607f821691505b60208210810361016a57634e487b7160e01b600052602260045260246000fd5b50919050565b601f8211156101ba57806000526020600020601f840160051c810160208510156101975750805b601f840160051c820191505b818110156101b757600081556001016101a3565b50505b505050565b81516001600160401b038111156101d8576101d8610054565b6101ec816101e68454610136565b84610170565b6020601f82116001811461022057600083156102085750848201515b600019600385901b1c1916600184901b1784556101b7565b600084815260208120601f198516915b828110156102505787850151825560209485019460019092019101610230565b508482101561026e5786840151600019600387901b60f8161c191681555b50505050600190811b01905550565b6105688061028c6000396000f3fe608060405234801561001057600080fd5b506004361061004c5760003560e01c80638da5cb5b14610051578063a413686214610081578063cfae321714610096578063f2fde38b146100ab575b600080fd5b600154610064906001600160a01b031681565b6040516001600160a01b0390911681526020015b60405180910390f35b61009461008f3660046102b2565b6100be565b005b61009e610167565b6040516100789190610326565b6100946100b9366004610374565b6101f9565b6001546001600160a01b031633146101125760405162461bcd60e51b81526020600482015260126024820152712737ba1031b7b73a3930b1ba1037bbb732b960711b60448201526064015b60405180910390fd5b600061011f828483610443565b50336001600160a01b03167fea07f7ca8b8b2cfaab1214b6e1459ad859cf1ff2d60a948a1f9c4644970c8950838360405161015b929190610503565b60405180910390a25050565b606060008054610176906103ba565b80601f01602080910402602001604051908101604052809291908181526020018280546101a2906103ba565b80156101ef5780601f106101c4576101008083540402835291602001916101ef565b820191906000526020600020905b8154815290600101906020018083116101d257829003601f168201915b5050505050905090565b6001546001600160a01b031633146102485760405162461bcd60e51b81526020600482015260126024820152712737ba1031b7b73a3930b1ba1037bbb732b960711b6044820152606401610109565b6001600160a01b0381166102905760405162461bcd60e51b815260206004820152600f60248201526e496e76616c6964206164647265737360881b6044820152606401610109565b600180546001600160a01b0319166001600160a01b0392909216919091179055565b600080602083850312156102c557600080fd5b823567ffffffffffffffff8111156102dc57600080fd5b8301601f810185136102ed57600080fd5b803567ffffffffffffffff81111561030457600080fd5b85602082840101111561031657600080fd5b6020919091019590945092505050565b602081526000825180602084015260005b818110156103545760208186018101516040868401015201610337565b506000604082850101526040601f19601f83011684010191505092915050565b60006020828403121561038657600080fd5b81356001600160a01b038116811461039d57600080fd5b9392505050565b634e487b7160e01b600052604160045260246000fd5b600181811c908216806103ce57607f821691505b6020821081036103ee57634e487b7160e01b600052602260045260246000fd5b50919050565b601f82111561043e57806000526020600020601f840160051c8101602085101561041b5750805b601f840160051c820191505b8181101561043b5760008155600101610427565b50505b505050565b67ffffffffffffffff83111561045b5761045b6103a4565b61046f8361046983546103ba565b836103f4565b6000601f8411600181146104a3576000851561048b5750838201355b600019600387901b1c1916600186901b17835561043b565b600083815260209020601f19861690835b828110156104d457868501358255602094850194600190920191016104b4565b50868210156104f15760001960f88860031b161c19848701351681555b505060018560011b0183555050505050565b60208152816020820152818360408301376000818301604090810191909152601f909201601f1916010191905056fea2646970667358221220486f2d5ffde6aaa2daccf6826675161073ce03ffc57303e41bea8c08b6e7b3e464736f6c634300081c0033",
  "linkReferences": {},
  "deployedLinkReferences": {}
}